:020000040800F2
:100000000028002085110008151100081B110008A8
:1000100021110008271100082D1100080000000020
:100020000000000000000000000000003311000884
:100030003F110008000000004B1100085711000894
:10004000CD110008CD110008CD110008CD11000818
:10005000CD110008CD110008CD110008CD11000808
:10006000CD110008CD110008CD110008CD110008F8
:10007000CD110008CD110008CD110008CD110008E8
:10008000CD110008CD110008CD110008CD110008D8
:10009000CD110008CD110008CD110008CD110008C8
:1000A000CD110008CD110008CD110008CD110008B8
:1000B00065110008CD11000800000000CD110008F6
:1000C000CD1100080000000000000000CD11000864
:1000D00000000000CD110008CD1100080000000054
:1000E000CD110008CD110008CD110008000000005E
:1000F0000000000000000000000000000000000000
:0C01000000000000000000005FF808F1A3
:10010C0010B5054C237833B9044B13B10448AFF345
:10011C0000800123237010BD180000200000000097
:10012C00B427000808B5034B1BB103490348AFF3D0
:10013C00008008BD000000001C000020B42700084F
:10014C0080B500AF714B1B68013B042B00F2E982B8
:10015C0001A252F823F000BF79010008D101000878
:10016C003D03000881040008ED0500080122202150
:10017C00674801F011FB01224021654801F00CFB9E
:10018C0001228021624801F007FB01220421604812
:10019C0001F002FB012208215D4801F0FDFA012269
:1001AC0010215B4801F0F8FA584B02221A60594BA7
:1001BC001B68642202FB03F3C83B1946002000F0C5
:1001CC0001FFB7E2544B1B78544AA2FB03125209AD
:1001DC00642101FB02F29B1ADBB2002B26D14D4BA2
:1001EC001B68642202FB03F34B4A12789B1A4C4A9D
:1001FC0082FB03129211DB17D31ADAB2494B1A7035
:10020C00444B1B68642202FB03F3434A12789B1A8B
:10021C00434A82FB03129111DA178A1A4FF47A714E
:10022C0001FB02F29A1AD2B23E4B5A703E4B1B782B
:10023C003A4AA2FB03125209642101FB02F29B1AF7
:10024C00DBB2002B28D1334B1B68642202FB03F377
:10025C00C83B354A12789B1A314A82FB0312921121
:10026C00DB17D31ADAB22F4B9A702A4B1B68642215
:10027C0002FB03F3C83B2C4A12789B1A284A82FBD8
:10028C0003129111DA178A1A4FF47A7101FB02F2F8
:10029C009A1AD2B2234BDA70234B1B7819461D4B9A
:1002AC001B68642202FB03F3C83B994202D11E4B2C
:1002BC0000221A7000222021154801F06DFA01224B
:1002CC004021134801F068FA01228021104801F006
:1002DC0063FA012204210E4801F05EFA0122082182
:1002EC000B4801F059FA00221021094801F054FA88
:1002FC000E4B1B68012B40F01682044B03221A6034
:10030C00C821002000F05EFE0DE200BF00000020BE
:10031C000008014004000020380000201F85EB512C
:10032C00D34D621008000020390000204C00002042
:10033C00A24B1B78A24AA2FB03125209642101FBB7
:10034C0002F29B1ADBB2002B26D19E4B1B68642257
:10035C0002FB03F3994A12789B1A9B4A82FB031205
:10036C009211DB17D31ADAB2984B1A70954B1B68A3
:10037C00642202FB03F3914A12789B1A924A82FB85
:10038C0003129111DA178A1A4FF47A7101FB02F2F7
:10039C009A1AD2B28D4B5A70884B1B781A46894BDD
:1003AC001B689A4202D1854B00221A70884B1B782D
:1003BC00834AA2FB03125209642101FB02F29B1A2D
:1003CC00DBB2002B1ED1824B1B78C3F1C8037E4AD3
:1003DC0082FB03129211DB17D31ADAB27B4B9A70A1
:1003EC007B4B1B78C3F1C803774A82FB0312911134
:1003FC00DA178A1A4FF47A7101FB02F29A1AD2B206
:10040C00724BDA70724B1B78C82B02D1704B0022E6
:10041C001A70002220216F4801F0BEF90122402100
:10042C006C4801F0B9F9012280216A4801F0B4F955
:10043C0001220421674801F0AFF900220821654828
:10044C0001F0AAF901221021624801F0A5F9624BD2
:10045C001B68012B40F06981604B04221A60594BD8
:10046C001B68642202FB03F3C83B1946002000F012
:10047C00A9FD5AE1564B1B78514AA2FB03125209B3
:10048C00642101FB02F29B1ADBB2002B26D14D4BEF
:10049C001B68642202FB03F34D4A12789B1A4A4AEA
:1004AC0082FB03129211DB17D31ADAB2474B9A7004
:1004BC00444B1B68642202FB03F3454A12789B1AD7
:1004CC00414A82FB03129111DA178A1A4FF47A719E
:1004DC0001FB02F29A1AD2B23C4BDA70374B1B7802
:1004EC00374AA2FB03125209642101FB02F29B1A48
:1004FC00DBB2002B28D1334B1B68642202FB03F3C5
:10050C00C83B334A12789B1A2F4A82FB0312921172
:10051C00DB17D31ADAB22D4B1A702A4B1B686422E4
:10052C0002FB03F3C83B2A4A12789B1A264A82FB29
:10053C0003129111DA178A1A4FF47A7101FB02F245
:10054C009A1AD2B2214B5A701C4B1B7819461D4B70
:10055C001B68642202FB03F3C83B994202D1174B80
:10056C0000221A70012220211A4801F015F90122EB
:10057C004021184801F010F900228021154801F0A3
:10058C000BF900220421134801F006F9012208217D
:10059C00104801F001F9012210210E4801F0FCF87D
:1005AC000D4B1B68012B40F0C2800C4B05221A60CE
:1005BC00C821002000F006FDB9E000BF3800002083
:1005CC001F85EB5104000020D34D62100800002061
:1005DC0039000020000801404C00002000000020E1
:1005EC00554B1B78554AA2FB03125209642101FB9F
:1005FC0002F29B1ADBB2002B26D1514B1B686422F2
:10060C0002FB03F34C4A12789B1A4E4A82FB0312EC
:10061C009211DB17D31ADAB24B4B9A70484B1B680A
:10062C00642202FB03F3444A12789B1A454A82FB6C
:10063C0003129111DA178A1A4FF47A7101FB02F244
:10064C009A1AD2B2404BDA703B4B1B783B4AA2FB56
:10065C0003125209642101FB02F29B1ADBB2002B3C
:10066C001ED1354B1B78C3F1C803364A82FB0312EB
:10067C009211DB17D31ADAB2334B9A702E4B1B78CC
:10068C00C3F1C8032F4A82FB03129111DA178A1A9D
:10069C004FF47A7101FB02F29A1AD2B22A4BDA7039
:1006AC00254B1B78C82B02D1234B00221A70012238
:1006BC002021264801F070F800224021234801F047
:1006CC006BF801228021214801F066F800220421F8
:1006DC001E4801F061F8012208211C4801F05CF869
:1006EC0001221021194801F057F8134B1B781A46B8
:1006FC00134B1B689A4202D10F4B00221A70144BF9
:10070C001B68012B15D1134B02221A600C4B1B6872
:10071C00642202FB03F3C83B1946002000F052FC94
:10072C0007E000BF06E000BF04E000BF02E000BF2E
:10073C0000E000BF00BF80BD390000201F85EB51D9
:10074C0004000020D34D6210080000200008014076
:10075C004C0000200000002080B483B000AF0346A2
:10076C00FB71FB79002B01D0002307E0FB79064AD3
:10077C00D35C002B0CBF01230023DBB218460C37D3
:10078C00BD4680BC704700BF3C00002080B483B0E5
:10079C0000AF0346FB71FB79002B01D0FF2307E070
:1007AC00FB79064AD35C012B0CBF01230023DBB27F
:1007BC0018460C37BD4680BC704700BF4000002077
:1007CC0080B500AF1D4B1B78022B24D0022B2CDCE8
:1007DC00002B02D0012B0AD027E00020FFF7BCFF32
:1007EC000346002B23D0154B01221A701FE000206A
:1007FC00FFF7B2FF0346002B03D1104B00221A70F7
:10080C0017E00020FFF7C2FF0346002B11D00B4B63
:10081C0002221A700DE00020FFF79EFF0346002B0A
:10082C0009D1064B00221A7005E000BF04E000BF9E
:10083C0002E000BF00E000BF00BF80BD410000200F
:10084C0080B582B000AF0346FB71FB79092B00F237
:10085C00B18101A252F823F08D080008DF080008CE
:10086C003109000883090008D5090008270A000887
:10087C00790A0008CB0A00081D0B00086F0B000852
:10088C0000220121CE4800F087FF00220221CC4833
:10089C0000F082FF00224FF48051C94800F07CFF29
:1008AC0000224FF48071C64800F076FF00224FF40E
:1008BC000071C34800F070FF00224FF48061C04803
:1008CC0000F06AFF01224FF40061BD4800F064FFA4
:1008DC0071E101220121BA4800F05EFF00220221E1
:1008EC00B74800F059FF00224FF48051B44800F093
:1008FC0053FF01224FF48071B14800F04DFF0122EB
:10090C004FF40071AE4800F047FF01224FF48061B4
:10091C00AB4800F041FF01224FF40061A84800F001
:10092C003BFF48E100220121A54800F035FF0022E1
:10093C000221A34800F030FF01224FF48051A0485F
:10094C0000F02AFF00224FF480719D4800F024FF34
:10095C0000224FF400719A4800F01EFF01224FF460
:10096C008061974800F018FF00224FF40061944812
:10097C0000F012FF1FE100220121914800F00CFF52
:10098C00002202218E4800F007FF00224FF4805114
:10099C008B4800F001FF00224FF48071884800F072
:1009AC00FBFE01224FF40071854800F0F5FE012298
:1009BC004FF48061824800F0EFFE00224FF400619A
:1009CC007F4800F0E9FEF6E0012201217C4800F0AE
:1009DC00E3FE002202217A4800F0DEFE00224FF4F2
:1009EC008051774800F0D8FE01224FF48071744892
:1009FC0000F0D2FE01224FF40071714800F0CCFEE1
:100A0C0000224FF480616E4800F0C6FE00224FF4C5
:100A1C0000616B4800F0C0FECDE000220121684867
:100A2C0000F0BAFE01220221654800F0B5FE00225A
:100A3C004FF48051624800F0AFFE00224FF48071F9
:100A4C005F4800F0A9FE01224FF400715C4800F0F1
:100A5C00A3FE00224FF48061594800F09DFE002255
:100A6C004FF40061564800F097FEA4E000220121EB
:100A7C00534800F091FE01220221514800F08CFEF7
:100A8C0000224FF480514E4800F086FE00224FF4B5
:100A9C0080714B4800F080FE00224FF400714848F2
:100AAC0000F07AFE00224FF48061454800F074FE9D
:100ABC0000224FF40061424800F06EFE7BE0002201
:100ACC0001213F4800F068FE002202213C4800F062
:100ADC0063FE00224FF48051394800F05DFE012284
:100AEC004FF48071364800F057FE01224FF400712C
:100AFC00334800F051FE01224FF48061304800F081
:100B0C004BFE01224FF400612D4800F045FE52E0EF
:100B1C00002201212A4800F03FFE00220221284831
:100B2C0000F03AFE00224FF48051254800F034FECC
:100B3C0000224FF48071224800F02EFE00224FF468
:100B4C0000711F4800F028FE00224FF480611C4801
:100B5C0000F022FE00224FF40061194800F01CFE48
:100B6C0029E000220121164800F016FE0022022185
:100B7C00134800F011FE00224FF48051104800F091
:100B8C000BFE00224FF480710D4800F005FE01228F
:100B9C004FF400710A4800F0FFFD00224FF4806111
:100BAC00074800F0F9FD00224FF40061044800F002
:100BBC00F3FD00E000BF00BF0837BD4680BD00BF9D
:100BCC000008014080B500AF684B1B68042B00F295
:100BDC00C28001A252F823F0F90B00083B0C00086C
:100BEC00850C0008CF0C0008190D00080122082103
:100BFC005F4800F0D1FD012210215D4800F0CCFDD2
:100C0C00012210215A4800F0C7FD0122402158480A
:100C1C0000F0C2FD574B1B781846FFF711FE534BE3
:100C2C0001221A606421012000F0CCF99CE0002222
:100C3C0008214F4800F0B0FD012210214C4800F073
:100C4C00ABFD012210214A4800F0A6FD01224021F3
:100C5C00474800F0A1FD474B1B781846FFF7F0FD05
:100C6C00454B5B68012B78D1404B02221A60642102
:100C7C00012000F0A7F970E0012208213C4800F0A7
:100C8C008BFD002210213A4800F086FD0122102134
:100C9C00374800F081FD01224021354800F07CFDF1
:100CAC00344B5B781846FFF7CBFD334B5B68012B5D
:100CBC0055D12E4B03221A606421012000F082F9D9
:100CCC004DE0012208212A4800F066FD0122102186
:100CDC00274800F061FD00221021254800F05CFD42
:100CEC0001224021224800F057FD224B9B781846E8
:100CFC00FFF7A6FD204B5B68012B32D11B4B042266
:100D0C001A606421012000F05DF92AE0012208211B
:100D1C00174800F041FD01221021154800F03CFD60
:100D2C0001221021124800F037FD0022402110480A
:100D3C0000F032FD0F4BDB781846FFF781FD0E4BB0
:100D4C005B68012B0FD1094B01221A606421012031
:100D5C0000F038F907E000BF06E000BF04E000BF78
:100D6C0002E000BF00E000BF00BF80BD34000020E7
:100D7C00000C0140080000204C00002080B500AFA2
:100D8C0000F020FA00F026F800F0ACF800F05EF865
:100D9C000C4801F045F90C4B01221A60FFF710FDCD
:100DAC000A4B1B780133DAB2084B1A70084B1B78CC
:100DBC000133DAB2064B1A70FFF7C2F9FFF702FFE4
:100DCC00ECE700BF54000020000000203800002099
:100DDC003900002080B590B000AF07F1180328222D
:100DEC000021184601F0D8FC3B1D00221A605A6005
:100DFC009A60DA601A610223BB610123BB62102383
:100E0C00FB6200237B6307F11803184600F0DCFC3F
:100E1C000346002B01D000F0CFF80F237B6000239A
:100E2C00BB600023FB6000233B6100237B613B1D07
:100E3C000021184600F048FF0346002B01D000F0BB
:100E4C00BBF800BF4037BD4680BD000080B586B002
:100E5C0000AF07F1080300221A605A609A60DA604A
:100E6C003B4600221A605A601D4B4FF080421A60BC
:100E7C001B4B41F63F725A60194B00229A60184B7B
:100E8C000922DA60164B00221A61154B00229A6176
:100E9C00134801F075F80346002B01D000F08CF8D4
:100EAC004FF48053BB6007F1080319460C4801F05E
:100EBC000BFA0346002B01D000F07EF800233B60B8
:100ECC0000237B603B461946054801F0D7FB0346DF
:100EDC00002B01D000F070F800BF1837BD4680BD64
:100EEC005400002080B586B000AF07F10803002243
:100EFC001A605A609A60DA60274B9B69264A43F065
:100F0C0004039361244B9B6903F004037B607B68AF
:100F1C00214B9B69204A43F0080393611E4B9B694C
:100F2C0003F008033B603B68002241F6FF711B484D
:100F3C0000F032FC00227821194800F02DFC41F61B
:100F4C00FF73BB600123FB6000233B6102237B61C9
:100F5C0007F108031946114800F0A4FA0723BB60F7
:100F6C000023FB6000233B6107F1080319460C4882
:100F7C0000F098FA7823BB600123FB6000233B61EF
:100F8C0002237B6107F108031946054800F08AFA31
:100F9C0000BF1837BD4680BD00100240000801405C
:100FAC00000C014080B582B000AF786000F026F8EC
:100FBC0000BF0837BD4680BD80B400AF72B600BF1D
:100FCC00FEE7000080B483B000AF786039607B68C6
:100FDC00012B09DC07497B683A6841F82320064A53
:100FEC007B68002142F8231000BF0C37BD4680BC43
:100FFC00704700BF440000204C00002080B483B038
:10100C0000AF00237B601CE0124A7B6852F823304F
:10101C00002B13DD0F4A7B6852F823305A1E0D4902
:10102C007B6841F823200B4A7B6852F82330002B55
:10103C0004DC094A7B68012142F823107B680133E8
:10104C007B607B68092BDFDD00BF00BF0C37BD4622
:10105C0080BC7047440000204C00002080B485B058
:10106C0000AF154B9B69144A43F001039361124B7B
:10107C009B6903F00103BB60BB680F4BDB690E4A35
:10108C0043F08053D3610C4BDB6903F080537B60DE
:10109C007B680A4B5B68FB60FB6823F0E063FB60DA
:1010AC00FB6843F00073FB60044AFB68536000BFAD
:1010BC001437BD4680BC7047001002400000014050
:1010CC0080B584B000AF78607B681B68B3F1804F4B
:1010DC0013D10C4BDB690B4A43F00103D361094B71
:1010EC00DB6903F00103FB60FB68002200211C207C
:1010FC0000F0A1F91C2000F0BAF900BF1037BD4672
:10110C0080BD00BF0010024080B400AFFEE780B489
:10111C0000AFFEE780B400AFFEE780B400AFFEE79F
:10112C0080B400AFFEE780B400AF00BFBD4680BC0A
:10113C00704780B400AF00BFBD4680BC704780B420
:10114C0000AF00BFBD4680BC704780B500AF00F05B
:10115C007FF800BF80BD000080B500AF024800F0F2
:10116C00ABFF00BF80BD00BF5400002080B400AFB7
:10117C0000BFBD4680BC7047FFF7F8FF0B480C4919
:10118C000C4A002302E0D458C4500433C4188C42D7
:10119C00F9D3094A094C002301E013600432A2423E
:1011AC00FBD301F0D5FAFFF7E9FD704700000020F2
:1011BC0018000020F827000818000020A0000020CC
:1011CC00FEE7000080B500AF084B1B68074A43F0F0
:1011DC0010031360032000F023F90F2000F008F82F
:1011EC00FFF73CFF0023184680BD00BF00200240E3
:1011FC0080B582B000AF7860124B1A68124B1B7826
:10120C0019464FF47A73B3FBF1F3B2FBF3F31846C0
:10121C0000F03BF90346002B01D001230EE07B6864
:10122C000F2B0AD8002279684FF0FF3000F003F939
:10123C00064A7B681360002300E001231846083738
:10124C00BD4680BD0C0000201400002010000020C2
:10125C0080B400AF054B1B781A46054B1B68134432
:10126C00034A136000BFBD4680BC704714000020C9
:10127C009C00002080B400AF024B1B681846BD4692
:10128C0080BC70479C00002080B485B000AF7860B3
:10129C007B6803F00703FB600C4BDB68BB60BA6830
:1012AC004FF6FF031340BB60FB681A02BB68134385
:1012BC0043F0BF6343F40033BB60044ABB68D360A4
:1012CC0000BF1437BD4680BC704700BF00ED00E086
:1012DC0080B400AF044BDB681B0A03F0070318460D
:1012EC00BD4680BC704700BF00ED00E080B483B009
:1012FC0000AF0346FB7197F90730002B0BDBFB7932
:10130C0003F01F02064997F907305B09012000FA28
:10131C0002F241F8232000BF0C37BD4680BC704759
:10132C0000E100E080B483B000AF03463960FB718C
:10133C0097F90730002B0ADB3B68DAB20C4997F9B6
:10134C0007301201D2B20B4483F800230AE03B6849
:10135C00DAB20849FB7903F00F03043B1201D2B255
:10136C000B441A7600BF0C37BD4680BC704700BFDB
:10137C0000E100E000ED00E080B489B000AFF8605F
:10138C00B9607A60FB6803F00703FB61FB69C3F18A
:10139C000703042B28BF0423BB61FB690433062B12
:1013AC0002D9FB69033B00E000237B614FF0FF3265
:1013BC00BB6902FA03F3DA43BB681A407B699A40B3
:1013CC004FF0FF317B6901FA03F3D9437B680B4083
:1013DC00134318462437BD4680BC704780B582B095
:1013EC0000AF78607B68013BB3F1807F01D30123B0
:1013FC000FE00A4A7B68013B53600F214FF0FF302E
:10140C00FFF790FF054B00229A60044B07221A60ED
:10141C00002318460837BD4680BD00BF10E000E031
:10142C0080B582B000AF78607868FFF72DFF00BF01
:10143C000837BD4680BD80B586B000AF0346B960A5
:10144C007A60FB7300237B61FFF742FF78617A6857
:10145C00B9687869FFF790FF024697F90F3011468B
:10146C001846FFF75FFF00BF1837BD4680BD80B53B
:10147C0082B000AF0346FB7197F907301846FFF7AF
:10148C0035FF00BF0837BD4680BD80B582B000AFC8
:10149C0078607868FFF7A2FF034618460837BD4608
:1014AC0080BD000080B48BB000AF78603960002341
:1014BC007B6200233B6248E101227B6A02FA03F360
:1014CC00FB613B681B68FA691340BB61BA69FB6935
:1014DC009A4240F037813B685B68A34A93425ED0E6
:1014EC00A14A934275D8A14A934258D09F4A93423D
:1014FC006FD89F4A934252D09D4A934269D89D4AD5
:10150C0093424CD09B4A934263D89B4A934246D019
:10151C00994A93425DD8122B2AD8122B59D801A282
:10152C0052F823F0AB150008851500089715000834
:10153C00D9150008DF150008DF150008DF150008B5
:10154C00DF150008DF150008DF150008DF1500089F
:10155C00DF150008DF150008DF150008DF1500088F
:10156C00DF150008DF1500088D150008A11500080F
:10157C00824A934213D02CE03B68DB683B6229E043
:10158C003B68DB6804333B6224E03B68DB68083370
:10159C003B621FE03B68DB680C333B621AE03B6844
:1015AC009B68002B02D104233B6213E03B689B68D1
:1015BC00012B05D108233B627B68FA691A6109E0AB
:1015CC0008233B627B68FA695A6103E000233B62A3
:1015DC0000E000BFBB69FF2B01D87B6801E07B6892
:1015EC0004337B61BB69FF2B02D87B6A9B0002E052
:1015FC007B6A083B9B003B617B691A680F213B6946
:10160C0001FA03F3DB431A40396A3B6901FA03F32D
:10161C001A437B691A603B685B6803F08053002BAC
:10162C0000F09080564B9B69554A43F0010393613F
:10163C00534B9B6903F00103BB60BB68514A7B6A47
:10164C009B08023352F82330FB607B6A03F00303E0
:10165C009B000F2202FA03F3DB43FA681340FB6092
:10166C007B68494A93420DD07B68484A934207D025
:10167C007B68474A934201D1022304E0032302E032
:10168C00012300E000237A6A02F0030292009340E7
:10169C00FA681343FB603B497B6A9B080233FA6888
:1016AC0041F823203B685B6803F48013002B06D0C1
:1016BC00384B9A683749BB6913438B6006E0354B4E
:1016CC009A68BB69DB43334913408B603B685B68AA
:1016DC0003F40013002B06D02E4BDA682D49BB699E
:1016EC001343CB6006E02B4BDA68BB69DB4329491B
:1016FC001340CB603B685B6803F40033002B06D0CF
:10170C00244B5A682349BB6913434B6006E0214BB9
:10171C005A68BB69DB431F4913404B603B685B68ED
:10172C0003F48033002B06D01A4B1A681949BB6995
:10173C0013430B6006E0174B1A68BB69DB43154972
:10174C0013400B607B6A01337B623B681A687B6ACF
:10175C0022FA03F3002B7FF4AFAE00BF00BF2C378F
:10176C00BD4680BC704700BF000032100000311035
:10177C0000002210000021100000121000001110B7
:10178C00001002400000014000080140000C014024
:10179C00001001400004014080B483B000AF7860B9
:1017AC000B467B8013467B707B78002B03D07A88AA
:1017BC007B681A6103E07B881A047B681A6100BF9E
:1017CC000C37BD4680BC704780B586B000AF7860E2
:1017DC007B68002B01D101236CE27B681B6803F052
:1017EC000103002B00F08780924B5B6803F00C0325
:1017FC00042B0CD08F4B5B6803F00C03082B12D11D
:10180C008C4B5B6803F48033B3F5803F0BD1894B71
:10181C001B6803F40033002B6CD07B685B68002BD7
:10182C0068D1012346E27B685B68B3F5803F06D143
:10183C00804B1B687F4A43F4803313602EE07B6837
:10184C005B68002B0CD17B4B1B687A4A23F48033EA
:10185C001360784B1B68774A23F4802313601DE0D8
:10186C007B685B68B3F5A02F0CD1724B1B68714A77
:10187C0043F4802313606F4B1B686E4A43F4803330
:10188C0013600BE06B4B1B686A4A23F480331360C4
:10189C00684B1B68674A23F4802313607B685B6882
:1018AC00002B13D0FFF7E6FC386108E0FFF7E2FCF1
:1018BC0002463B69D31A642B01D90323FAE15D4B31
:1018CC001B6803F40033002BF0D014E0FFF7D2FCBC
:1018DC00386108E0FFF7CEFC02463B69D31A642B53
:1018EC0001D90323E6E1534B1B6803F40033002BAF
:1018FC00F0D100E000BF7B681B6803F00203002BF3
:10190C0063D04C4B5B6803F00C03002B0BD0494BA2
:10191C005B6803F00C03082B1CD1464B5B6803F48B
:10192C008033002B16D1434B1B6803F00203002BB2
:10193C0005D07B681B69012B01D00123BAE13D4B1B
:10194C001B6823F0F8027B685B69DB0039491343A1
:10195C000B603AE07B681B69002B20D0364B0122D0
:10196C001A60FFF787FC386108E0FFF783FC02463A
:10197C003B69D31A022B01D903239BE12D4B1B6826
:10198C0003F00203002BF0D02A4B1B6823F0F80263
:10199C007B685B69DB00274913430B6015E0264B22
:1019AC0000221A60FFF766FC386108E0FFF762FC62
:1019BC0002463B69D31A022B01D903237AE11D4B52
:1019CC001B6803F00203002BF0D17B681B6803F04B
:1019DC000803002B3AD07B689B69002B19D0174B5E
:1019EC0001221A60FFF746FC386108E0FFF742FC61
:1019FC0002463B69D31A022B01D903235AE10D4B42
:101A0C005B6A03F00203002BF0D0012000F09AFA7D
:101A1C001CE00A4B00221A60FFF72CFC38610FE027
:101A2C00FFF728FC02463B69D31A022B08D9032383
:101A3C0040E100BF001002400000424280044242DC
:101A4C009E4B5B6A03F00203002BE9D17B681B6899
:101A5C0003F00403002B00F0A6800023FB75974BCA
:101A6C00DB6903F08053002B0DD1944BDB69934A57
:101A7C0043F08053D361914BDB6903F08053BB601F
:101A8C00BB680123FB758E4B1B6803F48073002B22
:101A9C0018D18B4B1B688A4A43F480731360FFF791
:101AAC00E9FB386108E0FFF7E5FB02463B69D31A16
:101ABC00642B01D90323FDE0814B1B6803F4807375
:101ACC00002BF0D07B68DB68012B06D17B4B1B6AAB
:101ADC007A4A43F0010313622DE07B68DB68002B2C
:101AEC000CD1764B1B6A754A23F001031362734BBE
:101AFC001B6A724A23F0040313621CE07B68DB68E8
:101B0C00052B0CD16D4B1B6A6C4A43F0040313621A
:101B1C006A4B1B6A694A43F0010313620BE0674B83
:101B2C001B6A664A23F001031362644B1B6A634A07
:101B3C0023F0040313627B68DB68002B15D0FFF7DE
:101B4C0099FB38610AE0FFF795FB02463B69D31A13
:101B5C0041F28832934201D90323ABE0574B1B6A05
:101B6C0003F00203002BEED014E0FFF783FB386187
:101B7C000AE0FFF77FFB02463B69D31A41F2883239
:101B8C00934201D9032395E04C4B1B6A03F00203EB
:101B9C00002BEED1FB7D012B05D1484BDB69474A6D
:101BAC0023F08053D3617B68DB69002B00F08180CC
:101BBC00424B5B6803F00C03082B61D07B68DB693C
:101BCC00022B46D13F4B00221A60FFF753FB3861C2
:101BDC0008E0FFF74FFB02463B69D31A022B01D9F1
:101BEC00032367E0354B1B6803F00073002BF0D127
:101BFC007B681B6AB3F5803F08D1304B5B6823F4DC
:101C0C0000327B689B682D4913434B602B4B5B6800
:101C1C0023F474127B68196A7B685B6A0B4327494F
:101C2C0013434B60274B01221A60FFF723FB3861EB
:101C3C0008E0FFF71FFB02463B69D31A022B01D9C0
:101C4C00032337E01D4B1B6803F00073002BF0D00F
:101C5C002FE01C4B00221A60FFF70CFB386108E0E8
:101C6C00FFF708FB02463B69D31A022B01D9032369
:101C7C0020E0124B1B6803F00073002BF0D118E02E
:101C8C007B68DB69012B01D1012313E00B4B5B68F3
:101C9C00FB60FB6803F480327B681B6A9A4206D1B6
:101CAC00FB6803F470127B685B6A9A4201D00123D3
:101CBC0000E0002318461837BD4680BD00100240D6
:101CCC00007000406000424280B584B000AF786084
:101CDC0039607B68002B01D10123D0E06A4B1B6873
:101CEC0003F007033A689A4210D9674B1B6823F03C
:101CFC00070265493B6813430B60634B1B6803F099
:101D0C0007033A689A4201D00123B8E07B681B684C
:101D1C0003F00203002B20D07B681B6803F0040344
:101D2C00002B05D0594B5B68584A43F4E063536071
:101D3C007B681B6803F00803002B05D0534B5B68D2
:101D4C00524A43F460535360504B5B6823F0F002EB
:101D5C007B689B684D4913434B607B681B6803F0A1
:101D6C000103002B40D07B685B68012B07D1474BEC
:101D7C001B6803F40033002B15D101237FE07B6833
:101D8C005B68022B07D1414B1B6803F00073002BDF
:101D9C0009D1012373E03D4B1B6803F00203002BB8
:101DAC0001D101236BE0394B5B6823F003027B68A4
:101DBC005B68364913434B60FFF75CFAF8600AE046
:101DCC00FFF758FA0246FB68D31A41F28832934265
:101DDC0001D9032353E02D4B5B6803F00C027B68A5
:101DEC005B689B009A42EBD1274B1B6803F00703FF
:101DFC003A689A4210D2244B1B6823F007022249FE
:101E0C003B6813430B60204B1B6803F007033A68D5
:101E1C009A4201D0012332E07B681B6803F0040373
:101E2C00002B08D0194B5B6823F4E0627B68DB68FD
:101E3C00164913434B607B681B6803F00803002BA7
:101E4C0009D0124B5B6823F460527B681B69DB0082
:101E5C000E4913434B6000F021F802460B4B5B68B4
:101E6C001B0903F00F030A49CB5C22FA03F3094A5E
:101E7C001360094B1B681846FFF7BAF90023184684
:101E8C001037BD4680BD00BF00200240001002404C
:101E9C00CC2700080C0000201000002080B487B074
:101EAC0000AF0023FB600023BB6000237B61002399
:101EBC007B6000233B611E4B5B68FB60FB6803F09F
:101ECC000C03042B02D0082B03D027E0194B3B61E9
:101EDC0027E0FB689B0C03F00F03174AD35C7B6075
:101EEC00FB6803F48033002B10D0114B5B685B0C48
:101EFC0003F00103114AD35CBB607B680D4A02FB03
:101F0C0003F2BB68B2FBF3F37B6104E07B680C4A21
:101F1C0002FB03F37B617B693B6102E0054B3B6198
:101F2C0000BF3B6918461C37BD4680BC704700BFDC
:101F3C000010024000127A00DC270008EC27000891
:101F4C0000093D0080B485B000AF78600A4B1B6877
:101F5C000A4AA2FB03235B0A7A6802FB03F3FB60C9
:101F6C0000BFFB685A1EFA60002BF9D100BF00BFFE
:101F7C001437BD4680BC70470C000020D34D621056
:101F8C0080B582B000AF78607B68002B01D1012353
:101F9C0041E07B6893F83D30DBB2002B06D17B68C7
:101FAC00002283F83C207868FFF78AF87B680222CD
:101FBC0083F83D207B681A687B6804331946104609
:101FCC0000F06EFA7B68012283F846207B680122C0
:101FDC0083F83E207B68012283F83F207B68012236
:101FEC0083F840207B68012283F841207B68012222
:101FFC0083F842207B68012283F843207B6801220E
:10200C0083F844207B68012283F845207B680122F9
:10201C0083F83D20002318460837BD4680BD0000DC
:10202C0080B485B000AF78607B6893F83D30DBB24C
:10203C00012B01D0012335E07B68022283F83D207F
:10204C007B681B68DA687B681B6842F00102DA6007
:10205C007B681B68164A934209D07B681B68B3F1F6
:10206C00804F04D07B681B68124A934211D17B6865
:10207C001B689B6803F00703FB60FB68062B10D002
:10208C007B681B681A687B681B6842F001021A6047
:10209C0007E07B681B681A687B681B6842F00102CA
:1020AC001A60002318461437BD4680BC704700BF29
:1020BC00002C01400004004080B582B000AF786075
:1020CC007B681B681B6903F00203022B22D17B681F
:1020DC001B68DB6803F00203022B1BD17B681B68B7
:1020EC006FF002021A617B6801221A777B681B6809
:1020FC009B6903F00303002B03D0786800F0B4F95C
:10210C0005E0786800F0A7F9786800F0B6F97B680C
:10211C0000221A777B681B681B6903F00403042BED
:10212C0022D17B681B68DB6803F00403042B1BD1F2
:10213C007B681B686FF004021A617B6802221A77B5
:10214C007B681B689B6903F44073002B03D0786891
:10215C0000F08AF905E0786800F07DF9786800F005
:10216C008CF97B6800221A777B681B681B6903F06B
:10217C000803082B22D17B681B68DB6803F008037B
:10218C00082B1BD17B681B686FF008021A617B68F7
:10219C0004221A777B681B68DB6903F00303002BAE
:1021AC0003D0786800F060F905E0786800F053F926
:1021BC00786800F062F97B6800221A777B681B68EC
:1021CC001B6903F01003102B22D17B681B68DB68A2
:1021DC0003F01003102B1BD17B681B686FF01002EF
:1021EC001A617B6808221A777B681B68DB6903F429
:1021FC004073002B03D0786800F036F905E078685E
:10220C0000F029F9786800F038F97B6800221A7719
:10221C007B681B681B6903F00103012B0ED17B68E3
:10222C001B68DB6803F00103012B07D17B681B687B
:10223C006FF001021A617868FEF7B4FE7B681B68C8
:10224C001B6903F08003802B0ED17B681B68DB6855
:10225C0003F08003802B07D17B681B686FF0800232
:10226C001A61786800F06BFA7B681B681B6903F0D5
:10227C004003402B0ED17B681B68DB6803F04003E6
:10228C00402B07D17B681B686FF040021A6178689D
:10229C0000F0FCF87B681B681B6903F02003202B03
:1022AC000ED17B681B68DB6803F02003202B07D161
:1022BC007B681B686FF020021A61786800F036FAB0
:1022CC0000BF0837BD4680BD80B584B000AF7860D4
:1022DC0039600023FB737B6893F83C30012B01D1F0
:1022EC000223B4E07B68012283F83C207B68022245
:1022FC0083F83D207B681B689B68BB60BB6823F040
:10230C007703BB60BB6823F47F43BB607B681B68AF
:10231C00BA689A603B681B68B3F5005F3ED0B3F5B2
:10232C00005F00F28780B3F5805F00F08680B3F524
:10233C00805F7FD8702B1AD0702B7BD8602B50D03D
:10234C00602B77D8502B3CD0502B73D8402B58D0C7
:10235C00402B6FD8302B64D0302B6BD8202B60D017
:10236C00202B67D8002B5CD0102B5AD062E07B68F6
:10237C0018683B6899683B685A683B68DB6800F0F2
:10238C005EF97B681B689B68BB60BB6843F0770396
:10239C00BB607B681B68BA689A604FE07B68186802
:1023AC003B6899683B685A683B68DB6800F047F902
:1023BC007B681B689A687B681B6842F480429A6051
:1023CC003CE07B6818683B6859683B68DB681A46D8
:1023DC0000F0BEF87B681B685021184600F015F918
:1023EC002CE07B6818683B6859683B68DB681A46C8
:1023FC0000F0DCF87B681B686021184600F005F9DA
:10240C001CE07B6818683B6859683B68DB681A46B7
:10241C0000F09EF87B681B684021184600F0F5F828
:10242C000CE07B681A683B681B681946104600F084
:10243C00ECF803E00123FB7300E000BF7B68012292
:10244C0083F83D207B68002283F83C20FB7B1846F8
:10245C001037BD4680BD80B483B000AF786000BF3C
:10246C000C37BD4680BC704780B483B000AF786039
:10247C0000BF0C37BD4680BC704780B483B000AF42
:10248C00786000BF0C37BD4680BC704780B483B009
:10249C0000AF786000BF0C37BD4680BC70470000B1
:1024AC0080B485B000AF786039607B681B68FB60D6
:1024BC007B68254A934207D07B68B3F1804F03D0E9
:1024CC007B68224A934208D1FB6823F07003FB60BF
:1024DC003B685B68FA681343FB607B681A4A93425B
:1024EC0007D07B68B3F1804F03D07B68174A9342C7
:1024FC0008D1FB6823F44073FB603B68DB68FA6827
:10250C001343FB60FB6823F080023B685B69134359
:10251C00FB607B68FA681A603B689A687B68DA62D1
:10252C003B681A687B689A627B68074A934203D1BE
:10253C003B681A697B681A637B6801225A6100BF89
:10254C001437BD4680BC7047002C0140000400408D
:10255C0080B487B000AFF860B9607A60FB681B6A22
:10256C007B61FB681B6A23F00102FB681A62FB6843
:10257C009B693B613B6923F0F0033B617B681B016A
:10258C003A6913433B617B6923F00A037B617A69E7
:10259C00BB6813437B61FB683A699A61FB687A6993
:1025AC001A6200BF1C37BD4680BC704780B487B030
:1025BC0000AFF860B9607A60FB681B6A7B61FB68EE
:1025CC001B6A23F01002FB681A62FB689B693B6173
:1025DC003B6923F470433B617B681B033A691343EB
:1025EC003B617B6923F0A0037B61BB681B017A69AB
:1025FC0013437B61FB683A699A61FB687A691A62DA
:10260C0000BF1C37BD4680BC704780B485B000AF9E
:10261C00786039607B689B68FB60FB6823F0700313
:10262C00FB603A68FB68134343F00703FB607B686D
:10263C00FA689A6000BF1437BD4680BC704780B4FE
:10264C0087B000AFF860B9607A603B60FB689B684C
:10265C007B617B6923F47F437B613B681A027B6857
:10266C001A43BB6813437A6913437B61FB687A692D
:10267C009A6000BF1C37BD4680BC704780B485B0E3
:10268C0000AF786039607B6893F83C30012B01D146
:10269C00022341E07B68012283F83C207B68022204
:1026AC0083F83D207B681B685B68FB607B681B685C
:1026BC009B68BB60FB6823F07003FB603B681B6886
:1026CC00FA681343FB607B681B68FA685A607B6886
:1026DC001B68144A934209D07B681B68B3F1804F86
:1026EC0004D07B681B68104A93420CD1BB6823F062
:1026FC008003BB603B685B68BA681343BB607B6854
:10270C001B68BA689A607B68012283F83D207B685D
:10271C00002283F83C20002318461437BD4680BCA9
:10272C00704700BF002C01400004004080B483B00F
:10273C0000AF786000BF0C37BD4680BC704780B4DA
:10274C0083B000AF786000BF0C37BD4680BC7047CB
:10275C0070B500260C4D0D4C641BA410A64209D17B
:10276C0000F022F800260A4D0A4C641BA410A64265
:10277C0005D170BD55F8043B98470136EEE755F886
:10278C00043B98470136F2E7F0270008F0270008D1
:10279C00F0270008F427000803460244934200D1B6
:1027AC00704703F8011BF9E7F8B500BFF8BC08BC8B
:1027BC009E467047F8B500BFF8BC08BC9E467047F3
:1027CC0000000000000000000102030406070809D5
:1027DC0002030405060708090A0B0C0D0E0F101056
:0427EC0001020000E6
:0427F00031010008AB
:0427F4000D010008CB
:1027F8000100000005000000030405060024F400A1
:082808001000000001000000B7
:040000050800118559
:00000001FF
