:020000040800F2
:10000000002800200D1B00089D1A0008A31A0008F4
:10001000A91A0008AF1A0008B51A0008000000006D
:10002000000000000000000000000000BB1A0008F3
:10003000C71A000800000000D31A0008DF1A0008E1
:10004000551B0008551B0008551B0008551B0008D0
:10005000551B0008551B0008551B0008551B0008C0
:10006000551B0008551B0008551B0008551B0008B0
:10007000551B0008551B0008551B0008551B0008A0
:10008000551B0008551B0008551B0008551B000890
:10009000551B0008551B0008551B0008551B000880
:1000A000551B0008551B0008551B0008551B000870
:1000B000ED1A0008551B000800000000551B000841
:1000C000551B00080000000000000000551B000840
:1000D00000000000551B0008551B00080000000030
:1000E000551B0008551B0008551B000800000000A8
:1000F0000000000000000000000000000000000000
:0C01000000000000000000005FF808F1A3
:1001100010B5054C237833B9044B13B10448AFF341
:1001200000800123237010BD30000020000000007B
:100130009C31000808B5034B1BB103490348AFF3DA
:10014000008008BD00000000340000209C31000841
:1001500070B54FF0FF0C4CF4E06C1CEA11541DBF5D
:100160001CEA135594EA0C0F95EA0C0F00F0DEF828
:100170002C4481EA030621EA4C5123EA4C5350EA0D
:10018000013518BF52EA033541F4801143F480135E
:1001900038D0A0FB02CE4FF00005E1FB02E506F0EF
:1001A0000042E0FB03E54FF00006E1FB03569CF044
:1001B000000F18BF4EF0010EA4F1FF04B6F5007F4A
:1001C00064F5407404D25FEA4E0E6D4146EB0606BC
:1001D00042EAC62141EA55514FEAC52040EA5E5045
:1001E0004FEACE2EB4F1FD0C88BFBCF5E06F1ED8EF
:1001F000BEF1004F08BF5FEA500E50F1000041EB26
:10020000045170BD06F0004646EA010140EA0200D2
:1002100081EA0301B4EB5C04C2BFD4EB0C0541EAF4
:10022000045170BD41F480114FF0000E013C00F309
:10023000AB8014F1360FDEBF002001F0004170BD2D
:10024000C4F10004203C35DA0C341BDC04F1140446
:10025000C4F1200500FA05F320FA04F001FA05F2D2
:1002600040EA020001F0004221F0004110EBD3709F
:1002700021FA04F642EB06015EEA430E08BF20EACB
:10028000D37070BDC4F10C04C4F1200500FA04F36E
:1002900020FA05F001FA04F240EA020001F0004100
:1002A00010EBD37041F100015EEA430E08BF20EA73
:1002B000D37070BDC4F1200500FA05F24EEA020EBB
:1002C00020FA04F301FA05F243EA020321FA04F0EA
:1002D00001F0004121FA04F220EA020000EBD370A1
:1002E0005EEA430E08BF20EAD37070BD94F0000FA1
:1002F0000FD101F00046400041EB010111F4801FD5
:1003000008BF013CF7D041EA060195F0000F18BF85
:10031000704703F00046520043EB030313F4801FC1
:1003200008BF013DF7D043EA0603704794EA0C0F7B
:100330000CEA135518BF95EA0C0F0CD050EA410691
:1003400018BF52EA4306D1D181EA030101F000410E
:100350004FF0000070BD50EA410606BF1046194636
:1003600052EA430619D094EA0C0F02D150EA013642
:1003700013D195EA0C0F05D152EA03361CBF104683
:1003800019460AD181EA030101F0004141F0FE4122
:1003900041F470014FF0000070BD41F0FE4141F4A6
:1003A000780170BD81F0004102E000BF83F000439E
:1003B00030B54FEA41044FEA430594EA050F08BF00
:1003C00090EA020F1FBF54EA000C55EA020C7FEAC4
:1003D000645C7FEA655C00F0E2804FEA5454D4EB41
:1003E0005555B8BF6D420CDD2C4480EA020281EA0B
:1003F000030382EA000083EA010180EA020281EA43
:100400000303362D88BF30BD11F0004F4FEA013194
:100410004FF4801C4CEA113102D0404261EB4101A3
:1004200013F0004F4FEA03334CEA133302D0524229
:1004300063EB430394EA050F00F0A780A4F10104E5
:10044000D5F1200E0DDB02FA0EFC22FA05F280181F
:1004500041F1000103FA0EF2801843FA05F3594105
:100460000EE0A5F120050EF1200E012A03FA0EFC84
:1004700028BF4CF0020C43FA05F3C01851EBE371AE
:1004800001F0004507D54FF0000EDCF1000C7EEBCB
:1004900000006EEB0101B1F5801F1BD3B1F5001F09
:1004A0000CD349085FEA30004FEA3C0C04F1010428
:1004B0004FEA445212F5800F80F09A80BCF1004F51
:1004C00008BF5FEA500C50F1000041EB045141EAD3
:1004D000050130BD5FEA4C0C404141EB0101013C9C
:1004E00028BFB1F5801FE9D291F0000F04BF01468B
:1004F0000020B1FA81F308BF2033A3F10B03B3F15D
:1005000020020CDA0C3208DD02F1140CC2F10C02EC
:1005100001FA0CF021FA02F10CE002F11402D8BF4A
:10052000C2F1200C01FA02F120FA0CFCDCBF41EA16
:100530000C019040E41AA2BF01EB0451294330BDE5
:100540006FEA04041F3C1CDA0C340EDC04F11404C2
:10055000C4F1200220FA04F001FA02F340EA030099
:1005600021FA04F345EA030130BDC4F10C04C4F1DF
:10057000200220FA02F001FA04F340EA03002946BF
:1005800030BD21FA04F0294630BD94F0000F83F409
:10059000801306BF81F480110134013D4EE77FEAEC
:1005A000645C18BF7FEA655C29D094EA050F08BF38
:1005B00090EA020F05D054EA000C04BF1946104619
:1005C00030BD91EA030F1EBF0021002030BD5FEA5D
:1005D000545C05D14000494128BF41F0004130BD85
:1005E00014F580043CBF01F5801130BD01F00045D9
:1005F00045F0FE4141F470014FF0000030BD7FEA4C
:10060000645C1ABF194610467FEA655C1CBF0B4646
:10061000024650EA013406BF52EA033591EA030F5D
:1006200041F4002130BD00BF90F0000F04BF002155
:10063000704730B54FF4806404F132044FF0000588
:100640004FF0000150E700BF90F0000F04BF002101
:10065000704730B54FF4806404F1320410F0004567
:1006600048BF40424FF000013EE700BF42004FEA62
:10067000E2014FEA31014FEA02701FBF12F07F43DF
:1006800093F07F4F81F06051704732F07F4208BF96
:10069000704793F07F4F04BF41F40021704730B59D
:1006A0004FF4607401F0004521F000411CE700BFE9
:1006B00050EA010208BF704730B54FF000050AE06C
:1006C00050EA010208BF704730B511F0004502D56D
:1006D000404261EB41014FF4806404F132045FEA6F
:1006E000915C3FF4D8AE4FF003025FEADC0C18BF18
:1006F00003325FEADC0C18BF033202EBDC02C2F10A
:10070000200300FA03FC20FA02F001FA03FE40EA9B
:100710000E0021FA02F11444BDE600BF4FEA410287
:1007200012F5001215D211D56FF47873B3EB625243
:1007300012D94FEAC12343F0004343EA505311F06A
:10074000004F23FA02F018BF404270474FF00000FC
:10075000704750EA013005D111F0004008BF6FF03A
:10076000004070474FF00000704700BF80B483B076
:1007700000AF0346FB71FB79034A0121D15400BF4E
:100780000C37BD4680BC70474C00002080B582B05D
:1007900000AF00237B606CE03A4A7B681344197811
:1007A000394A7B6813440A461A70384A7B681344F6
:1007B0001978344A7B6813440A461A70344A7B68B5
:1007C00032F813301946334801F0B0FC034619469D
:1007D0002E4A7B6813440A461A702B4A7B681344DE
:1007E0001A7828497B680B441B789A423ED1254AE7
:1007F0007B6813441A7825497B680B441B789A421E
:1008000034D1254A7B6813441A7820497B680B440D
:100810001B789A421BD01D4A7B68134419781E4AE4
:100820007B6813440A461A70184A7B6813441B7885
:10083000002B1BD17B68DBB21846FFF797FF174BE5
:100840001B68DBB25B00DAB2154B1A700EE0144B7A
:100850001B78013BDAB2124B1A70114B1B78002B3C
:1008600004D10D4A7B68134401221A707B6801335E
:100870007B607B68022B8FDD00BF00BF0837BD4661
:1008800080BD00BF0C0000200800002010000020E8
:1008900000000020000C014014000020580000203F
:1008A0001700002080B483B000AF0346FB71FB79D2
:1008B000074AD35C002B05D0FB79054A0021D154AF
:1008C000012300E0002318460C37BD4680BC70476A
:1008D0004C00002080B500AF5F4B1B685F4A82FB75
:1008E00003129211DB17D31ADAB25D4B1A705A4B0E
:1008F0001B685C4A82FB03125211DB17D21A5A4B57
:1009000083FB02139910D317C91A0B469B000B44A3
:100910005B00D11ACAB2524B5A70544B1B78013B40
:10092000032B00F28F8001A252F823F03D0900084A
:1009300079090008010A0008BD09000801222021E8
:100940004B4801F00AFC01224021494801F005FC16
:1009500001228021464801F000FC444B02221A701B
:10096000444B1B781A46444B1B6803FB02F31946A1
:10097000002000F0F1FF6CE0002220213C4801F053
:10098000ECFB012240213A4801F0E7FB01228021E3
:10099000374801F0E2FB394B1B68012B54D1334B34
:1009A00004221A70364B1B781A46334B1B6803FB24
:1009B00002F31946002000F0CFFF45E0012220217C
:1009C0002B4801F0CAFB01224021294801F0C5FB58
:1009D00000228021264801F0C0FB284B1B68012B18
:1009E00034D1224B03221A70264B1B781A46224B15
:1009F0001B6803FB02F31946002000F0ADFF25E061
:100A0000012220211A4801F0A8FB002240211848A9
:100A100001F0A3FB01228021154801F09EFB174B3A
:100A20001B68012B14D1114B02221A70114B1B7839
:100A30001A46114B1B6803FB02F31946002000F015
:100A40008BFF05E000BF04E000BF02E000BF00E054
:100A500000BF00BF80BD00BF68000020D34D621002
:100A6000640000201F85EB51676666661C0000204D
:100A7000000801401E0000205800002078000020DF
:100A8000200000201F00002080B500AF5D4B9B6858
:100A90005D4A82FB03129211DB17D31ADAB25B4B69
:100AA0009A70584B9B685A4A82FB03125211DB170B
:100AB000D21A584B83FB02139910D317C91A0B464D
:100AC0009B000B445B00D11ACAB2504BDA70524BF8
:100AD0005B78013B032B00F28E8001A252F823F0D9
:100AE000F10A0008B50B0008710B00082D0B000877
:100AF00001220421494801F030FB01220821474826
:100B000001F02BFB01221021444801F026FB424B4F
:100B100004225A70424B1B781A46424B1B6803FB57
:100B200002F31946022000F017FF69E001220421B8
:100B30003A4801F012FB01220821384801F00DFB70
:100B400000221021354801F008FB374B9B68012B30
:100B500053D1314B03225A70344B1B781A46314B18
:100B60001B6803FB02F31946022000F0F5FE44E087
:100B700001220421294801F0F0FA00220821274827
:100B800001F0EBFA01221021244801F0E6FA264B8D
:100B90009B68012B33D1204B02225A70244B1B78C7
:100BA0001A46204B1B6803FB02F31946022000F093
:100BB000D3FE24E000220421184801F0CEFA0122DD
:100BC0000821164801F0C9FA01221021134801F04A
:100BD000C4FA154B9B68012B0DD10F4B04225A70A0
:100BE0000F4B1B781A460F4B1B6803FB02F3194689
:100BF000022000F0B1FE00BF02E000BF00E000BF35
:100C000000BF80BD68000020D34D6210640000204A
:100C10001F85EB51676666661C00002000080140D6
:100C20002000002058000020780000201F00002035
:100C30001E00002080B500AFA14B1B78013B032BA9
:100C400000F2F08101A252F823F000BF5D0C000811
:100C5000670C0008890D0008F10E0008FFF73AFE46
:100C6000FFF712FFE5E1974BDB68012B30D1202124
:100C7000954801F08AFA0421934801F086FA01228E
:100C80004021914801F069FA012208218E4801F0C3
:100C900064FA012280218C4801F05FFA01221021C0
:100CA000894801F05AFA894B1B681846FFF7BCFCCB
:100CB0004FF00002864BFFF74BFA02460B461046F8
:100CC0001946FFF72BFD03461946032000F044FEAA
:100CD000804B5B78002B03D17E4B9B78002B06D09A
:100CE0007C4B00229A707B4B9A787A4B5A70794BE6
:100CF0001B78002B03D1784B1A78764B1A70774B00
:100D000000221A70754B02225A70724B1B78744A7B
:100D1000A2FB0323DB08DAB2704B9A706D4B1A7892
:100D20006F4BA3FB0213D9080B469B000B445B00DF
:100D3000D31ADAB2694BDA700120FFF7B3FD03462C
:100D4000002B0CD0634B1B780133DAB2614B1A7065
:100D5000604B1B78632B02D95E4B01221A70022074
:100D6000FFF7A0FD0346002B00F05E81594B1A7877
:100D7000594B1A70524B01221A705A4B01221A70A9
:100D8000584B01225A704FE14E4BDB68012B30D19A
:100D900040214D4801F0F9F908214B4801F0F5F9DF
:100DA00001222021484801F0D8F9012204214648B7
:100DB00001F0D3F901228021434801F0CEF901224C
:100DC0001021414801F0C9F9404B1B681846FFF754
:100DD0002BFC4FF000023E4BFFF7BAF902460B46E0
:100DE00010461946FFF79AFC03461946032000F007
:100DF000B3FD384B1B78002B03D1364B9B78002B6F
:100E000006D0344B00229A70324B9A78314B1A70CC
:100E1000304B5B78002B03D1334B1A782D4B5A7033
:100E20002E4B00221A702D4B03225A70294B5B78EF
:100E30002B4AA2FB0323DB08DAB2284B9A70254B1E
:100E40005A78274BA3FB0213D9080B469B000B448F
:100E50005B00D31ADAB2214BDA700120FFF722FDD2
:100E60000346002B16D01B4B5B780133DAB2194BCB
:100E70005A70184B5B78632B09D8164B5B781A466F
:100E80001A4B1B781344144A1278934202DD114B1B
:100E900001225A700220FFF705FD0346002B00F0E7
:100EA000C5800C4B5A78104B1A70054B01221A70F2
:100EB0000C4B01221A700B4B01225A70B6E000BF96
:100EC0001800002078000020000801405800002091
:100ED0000000E03F600000201E00002064000020B1
:100EE000CDCCCCCC1C0000201F0000202000002016
:100EF000514BDB68012B30D18021504801F045F97E
:100F000010214E4801F041F9012240214B4801F0E7
:100F100024F901220821494801F01FF9012220216A
:100F2000464801F01AF901222021444801F015F940
:100F3000434B1B681846FFF777FB4FF00002414B0D
:100F4000FFF706F902460B4610461946FFF7E6FB87
:100F500003461946032000F0FFFC3B4B1B78002B97
:100F600003D1394B5B78002B06D0374B00225A70E7
:100F7000354B5A78344B1A70334B9B78002B03D186
:100F8000324B1A78304B9A70314B00221A70304B2A
:100F900004225A702C4B9B782E4AA2FB0323DB08B9
:100FA000DAB22B4B9A70284B9A782A4BA3FB021388
:100FB000D9080B469B000B445B00D31ADAB2244BD2
:100FC000DA700120FFF76EFC0346002B16D01E4B93
:100FD0009B780133DAB21C4B9A701B4B9B78632BC6
:100FE00009D8194B9B781A461B4B1B7813441B4A94
:100FF0001278934202DD144B01229A700220FFF70F
:1010000051FC0346002B13D00F4B9A780F4B1A70EC
:10101000134B01221A70134B01221A70114B01223B
:101020005A7005E000BF04E000BF02E000BF00E02E
:1010300000BF00BF80BD00BF780000200008014055
:10104000580000200000E03F600000202000002049
:1010500064000020CDCCCCCC1F0000201E0000205E
:10106000180000201C00002080B582B000AF0346AD
:10107000FB71FB79092B00F2BB8101A252F823F02E
:10108000A9100008FD10000851110008A511000862
:10109000F91100084D120008A1120008F51200080D
:1010A000491300089D13000800224FF40041D34863
:1010B00001F053F800220221D04801F04EF800223E
:1010C0004FF48051CD4801F048F800224FF4807170
:1010D000CA4801F042F800224FF40071C74801F0FD
:1010E0003CF800224FF48061C44801F036F8012238
:1010F0004FF40061C14801F030F87AE101224FF469
:101100000041BE4801F029F800220221BB4801F04D
:1011100024F800224FF48051B84801F01EF8012253
:101120004FF48071B54801F018F801224FF40071B6
:10113000B24801F012F801224FF48061AF4801F08B
:101140000CF801224FF40061AC4801F006F850E1C0
:1011500000224FF40041A94800F0FFFF00220221C5
:10116000A64800F0FAFF01224FF48051A34800F096
:10117000F4FF00224FF48071A04800F0EEFF00223F
:101180004FF400719D4800F0E8FF01224FF48061A8
:101190009A4800F0E2FF00224FF40061974800F007
:1011A000DCFF26E100224FF40041944800F0D5FF17
:1011B00000220221914800F0D0FF00224FF480511C
:1011C0008E4800F0CAFF00224FF480718B4800F077
:1011D000C4FF01224FF40071884800F0BEFF0122D5
:1011E0004FF48061854800F0B8FF00224FF40061A1
:1011F000824800F0B2FFFCE001224FF400417F483A
:1012000000F0ABFF002202217C4800F0A6FF002284
:101210004FF48051794800F0A0FF01224FF4807113
:10122000764800F09AFF01224FF40071734800F0F5
:1012300094FF00224FF48061704800F08EFF00227E
:101240004FF400616D4800F088FFD2E000224FF4B7
:1012500000416A4800F081FF01220221674800F046
:101260007CFF00224FF48051644800F076FF00229A
:101270004FF48071614800F070FF01224FF400715B
:101280005E4800F06AFF00224FF480615B4800F086
:1012900064FF00224FF40061584800F05EFFA8E0B0
:1012A00000224FF40041554800F057FF012202216F
:1012B000524800F052FF00224FF480514F4800F096
:1012C0004CFF00224FF480714C4800F046FF002292
:1012D0004FF40071494800F040FF00224FF4806154
:1012E000464800F03AFF00224FF40061434800F006
:1012F00034FF7EE000224FF40041404800F02DFF13
:10130000002202213D4800F028FF00224FF48051C6
:101310003A4800F022FF01224FF48071374800F074
:101320001CFF01224FF40071344800F016FF012227
:101330004FF48061314800F010FF01224FF400614A
:101340002E4800F00AFF54E000224FF400412B48E1
:1013500000F003FF00220221284800F0FEFE0022D8
:101360004FF48051254800F0F8FE00224FF48071C0
:10137000224800F0F2FE00224FF400711F4800F0F6
:10138000ECFE00224FF480611C4800F0E6FE0022D3
:101390004FF40061194800F0E0FE2AE000224FF40B
:1013A0000041164800F0D9FE00220221134800F047
:1013B000D4FE00224FF48051104800F0CEFE0022EF
:1013C0004FF480710D4800F0C8FE01224FF4007107
:1013D0000A4800F0C2FE00224FF48061074800F086
:1013E000BCFE00224FF40061044800F0B6FE00E0AD
:1013F00000BF00BF0837BD4680BD00BF00080140E8
:1014000080B500AF964B1B78042B00F2198101A226
:1014100052F823F0291400088D140008FB1400086A
:1014200069150008D5150008002208218D4800F034
:1014300094FE012210218B4800F08FFE0122202112
:10144000884800F08AFE01224021864800F085FE8F
:10145000854B1B781846FFF707FE814B01221A7057
:10146000824B1B681846FFF7DFF87BA3D3E9002304
:10147000FEF76EFE02460B4610461946FFF74EF980
:1014800003461946012000F067FAE2E00022082135
:10149000744800F062FE01221021724800F05DFEE7
:1014A000012220216F4800F058FE012240216D48A2
:1014B00000F053FE6C4B1B781846FFF7D5FD6C4BC4
:1014C0005B68012B40F0BE80654B02221A70674BAF
:1014D0001B681846FFF7A8F85FA3D3E90023FEF7BF
:1014E00037FE02460B4610461946FFF717F903462A
:1014F0001946012000F030FAA4E0012208215948E1
:1015000000F02BFE00221021564800F026FE01229A
:101510002021544800F021FE01224021514800F0D2
:101520001CFE514B5B781846FFF79EFD504B5B68E5
:10153000012B40F089804A4B03221A704B4B1B68E9
:101540001846FFF771F844A3D3E90023FEF700FE25
:1015500002460B4610461946FFF7E0F803461946C7
:10156000012000F0F9F96FE0012208213D4800F068
:10157000F4FD012210213B4800F0EFFD0022202164
:10158000384800F0EAFD01224021364800F0E5FD30
:10159000354B9B781846FFF767FD354B5B68012B91
:1015A00054D12F4B04221A70304B1B681846FFF79A
:1015B0003BF829A3D3E90023FEF7CAFD02460B46F8
:1015C00010461946FFF7AAF803461946012000F015
:1015D000C3F93BE001220821224800F0BEFD0122B0
:1015E0001021204800F0B9FD012220211D4800F003
:1015F000B4FD002240211B4800F0AFFD1A4BDB7800
:101600001846FFF731FD1A4B5B68012B20D1144BB4
:1016100001221A70154B1B681846FFF705F80EA338
:10162000D3E90023FEF794FD02460B461046194607
:10163000FFF774F803461946012000F08DF907E022
:1016400000BF06E000BF04E000BF02E000BF00E012
:1016500000BF00BF80BD00BF9A9999999999B93F81
:101660005C000020000C01406400002058000020B5
:101670007800002080B500AF00F06EFA00F066F848
:1016800000F0F8F800F09EF8284801F0C3F9284B64
:1016900001221A70264B01225A70264B1B68013317
:1016A000254AB2FBF3F2254B1B680133B2FBF3F37F
:1016B000234A1360FFF7A4FEFFF7BCFA0020FFF7F0
:1016C000F1F80346002BF5D06421032000F044F923
:1016D000012220211B4800F040FD01222021194851
:1016E00000F03BFD01224021164800F036FD0122AA
:1016F0000821144800F031FD01222021114800F09A
:101700002CFD012220210F4800F027FD0E4B1B78F5
:10171000032B06D80C4B1B780133DAB20A4B1A7034
:10172000C8E7094B01221A70C4E700BF88000020F7
:101730001C0000205000002000127A0054000020FD
:1017400058000020000801401800002080B590B02B
:1017500000AF07F1180328220021184601F016FDFA
:101760003B1D00221A605A609A60DA601A610223F7
:10177000BB610123BB621023FB6200237B6307F183
:101780001803184600F01AFD0346002B01D000F0A4
:10179000DDF80F237B600023BB600023FB60002388
:1017A0003B6100237B613B1D0021184600F086FF52
:1017B0000346002B01D000F0C9F800BF4037BD46FA
:1017C00080BD000080B586B000AF07F1080300229D
:1017D0001A605A609A60DA603B4600221A605A60CA
:1017E000214B4FF080421A601F4B41F63F725A6006
:1017F0001D4B00229A601C4B0922DA601A4B002212
:101800001A61194B00229A61174801F0B3F8034698
:10181000002B01D000F09AF84FF48053BB6007F121
:1018200008031946104801F049FA0346002B01D07D
:1018300000F08CF800233B6000237B603B46194698
:10184000094801F015FC0346002B01D000F07EF89A
:10185000054B5B68054A1360034BDB68044A136061
:1018600000BF1837BD4680BD880000205000002012
:101870005400002080B586B000AF07F108030022B5
:101880001A605A609A60DA60274B9B69264A43F0D7
:1018900004039361244B9B6903F004037B607B6822
:1018A000214B9B69204A43F0080393611E4B9B69BF
:1018B00003F008033B603B68002249F6FE711B48B9
:1018C00000F04BFC00227821194800F046FC49F654
:1018D000FE73BB600123FB6000233B6102237B613D
:1018E00007F108031946114800F0A6FA0723BB6068
:1018F0000023FB6000233B6107F1080319460C48F5
:1019000000F09AFA7823BB600123FB6000233B615F
:1019100002237B6107F108031946054800F08CFAA1
:1019200000BF1837BD4680BD0010024000080140CE
:10193000000C014080B582B000AF786000F028F85C
:10194000FEF724FF00BF0837BD4680BD80B400AF5E
:1019500072B600BFFEE7000080B483B000AF7860CD
:1019600039607B68032B09DC07497B683A6841F8DA
:101970002320064A7B68002142F8231000BF0C3761
:10198000BD4680BC704700BF680000207800002082
:1019900080B483B000AF00237B601CE0124A7B68F8
:1019A00052F82330002B13DD0F4A7B6852F82330A6
:1019B0005A1E0D497B6841F823200B4A7B6852F878
:1019C0002330002B04DC094A7B68012142F82310F4
:1019D0007B6801337B607B68032BDFDD00BF00BFCA
:1019E0000C37BD4680BC704768000020780000209E
:1019F00080B485B000AF154B9B69144A43F00103D6
:101A00009361124B9B6903F00103BB60BB680F4BF2
:101A1000DB690E4A43F08053D3610C4BDB6903F062
:101A200080537B607B680A4B5B68FB60FB6823F03C
:101A3000E063FB60FB6843F00073FB60044AFB68F3
:101A4000536000BF1437BD4680BC70470010024091
:101A50000000014080B584B000AF78607B681B68EF
:101A6000B3F1804F13D10C4BDB690B4A43F00103F8
:101A7000D361094BDB6903F00103FB60FB680022C3
:101A800000211C2000F0A1F91C2000F0BAF900BFD1
:101A90001037BD4680BD00BF0010024080B400AFCB
:101AA000FEE780B400AFFEE780B400AFFEE780B48D
:101AB00000AFFEE780B400AFFEE780B400AF00BF28
:101AC000BD4680BC704780B400AF00BFBD4680BC3F
:101AD000704780B400AF00BFBD4680BC704780B582
:101AE00000AF00F07FF800BF80BD000080B500AF00
:101AF000024800F0DBFF00BF80BD00BF880000206F
:101B000080B400AF00BFBD4680BC7047FFF7F8FF50
:101B10000B480C490C4A002302E0D458C45004334B
:101B2000C4188C42F9D3094A094C002301E0136020
:101B30000432A242FBD301F005FBFFF79BFD704787
:101B40000000002030000020E031000830000020BC
:101B5000D4000020FEE7000080B500AF084B1B68F2
:101B6000074A43F010031360032000F023F90F200D
:101B700000F008F8FFF73CFF0023184680BD00BFC7
:101B80000020024080B582B000AF7860124B1A6826
:101B9000124B1B7819464FF47A73B3FBF1F3B2FB87
:101BA000F3F3184600F03BF90346002B01D0012364
:101BB0000EE07B680F2B0AD8002279684FF0FF30C7
:101BC00000F003F9064A7B681360002300E001235C
:101BD00018460837BD4680BD240000202C00002098
:101BE0002800002080B400AF054B1B781A46054B37
:101BF0001B681344034A136000BFBD4680BC704796
:101C00002C000020D000002080B400AF024B1B68E5
:101C10001846BD4680BC7047D000002080B485B017
:101C200000AF78607B6803F00703FB600C4BDB6858
:101C3000BB60BA684FF6FF031340BB60FB681A0233
:101C4000BB68134343F0BF6343F40033BB60044AF3
:101C5000BB68D36000BF1437BD4680BC704700BF6F
:101C600000ED00E080B400AF044BDB681B0A03F01A
:101C700007031846BD4680BC704700BF00ED00E07A
:101C800080B483B000AF0346FB7197F90730002B97
:101C90000BDBFB7903F01F02064997F907305B095C
:101CA000012000FA02F241F8232000BF0C37BD46A4
:101CB00080BC704700E100E080B483B000AF034611
:101CC0003960FB7197F90730002B0ADB3B68DAB209
:101CD0000C4997F907301201D2B20B4483F8002364
:101CE0000AE03B68DAB20849FB7903F00F03043BD2
:101CF0001201D2B20B441A7600BF0C37BD4680BC2D
:101D0000704700BF00E100E000ED00E080B489B062
:101D100000AFF860B9607A60FB6803F00703FB610D
:101D2000FB69C3F10703042B28BF0423BB61FB69D4
:101D30000433062B02D9FB69033B00E000237B61DF
:101D40004FF0FF32BB6902FA03F3DA43BB681A4073
:101D50007B699A404FF0FF317B6901FA03F3D94365
:101D60007B680B40134318462437BD4680BC704740
:101D700080B582B000AF78607B68013BB3F1807FB3
:101D800001D301230FE00A4A7B68013B53600F2116
:101D90004FF0FF30FFF790FF054B00229A60044B95
:101DA00007221A60002318460837BD4680BD00BFD1
:101DB00010E000E080B582B000AF78607868FFF78F
:101DC0002DFF00BF0837BD4680BD80B586B000AF8F
:101DD0000346B9607A60FB7300237B61FFF742FF23
:101DE00078617A68B9687869FFF790FF024697F9D9
:101DF0000F3011461846FFF75FFF00BF1837BD468A
:101E000080BD80B582B000AF0346FB7197F9073003
:101E10001846FFF735FF00BF0837BD4680BD80B5C7
:101E200082B000AF78607868FFF7A2FF03461846DB
:101E30000837BD4680BD000080B48BB000AF78602D
:101E4000396000237B6200233B6248E101227B6A08
:101E500002FA03F3FB613B681B68FA691340BB613C
:101E6000BA69FB699A4240F037813B685B68A34AD4
:101E700093425ED0A14A934275D8A14A934258D06A
:101E80009F4A93426FD89F4A934252D09D4A9342B1
:101E900069D89D4A93424CD09B4A934263D89B4A4F
:101EA000934246D0994A93425DD8122B2AD8122BDE
:101EB00059D801A252F823F0331F00080D1F000863
:101EC0001F1F0008611F0008671F0008671F000828
:101ED000671F0008671F0008671F0008671F0008CA
:101EE000671F0008671F0008671F0008671F0008BA
:101EF000671F0008671F0008671F0008151F0008FC
:101F0000291F0008824A934213D02CE03B68DB680B
:101F10003B6229E03B68DB6804333B6224E03B68BA
:101F2000DB6808333B621FE03B68DB680C333B62D5
:101F30001AE03B689B68002B02D104233B6213E04C
:101F40003B689B68012B05D108233B627B68FA69DB
:101F50001A6109E008233B627B68FA695A6103E071
:101F600000233B6200E000BFBB69FF2B01D87B6808
:101F700001E07B6804337B61BB69FF2B02D87B6A7D
:101F80009B0002E07B6A083B9B003B617B691A680F
:101F90000F213B6901FA03F3DB431A40396A3B69BD
:101FA00001FA03F31A437B691A603B685B6803F02C
:101FB0008053002B00F09080564B9B69554A43F0AC
:101FC00001039361534B9B6903F00103BB60BB6842
:101FD000514A7B6A9B08023352F82330FB607B6ACC
:101FE00003F003039B000F2202FA03F3DB43FA68BA
:101FF0001340FB607B68494A93420DD07B68484A96
:10200000934207D07B68474A934201D1022304E000
:10201000032302E0012300E000237A6A02F00302B6
:1020200092009340FA681343FB603B497B6A9B082C
:102030000233FA6841F823203B685B6803F480139D
:10204000002B06D0384B9A683749BB6913438B6025
:1020500006E0354B9A68BB69DB43334913408B601C
:102060003B685B6803F40013002B06D02E4BDA6844
:102070002D49BB691343CB6006E02B4BDA68BB6983
:10208000DB4329491340CB603B685B6803F40033B2
:10209000002B06D0244B5A682349BB6913434B607D
:1020A00006E0214B5A68BB69DB431F4913404B6074
:1020B0003B685B6803F48033002B06D01A4B1A6828
:1020C0001949BB6913430B6006E0174B1A68BB69DB
:1020D000DB43154913400B607B6A01337B623B682D
:1020E0001A687B6A22FA03F3002B7FF4AFAE00BFBD
:1020F00000BF2C37BD4680BC704700BF00003210C7
:102100000000311000002210000021100000121009
:1021100000001110001002400000014000080140C2
:10212000000C0140001001400004014080B485B063
:1021300000AF78600B467B807B689A687B88134091
:10214000002B02D00123FB7301E00023FB73FB7B18
:1021500018461437BD4680BC704780B483B000AFCA
:1021600078600B467B8013467B707B78002B03D016
:102170007A887B681A6103E07B881A047B681A619D
:1021800000BF0C37BD4680BC704780B485B000AF3F
:1021900078600B467B807B68DB68FB607A88FB6835
:1021A00013401A04FB68D9437B880B401A437B68B1
:1021B0001A6100BF1437BD4680BC704780B586B039
:1021C00000AF78607B68002B01D101236CE27B6853
:1021D0001B6803F00103002B00F08780924B5B68C3
:1021E00003F00C03042B0CD08F4B5B6803F00C0343
:1021F000082B12D18C4B5B6803F48033B3F5803F1E
:102200000BD1894B1B6803F40033002B6CD07B6827
:102210005B68002B68D1012346E27B685B68B3F5FD
:10222000803F06D1804B1B687F4A43F480331360A4
:102230002EE07B685B68002B0CD17B4B1B687A4AD5
:1022400023F480331360784B1B68774A23F4802390
:1022500013601DE07B685B68B3F5A02F0CD1724B57
:102260001B68714A43F4802313606F4B1B686E4AEE
:1022700043F4803313600BE06B4B1B686A4A23F412
:1022800080331360684B1B68674A23F48023136014
:102290007B685B68002B13D0FFF7B6FC386108E061
:1022A000FFF7B2FC02463B69D31A642B01D9032322
:1022B000FAE15D4B1B6803F40033002BF0D014E00F
:1022C000FFF7A2FC386108E0FFF79EFC02463B697D
:1022D000D31A642B01D90323E6E1534B1B6803F4A3
:1022E0000033002BF0D100E000BF7B681B6803F0D7
:1022F0000203002B63D04C4B5B6803F00C03002BF4
:102300000BD0494B5B6803F00C03082B1CD1464BE8
:102310005B6803F48033002B16D1434B1B6803F03A
:102320000203002B05D07B681B69012B01D0012320
:10233000BAE13D4B1B6823F0F8027B685B69DB0068
:10234000394913430B603AE07B681B69002B20D0AE
:10235000364B01221A60FFF757FC386108E0FFF79F
:1023600053FC02463B69D31A022B01D903239BE19C
:102370002D4B1B6803F00203002BF0D02A4B1B6887
:1023800023F0F8027B685B69DB00274913430B608D
:1023900015E0264B00221A60FFF736FC386108E092
:1023A000FFF732FC02463B69D31A022B01D9032303
:1023B0007AE11D4B1B6803F00203002BF0D17B6810
:1023C0001B6803F00803002B3AD07B689B69002B45
:1023D00019D0174B01221A60FFF716FC386108E08C
:1023E000FFF712FC02463B69D31A022B01D90323E3
:1023F0005AE10D4B5B6A03F00203002BF0D0012081
:1024000000F09AFA1CE00A4B00221A60FFF7FCFB6E
:1024100038610FE0FFF7F8FB02463B69D31A022B45
:1024200008D9032340E100BF0010024000004242EF
:10243000800442429E4B5B6A03F00203002BE9D109
:102440007B681B6803F00403002B00F0A6800023C8
:10245000FB75974BDB6903F08053002B0DD1944B38
:10246000DB69934A43F08053D361914BDB6903F0FE
:102470008053BB60BB680123FB758E4B1B6803F464
:102480008073002B18D18B4B1B688A4A43F48073EE
:102490001360FFF7B9FB386108E0FFF7B5FB0246B0
:1024A0003B69D31A642B01D90323FDE0814B1B68E0
:1024B00003F48073002BF0D07B68DB68012B06D11E
:1024C0007B4B1B6A7A4A43F0010313622DE07B6861
:1024D000DB68002B0CD1764B1B6A754A23F0010395
:1024E0001362734B1B6A724A23F0040313621CE0ED
:1024F0007B68DB68052B0CD16D4B1B6A6C4A43F083
:10250000040313626A4B1B6A694A43F001031362B6
:102510000BE0674B1B6A664A23F001031362644BAE
:102520001B6A634A23F0040313627B68DB68002B99
:1025300015D0FFF769FB38610AE0FFF765FB02463B
:102540003B69D31A41F28832934201D90323ABE0AD
:10255000574B1B6A03F00203002BEED014E0FFF789
:1025600053FB38610AE0FFF74FFB02463B69D31A81
:1025700041F28832934201D9032395E04C4B1B6A08
:1025800003F00203002BEED1FB7D012B05D1484B5C
:10259000DB69474A23F08053D3617B68DB69002BFA
:1025A00000F08180424B5B6803F00C03082B61D084
:1025B0007B68DB69022B46D13F4B00221A60FFF794
:1025C00023FB386108E0FFF71FFB02463B69D31A83
:1025D000022B01D9032367E0354B1B6803F000731E
:1025E000002BF0D17B681B6AB3F5803F08D1304BDC
:1025F0005B6823F400327B689B682D4913434B6072
:102600002B4B5B6823F474127B68196A7B685B6AE6
:102610000B43274913434B60274B01221A60FFF7F6
:10262000F3FA386108E0FFF7EFFA02463B69D31A84
:10263000022B01D9032337E01D4B1B6803F0007305
:10264000002BF0D02FE01C4B00221A60FFF7DCFAC1
:10265000386108E0FFF7D8FA02463B69D31A022B2B
:1026600001D9032320E0124B1B6803F00073002BF9
:10267000F0D118E07B68DB69012B01D1012313E065
:102680000B4B5B68FB60FB6803F480327B681B6A62
:102690009A4206D1FB6803F470127B685B6A9A4227
:1026A00001D0012300E0002318461837BD4680BD45
:1026B00000100240007000406000424280B584B0CB
:1026C00000AF786039607B68002B01D10123D0E036
:1026D0006A4B1B6803F007033A689A4210D9674BAC
:1026E0001B6823F0070265493B6813430B60634B8B
:1026F0001B6803F007033A689A4201D00123B8E04F
:102700007B681B6803F00203002B20D07B681B68EA
:1027100003F00403002B05D0594B5B68584A43F47F
:10272000E06353607B681B6803F00803002B05D04F
:10273000534B5B68524A43F460535360504B5B68A1
:1027400023F0F0027B689B684D4913434B607B6824
:102750001B6803F00103002B40D07B685B68012BF2
:1027600007D1474B1B6803F40033002B15D101231D
:102770007FE07B685B68022B07D1414B1B6803F04D
:102780000073002B09D1012373E03D4B1B6803F05C
:102790000203002B01D101236BE0394B5B6823F06E
:1027A00003027B685B68364913434B60FFF72CFAE2
:1027B000F8600AE0FFF728FA0246FB68D31A41F2F4
:1027C0008832934201D9032353E02D4B5B6803F019
:1027D0000C027B685B689B009A42EBD1274B1B681D
:1027E00003F007033A689A4210D2244B1B6823F087
:1027F000070222493B6813430B60204B1B6803F020
:1028000007033A689A4201D0012332E07B681B68D3
:1028100003F00403002B08D0194B5B6823F4E0623B
:102820007B68DB68164913434B607B681B6803F0C9
:102830000803002B09D0124B5B6823F460527B68BD
:102840001B69DB000E4913434B6000F021F8024680
:102850000B4B5B681B0903F00F030A49CB5C22FAA0
:1028600003F3094A1360094B1B681846FFF78AF9FE
:10287000002318461037BD4680BD00BF002002402F
:1028800000100240B431000824000020280000207D
:1028900080B487B000AF0023FB600023BB6000233F
:1028A0007B6100237B6000233B611E4B5B68FB6008
:1028B000FB6803F00C03042B02D0082B03D027E0A5
:1028C000194B3B6127E0FB689B0C03F00F03174A91
:1028D000D35C7B60FB6803F48033002B10D0114B7A
:1028E0005B685B0C03F00103114AD35CBB607B683F
:1028F0000D4A02FB03F2BB68B2FBF3F37B6104E019
:102900007B680C4A02FB03F37B617B693B6102E05D
:10291000054B3B6100BF3B6918461C37BD4680BC78
:10292000704700BF0010024000127A00C431000856
:10293000D431000800093D0080B485B000AF786054
:102940000A4B1B680A4AA2FB03235B0A7A6802FB54
:1029500003F3FB6000BFFB685A1EFA60002BF9D13D
:1029600000BF00BF1437BD4680BC70472400002064
:10297000D34D621080B582B000AF78607B68002BC9
:1029800001D1012341E07B6893F83D30DBB2002B9D
:1029900006D17B68002283F83C207868FFF75AF85C
:1029A0007B68022283F83D207B681A687B680433C9
:1029B0001946104600F06EFA7B68012283F8462023
:1029C0007B68012283F83E207B68012283F83F2048
:1029D0007B68012283F840207B68012283F8412034
:1029E0007B68012283F842207B68012283F8432020
:1029F0007B68012283F844207B68012283F845200C
:102A00007B68012283F83D20002318460837BD4625
:102A100080BD000080B485B000AF78607B6893F81B
:102A20003D30DBB2012B01D0012335E07B6802226F
:102A300083F83D207B681B68DA687B681B6842F07E
:102A40000102DA607B681B68164A934209D07B68F2
:102A50001B68B3F1804F04D07B681B68124A934215
:102A600011D17B681B689B6803F00703FB60FB6860
:102A7000062B10D07B681B681A687B681B6842F0C5
:102A800001021A6007E07B681B681A687B681B6894
:102A900042F001021A60002318461437BD4680BC7C
:102AA000704700BF002C01400004004080B582B098
:102AB00000AF78607B681B681B6903F00203022B80
:102AC00022D17B681B68DB6803F00203022B1BD159
:102AD0007B681B686FF002021A617B6801221A771B
:102AE0007B681B689B6903F00303002B03D07868A5
:102AF00000F0B4F905E0786800F0A7F9786800F014
:102B0000B6F97B6800221A777B681B681B6903F0A3
:102B10000403042B22D17B681B68DB6803F00403E9
:102B2000042B1BD17B681B686FF004021A617B6861
:102B300002221A777B681B689B6903F44073002BA1
:102B400003D0786800F08AF905E0786800F07DF934
:102B5000786800F08CF97B6800221A777B681B6824
:102B60001B6903F00803082B22D17B681B68DB6814
:102B700003F00803082B1BD17B681B686FF0080269
:102B80001A617B6804221A777B681B68DB6903F093
:102B90000303002B03D0786800F060F905E0786843
:102BA00000F053F9786800F062F97B6800221A7728
:102BB0007B681B681B6903F01003102B22D17B6814
:102BC0001B68DB6803F01003102B1BD17B681B68AC
:102BD0006FF010021A617B6808221A777B681B6805
:102BE000DB6903F44073002B03D0786800F036F9FA
:102BF00005E0786800F029F9786800F038F97B681A
:102C000000221A777B681B681B6903F00103012B04
:102C10000ED17B681B68DB6803F00103012B07D131
:102C20007B681B686FF001021A617868FEF782FE0C
:102C30007B681B681B6903F08003802B0ED17B68C7
:102C40001B68DB6803F08003802B07D17B681B685F
:102C50006FF080021A61786800F06BFA7B681B687D
:102C60001B6903F04003402B0ED17B681B68DB68B7
:102C700003F04003402B07D17B681B686FF04002D4
:102C80001A61786800F0FCF87B681B681B6903F028
:102C90002003202B0ED17B681B68DB6803F0200328
:102CA000202B07D17B681B686FF020021A617868BF
:102CB00000F036FA00BF0837BD4680BD80B584B04D
:102CC00000AF786039600023FB737B6893F83C3079
:102CD000012B01D10223B4E07B68012283F83C2060
:102CE0007B68022283F83D207B681B689B68BB6081
:102CF000BB6823F07703BB60BB6823F47F43BB60F2
:102D00007B681B68BA689A603B681B68B3F5005F14
:102D10003ED0B3F5005F00F28780B3F5805F00F02E
:102D20008680B3F5805F7FD8702B1AD0702B7BD84C
:102D3000602B50D0602B77D8502B3CD0502B73D8C1
:102D4000402B58D0402B6FD8302B64D0302B6BD811
:102D5000202B60D0202B67D8002B5CD0102B5AD0B2
:102D600062E07B6818683B6899683B685A683B6812
:102D7000DB6800F05EF97B681B689B68BB60BB6822
:102D800043F07703BB607B681B68BA689A604FE0CA
:102D90007B6818683B6899683B685A683B68DB68E1
:102DA00000F047F97B681B689A687B681B6842F4EF
:102DB00080429A603CE07B6818683B6859683B68D1
:102DC000DB681A4600F0BEF87B681B685021184685
:102DD00000F015F92CE07B6818683B6859683B687F
:102DE000DB681A4600F0DCF87B681B686021184637
:102DF00000F005F91CE07B6818683B6859683B687F
:102E0000DB681A4600F09EF87B681B684021184674
:102E100000F0F5F80CE07B681A683B681B681946FF
:102E2000104600F0ECF803E00123FB7300E000BF64
:102E30007B68012283F83D207B68002283F83C20D8
:102E4000FB7B18461037BD4680BD80B483B000AF11
:102E5000786000BF0C37BD4680BC704780B483B03B
:102E600000AF786000BF0C37BD4680BC704780B4AF
:102E700083B000AF786000BF0C37BD4680BC7047A0
:102E800080B483B000AF786000BF0C37BD4680BC13
:102E90007047000080B485B000AF786039607B680F
:102EA0001B68FB607B68254A934207D07B68B3F1BF
:102EB000804F03D07B68224A934208D1FB6823F0FD
:102EC0007003FB603B685B68FA681343FB607B68D8
:102ED0001A4A934207D07B68B3F1804F03D07B68D6
:102EE000174A934208D1FB6823F44073FB603B68A8
:102EF000DB68FA681343FB60FB6823F080023B68E1
:102F00005B691343FB607B68FA681A603B689A68E8
:102F10007B68DA623B681A687B689A627B68074A5A
:102F2000934203D13B681A697B681A637B6801226C
:102F30005A6100BF1437BD4680BC7047002C014069
:102F40000004004080B487B000AFF860B9607A60D8
:102F5000FB681B6A7B61FB681B6A23F00102FB684C
:102F60001A62FB689B693B613B6923F0F0033B619C
:102F70007B681B013A6913433B617B6923F00A03B9
:102F80007B617A69BB6813437B61FB683A699A612C
:102F9000FB687A691A6200BF1C37BD4680BC704767
:102FA00080B487B000AFF860B9607A60FB681B6AD4
:102FB0007B61FB681B6A23F01002FB681A62FB68E6
:102FC0009B693B613B6923F470433B617B681B0356
:102FD0003A6913433B617B6923F0A0037B61BB68C3
:102FE0001B017A6913437B61FB683A699A61FB684C
:102FF0007A691A6200BF1C37BD4680BC704780B436
:1030000085B000AF786039607B689B68FB60FB68C7
:1030100023F07003FB603A68FB68134343F0070337
:10302000FB607B68FA689A6000BF1437BD4680BCBD
:10303000704780B487B000AFF860B9607A603B60D9
:10304000FB689B687B617B6923F47F437B613B6802
:103050001A027B681A43BB6813437A6913437B6186
:10306000FB687A699A6000BF1C37BD4680BC704718
:1030700080B485B000AF786039607B6893F83C30ED
:10308000012B01D1022341E07B68012283F83C201F
:103090007B68022283F83D207B681B685B68FB60CD
:1030A0007B681B689B68BB60FB6823F07003FB6058
:1030B0003B681B68FA681343FB607B681B68FA680F
:1030C0005A607B681B68144A934209D07B681B686E
:1030D000B3F1804F04D07B681B68104A93420CD137
:1030E000BB6823F08003BB603B685B68BA6813432E
:1030F000BB607B681B68BA689A607B68012283F8B2
:103100003D207B68002283F83C20002318461437BA
:10311000BD4680BC704700BF002C01400004004049
:1031200080B483B000AF786000BF0C37BD4680BC70
:10313000704780B483B000AF786000BF0C37BD46E5
:1031400080BC704770B500260C4D0D4C641BA4105C
:10315000A64209D100F022F800260A4D0A4C641B51
:10316000A410A64205D170BD55F8043B984701361E
:10317000EEE755F8043B98470136F2E7D8310008EE
:10318000D8310008D8310008DC3100080346024479
:10319000934200D1704703F8011BF9E7F8B500BF6F
:1031A000F8BC08BC9E467047F8B500BFF8BC08BC28
:0431B0009E46704780
:1031B40000000000000000000102030406070809E3
:1031C40002030405060708090A0B0C0D0E0F101064
:0431D40001020000F4
:0431D80035010008B5
:0431DC0011010008D5
:1031E00001000200040000000100000001000000D6
:1031F00001000000010000C80100000001000A03F6
:10320000070000000024F40010000000010000008E
:0400000508001B0DC7
:00000001FF
