:020000040800F2
:100000000028002099110008291100082F1100086C
:10001000351100083B1100084111000800000000E4
:100020000000000000000000000000004711000870
:1000300053110008000000005F1100086B11000858
:10004000E1110008E1110008E1110008E1110008C8
:10005000E1110008E1110008E1110008E1110008B8
:10006000E1110008E1110008E1110008E1110008A8
:10007000E1110008E1110008E1110008E111000898
:10008000E1110008E1110008E1110008E111000888
:10009000E1110008E1110008E1110008E111000878
:1000A000E1110008E1110008E1110008E111000868
:1000B00079110008E111000800000000E1110008BA
:1000C000E11100080000000000000000E11100083C
:1000D00000000000E1110008E1110008000000002C
:1000E000E1110008E1110008E11100080000000022
:1000F0000000000000000000000000000000000000
:0C01000000000000000000005FF808F1A3
:10010C0010B5054C237833B9044B13B10448AFF345
:10011C0000800123237010BD30000020000000007F
:10012C002828000808B5034B1BB103490348AFF35B
:10013C00008008BD000000003400002028280008C2
:10014C0080B483B000AF0346FB71FB79034A0121F5
:10015C00D15400BF0C37BD4680BC70474C0000200A
:10016C0080B582B000AF00237B6068E0384A7B68C2
:10017C0013441978374A7B6813440A461A70364A76
:10018C007B6813441978324A7B6813440A461A7008
:10019C00324A7B6832F813301946314801F006FBBD
:1001AC00034619462C4A7B6813440A461A70294A9E
:1001BC007B6813441A7826497B680B441B789A4257
:1001CC003AD1234A7B6813441A7823497B680B4441
:1001DC001B789A4230D1234A7B6813441A781E4903
:1001EC007B680B441B789A4217D01B4A7B681344DC
:1001FC0019781C4A7B6813440A461A70164A7B68A5
:10020C0013441B78002B17D17B68DBB21846FFF721
:10021C0097FF154BC8221A700EE0134B1B78013B4D
:10022C00DAB2114B1A70104B1B78002B04D10D4A0B
:10023C007B68134401221A707B6801337B607B68F6
:10024C00022B93DD00BF00BF0837BD4680BD00BF49
:10025C000C000020080000201000002000000020EE
:10026C00000C0140140000201700002080B483B063
:10027C0000AF0346FB71FB79074AD35C002B05D01A
:10028C00FB79054A0021D154012300E000231846D4
:10029C000C37BD4680BC70474C00002080B500AFC9
:1002AC005D4B1B685D4A82FB03129211DB17D31A5C
:1002BC00DAB25B4B1A70584B1B685A4A82FB03121A
:1002CC005211DB17D21A584B83FB02139910D31718
:1002DC00C91A0B469B000B445B00D11ACAB2504B97
:1002EC005A70524B1B78013B032B00F28B8001A2FE
:1002FC0052F823F0110300084B030008CF03000849
:10030C008D03000801222021494801F066FA0122E0
:10031C004021474801F061FA01228021444801F054
:10032C005CFA424B02221A70424B1B781A46642329
:10033C0003FB02F31946002000F04EFE69E0002298
:10034C0020213B4801F049FA01224021384801F0B4
:10035C0044FA01228021364801F03FFA364B1B68E3
:10036C00012B51D1314B04221A70344B1B781A4695
:10037C00642303FB02F31946002000F02DFE43E03A
:10038C00012220212A4801F028FA01224021284884
:10039C0001F023FA00228021254801F01EFA264B99
:1003AC001B68012B32D1214B03221A70244B1B7872
:1003BC001A46642303FB02F31946002000F00CFEDE
:1003CC0024E0012220211A4801F007FA00224021E2
:1003DC00174801F002FA01228021154801F0FDF9BD
:1003EC00154B1B68012B13D1104B02221A70114BA9
:1003FC001B781A46642303FB02F31946002000F015
:10040C00EBFD05E000BF04E000BF02E000BF00E030
:10041C0000BF00BF80BD00BF58000020D34D62104C
:10042C00540000201F85EB51676666661C00002097
:10043C00000801401E000020680000202000002061
:10044C001F00002080B500AF5B4B9B685B4A82FBB2
:10045C0003129211DB17D31ADAB2594B9A70564B1E
:10046C009B68584A82FB03125211DB17D21A564B67
:10047C0083FB02139910D317C91A0B469B000B442C
:10048C005B00D11ACAB24E4BDA70504B5B78013B11
:10049C00032B00F28A8001A252F823F0B904000861
:1004AC007705000835050008F30400080122042133
:1004BC00474801F092F901220821454801F08DF9D5
:1004CC0001221021424801F088F9404B04225A7055
:1004DC00404B1B781A46642303FB02F31946022097
:1004EC0000F07AFD66E001220421394801F075F92B
:1004FC0001220821364801F070F9002210213448FD
:10050C0001F06BF9344B9B68012B50D12F4B03221C
:10051C005A70324B1B781A46642303FB02F31946BC
:10052C00022000F059FD42E001220421284801F08C
:10053C0054F900220821264801F04FF9012210211C
:10054C00234801F04AF9244B9B68012B31D11F4BF6
:10055C0002225A70224B1B781A46642303FB02F3C7
:10056C001946022000F038FD23E00122042118482E
:10057C0001F033F901220821154801F02EF901226E
:10058C001021134801F029F9134B9B68012B0CD156
:10059C000E4B04225A700F4B1B781A46642303FB34
:1005AC0002F31946022000F017FD00BF02E000BF65
:1005BC0000E000BF00BF80BD58000020D34D62108A
:1005CC00540000201F85EB51676666661C000020F6
:1005DC000008014020000020680000201F000020BF
:1005EC001E00002080B500AF864B1B78013B032B0F
:1005FC0000F2FF8001A252F823F000BF1906000898
:10060C0023060008C306000861070008FFF746FE32
:10061C00FFF718FFF4E07C4B1B78002B03D17B4BCE
:10062C001A78794B1A707A4B00221A70784B022286
:10063C005A70754B1B78774AA2FB0323DB08DAB29E
:10064C00734B9A70704B1A78724BA3FB0213D90838
:10065C000B469B000B445B00D31ADAB26C4BDA707E
:10066C000120FFF703FE0346002B0CD0664B1B78D2
:10067C000133DAB2644B1A70634B1B78632B02D9CB
:10068C00614B00221A700220FFF7F0FD0346002B8D
:10069C0000F0B1805C4B1A785C4B1A70594B0122FC
:1006AC001A70594B00221A705B4B01221A705A4B6C
:1006BC0001225A709FE0544B1B78002B03D1574BEF
:1006CC001A78514B1A70524B00221A70504B03225D
:1006DC005A704D4B1B784F4AA2FB0323DB08DAB24E
:1006EC004B4B9A70484B1A784A4BA3FB0213D90810
:1006FC000B469B000B445B00D31ADAB2444BDA7006
:10070C000120FFF7B3FD0346002B0CD03E4B1B78AA
:10071C000133DAB23C4B1A703B4B1B78632B02D97A
:10072C00394B00221A700220FFF7A0FD0346002B64
:10073C0063D0354B1A78394B1A70324B01221A7030
:10074C00314B00221A70344B01221A70324B0122A9
:10075C005A7052E02C4B1B78002B03D1304B1A787B
:10076C00294B1A702A4B00221A70294B04225A70FA
:10077C00254B1B78274AA2FB0323DB08DAB2244B58
:10078C009A70214B1A78234BA3FB0213D9080B4602
:10079C009B000B445B00D31ADAB21D4BDA700120BC
:1007AC00FFF764FD0346002B0CD0174B1B7801336D
:1007BC00DAB2154B1A70144B1B78632B02D9124BFF
:1007CC0000221A700220FFF751FD0346002B16D0B1
:1007DC000D4B1A78124B1A700A4B01221A700A4BE5
:1007EC0000221A700C4B01221A700B4B01225A700A
:1007FC0005E000BF04E000BF02E000BF00E000BF66
:10080C0000BF80BD18000020500000201E000020FA
:10081C0054000020CDCCCCCC1C0000201F000020AC
:10082C002000002080B582B000AF0346FB71FB793D
:10083C00092B00F2BB8101A252F823F071080008C9
:10084C00C5080008190900086D090008C10900084D
:10085C00150A0008690A0008BD0A0008110B0008F7
:10086C00650B000800224FF40041D34800F0B5FF9F
:10087C0000220221D04800F0B0FF00224FF480513A
:10088C00CD4800F0AAFF00224FF48071CA4800F056
:10089C00A4FF00224FF40071C74800F09EFF002215
:1008AC004FF48061C44800F098FF01224FF40061BE
:1008BC00C14800F092FF7AE101224FF40041BE489A
:1008CC0000F08BFF00220221BB4800F086FF0022C3
:1008DC004FF48051B84800F080FF01224FF4807132
:1008EC00B54800F07AFF01224FF40071B24800F0D5
:1008FC0074FF01224FF48061AF4800F06EFF0122BB
:10090C004FF40061AC4800F068FF50E100224FF456
:10091C000041A94800F061FF00220221A64800F026
:10092C005CFF01224FF48051A34800F056FF0022D7
:10093C004FF48071A04800F050FF00224FF400717A
:10094C009D4800F04AFF01224FF480619A4800F064
:10095C0044FF00224FF40061974800F03EFF26E16F
:10096C0000224FF40041944800F037FF002202218E
:10097C00914800F032FF00224FF480518E4800F075
:10098C002CFF00224FF480718B4800F026FF0122CF
:10099C004FF40071884800F020FF01224FF4806171
:1009AC00854800F01AFF00224FF40061824800F0E5
:1009BC0014FFFCE001224FF400417F4800F00DFFD2
:1009CC00002202217C4800F008FF00224FF48051E5
:1009DC00794800F002FF01224FF48071764800F054
:1009EC00FCFE01224FF40071734800F0F6FE002269
:1009FC004FF48061704800F0F0FE00224FF400616B
:100A0C006D4800F0EAFED2E000224FF400416A4843
:100A1C0000F0E3FE01220221674800F0DEFE002216
:100A2C004FF48051644800F0D8FE00224FF48071DE
:100A3C00614800F0D2FE01224FF400715E4800F0D4
:100A4C00CCFE00224FF480615B4800F0C6FE002211
:100A5C004FF40061584800F0C0FEA8E000224FF4AB
:100A6C000041554800F0B9FE01220221524800F025
:100A7C00B4FE00224FF480514F4800F0AEFE00222D
:100A8C004FF480714C4800F0A8FE00224FF4007126
:100A9C00494800F0A2FE00224FF48061464800F065
:100AAC009CFE00224FF40061434800F096FE7EE06D
:100ABC0000224FF40041404800F08FFE002202213A
:100ACC003D4800F08AFE00224FF480513A4800F075
:100ADC0084FE01224FF48071374800F07EFE012223
:100AEC004FF40071344800F078FE01224FF480611D
:100AFC00314800F072FE01224FF400612E4800F0E4
:100B0C006CFE54E000224FF400412B4800F065FECF
:100B1C0000220221284800F060FE00224FF4805190
:100B2C00254800F05AFE00224FF48071224800F054
:100B3C0054FE00224FF400711F4800F04EFE0022BC
:100B4C004FF480611C4800F048FE00224FF4006115
:100B5C00194800F042FE2AE000224FF400411648EA
:100B6C0000F03BFE00220221134800F036FE00226A
:100B7C004FF48051104800F030FE00224FF4807189
:100B8C000D4800F02AFE01224FF400710A4800F0D3
:100B9C0024FE00224FF48061074800F01EFE002264
:100BAC004FF40061044800F018FE00E000BF00BFE5
:100BBC000837BD4680BD00BF0008014080B500AFBE
:100BCC00684B1B78042B00F2C28001A252F823F070
:100BDC00F10B0008330C00087D0C0008C70C000852
:100BEC00110D0008002208215F4800F0F6FD0122DB
:100BFC0010215D4800F0F1FD012220215A4800F03F
:100C0C00ECFD01224021584800F0E7FD574B1B78C2
:100C1C001846FFF707FE534B01221A700A210120D8
:100C2C0000F0DAF99CE0002208214F4800F0D5FDD5
:100C3C00012210214C4800F0D0FD012220214A480D
:100C4C0000F0CBFD01224021474800F0C6FD474B88
:100C5C001B781846FFF7E6FD454B5B68012B78D1F6
:100C6C00404B02221A700A21012000F0B5F970E005
:100C7C00012208213C4800F0B0FD002210213A4826
:100C8C0000F0ABFD01222021374800F0A6FD012227
:100C9C004021354800F0A1FD344B5B781846FFF736
:100CAC00C1FD334B5B68012B55D12E4B03221A70BF
:100CBC000A21012000F090F94DE0012208212A4878
:100CCC0000F08BFD01221021274800F086FD002248
:100CDC002021254800F081FD01224021224800F00E
:100CEC007CFD224B9B781846FFF79CFD204B5B68E4
:100CFC00012B32D11B4B04221A700A21012000F067
:100D0C006BF92AE001220821174800F066FD012248
:100D1C001021154800F061FD01222021124800F03D
:100D2C005CFD00224021104800F057FD0F4BDB7892
:100D3C001846FFF777FD0E4B5B68012B0FD1094B63
:100D4C0001221A700A21012000F046F907E000BFC9
:100D5C0006E000BF04E000BF02E000BF00E000BFFF
:100D6C0000BF80BD4F000020000C0140540000204B
:100D7C006800002080B500AF00F02EFA00F032F8C9
:100D8C0000F0B8F800F06AF8124801F083F9124B41
:100D9C0001221A70104B01225A70FFF70FFFFFF758
:100DAC0021FC0020FFF762FA0346002BF5D00B4B19
:100DBC001B78032B06D8094B1B780133DAB2074B8F
:100DCC001A7002E0054B01221A708021044800F0D1
:100DDC001CFDE2E7780000201C0000201800002019
:100DEC00000C014080B590B000AF07F11803282229
:100DFC000021184601F00AFD3B1D00221A605A60C2
:100E0C009A60DA601A610223BB610123BB62102372
:100E1C00FB6200237B6307F11803184600F00EFDFC
:100E2C000346002B01D000F0D1F80F237B60002388
:100E3C00BB600023FB6000233B6100237B613B1DF7
:100E4C000021184600F07AFF0346002B01D000F079
:100E5C00BDF800BF4037BD4680BD000080B586B0F0
:100E6C0000AF07F1080300221A605A609A60DA603A
:100E7C003B4600221A605A601D4B4FF080421A60AC
:100E8C001B4B41F63F725A60194B00229A60184B6B
:100E9C000922DA60164B00221A61154B00229A6166
:100EAC00134801F0A7F80346002B01D000F08EF890
:100EBC004FF48053BB6007F1080319460C4801F04E
:100ECC003DFA0346002B01D000F080F800233B6074
:100EDC0000237B603B461946054801F009FC03469C
:100EEC00002B01D000F072F800BF1837BD4680BD52
:100EFC007800002080B586B000AF07F1080300220F
:100F0C001A605A609A60DA60274B9B69264A43F054
:100F1C0004039361244B9B6903F004037B607B689F
:100F2C00214B9B69204A43F0080393611E4B9B693C
:100F3C0003F008033B603B68002249F6FE711B4836
:100F4C0000F04BFC0022F821194800F046FC49F651
:100F5C00FE73BB600123FB6000233B6102237B61BA
:100F6C0007F108031946114800F0A6FA0723BB60E5
:100F7C000023FB6000233B6107F1080319460C4872
:100F8C0000F09AFAF823BB600123FB6000233B615D
:100F9C0002237B6107F108031946054800F08CFA1F
:100FAC0000BF1837BD4680BD00100240000801404C
:100FBC00000C014080B582B000AF786000F028F8DA
:100FCC00FFF7CEF800BF0837BD4680BD80B400AF38
:100FDC0072B600BFFEE7000080B483B000AF78604B
:100FEC0039607B68032B09DC07497B683A6841F858
:100FFC002320064A7B68002142F8231000BF0C37DF
:10100C00BD4680BC704700BF58000020680000201F
:10101C0080B483B000AF00237B601CE0124A7B6875
:10102C0052F82330002B13DD0F4A7B6852F8233023
:10103C005A1E0D497B6841F823200B4A7B6852F8F5
:10104C002330002B04DC094A7B68012142F8231071
:10105C007B6801337B607B68032BDFDD00BF00BF47
:10106C000C37BD4680BC704758000020680000203B
:10107C0080B485B000AF154B9B69144A43F0010353
:10108C009361124B9B6903F00103BB60BB680F4B70
:10109C00DB690E4A43F08053D3610C4BDB6903F0E0
:1010AC0080537B607B680A4B5B68FB60FB6823F0BA
:1010BC00E063FB60FB6843F00073FB60044AFB6871
:1010CC00536000BF1437BD4680BC7047001002400F
:1010DC000000014080B584B000AF78607B681B686D
:1010EC00B3F1804F13D10C4BDB690B4A43F0010376
:1010FC00D361094BDB6903F00103FB60FB68002241
:10110C0000211C2000F0A1F91C2000F0BAF900BF4E
:10111C001037BD4680BD00BF0010024080B400AF48
:10112C00FEE780B400AFFEE780B400AFFEE780B40A
:10113C0000AFFEE780B400AFFEE780B400AF00BFA5
:10114C00BD4680BC704780B400AF00BFBD4680BCBC
:10115C00704780B400AF00BFBD4680BC704780B5FF
:10116C0000AF00F07FF800BF80BD000080B500AF7D
:10117C00024800F0DBFF00BF80BD00BF78000020FC
:10118C0080B400AF00BFBD4680BC7047FFF7F8FFCE
:10119C000B480C490C4A002302E0D458C4500433C9
:1011AC00C4188C42F9D3094A094C002301E013609E
:1011BC000432A242FBD301F005FBFFF7DBFD7047C5
:1011CC0000000020300000206C28000830000020B7
:1011DC00C4000020FEE7000080B500AF084B1B6880
:1011EC00074A43F010031360032000F023F90F208B
:1011FC0000F008F8FFF73CFF0023184680BD00BF45
:10120C000020024080B582B000AF7860124B1A68A3
:10121C00124B1B7819464FF47A73B3FBF1F3B2FB04
:10122C00F3F3184600F03BF90346002B01D00123E1
:10123C000EE07B680F2B0AD8002279684FF0FF3044
:10124C0000F003F9064A7B681360002300E00123D9
:10125C0018460837BD4680BD240000202C00002015
:10126C002800002080B400AF054B1B781A46054BB4
:10127C001B681344034A136000BFBD4680BC704713
:10128C002C000020C000002080B400AF024B1B6873
:10129C001846BD4680BC7047C000002080B485B0A5
:1012AC0000AF78607B6803F00703FB600C4BDB68D6
:1012BC00BB60BA684FF6FF031340BB60FB681A02B1
:1012CC00BB68134343F0BF6343F40033BB60044A71
:1012DC00BB68D36000BF1437BD4680BC704700BFED
:1012EC0000ED00E080B400AF044BDB681B0A03F098
:1012FC0007031846BD4680BC704700BF00ED00E0F8
:10130C0080B483B000AF0346FB7197F90730002B14
:10131C000BDBFB7903F01F02064997F907305B09D9
:10132C00012000FA02F241F8232000BF0C37BD4621
:10133C0080BC704700E100E080B483B000AF03468E
:10134C003960FB7197F90730002B0ADB3B68DAB286
:10135C000C4997F907301201D2B20B4483F80023E1
:10136C000AE03B68DAB20849FB7903F00F03043B4F
:10137C001201D2B20B441A7600BF0C37BD4680BCAA
:10138C00704700BF00E100E000ED00E080B489B0E0
:10139C0000AFF860B9607A60FB6803F00703FB618B
:1013AC00FB69C3F10703042B28BF0423BB61FB6952
:1013BC000433062B02D9FB69033B00E000237B615D
:1013CC004FF0FF32BB6902FA03F3DA43BB681A40F1
:1013DC007B699A404FF0FF317B6901FA03F3D943E3
:1013EC007B680B40134318462437BD4680BC7047BE
:1013FC0080B582B000AF78607B68013BB3F1807F31
:10140C0001D301230FE00A4A7B68013B53600F2193
:10141C004FF0FF30FFF790FF054B00229A60044B12
:10142C0007221A60002318460837BD4680BD00BF4E
:10143C0010E000E080B582B000AF78607868FFF70C
:10144C002DFF00BF0837BD4680BD80B586B000AF0C
:10145C000346B9607A60FB7300237B61FFF742FFA0
:10146C0078617A68B9687869FFF790FF024697F956
:10147C000F3011461846FFF75FFF00BF1837BD4607
:10148C0080BD80B582B000AF0346FB7197F9073081
:10149C001846FFF735FF00BF0837BD4680BD80B545
:1014AC0082B000AF78607868FFF7A2FF0346184659
:1014BC000837BD4680BD000080B48BB000AF7860AB
:1014CC00396000237B6200233B6248E101227B6A86
:1014DC0002FA03F3FB613B681B68FA691340BB61BA
:1014EC00BA69FB699A4240F037813B685B68A34A52
:1014FC0093425ED0A14A934275D8A14A934258D0E8
:10150C009F4A93426FD89F4A934252D09D4A93422E
:10151C0069D89D4A93424CD09B4A934263D89B4ACC
:10152C00934246D0994A93425DD8122B2AD8122B5B
:10153C0059D801A252F823F0BF15000899150008DC
:10154C00AB150008ED150008F3150008F31500089D
:10155C00F3150008F3150008F3150008F31500083F
:10156C00F3150008F3150008F3150008F31500082F
:10157C00F3150008F3150008F3150008A115000871
:10158C00B5150008824A934213D02CE03B68DB6807
:10159C003B6229E03B68DB6804333B6224E03B6838
:1015AC00DB6808333B621FE03B68DB680C333B6253
:1015BC001AE03B689B68002B02D104233B6213E0CA
:1015CC003B689B68012B05D108233B627B68FA6959
:1015DC001A6109E008233B627B68FA695A6103E0EF
:1015EC0000233B6200E000BFBB69FF2B01D87B6886
:1015FC0001E07B6804337B61BB69FF2B02D87B6AFB
:10160C009B0002E07B6A083B9B003B617B691A688C
:10161C000F213B6901FA03F3DB431A40396A3B693A
:10162C0001FA03F31A437B691A603B685B6803F0A9
:10163C008053002B00F09080564B9B69554A43F029
:10164C0001039361534B9B6903F00103BB60BB68BF
:10165C00514A7B6A9B08023352F82330FB607B6A49
:10166C0003F003039B000F2202FA03F3DB43FA6837
:10167C001340FB607B68494A93420DD07B68484A13
:10168C00934207D07B68474A934201D1022304E07E
:10169C00032302E0012300E000237A6A02F0030234
:1016AC0092009340FA681343FB603B497B6A9B08AA
:1016BC000233FA6841F823203B685B6803F480131B
:1016CC00002B06D0384B9A683749BB6913438B60A3
:1016DC0006E0354B9A68BB69DB43334913408B609A
:1016EC003B685B6803F40013002B06D02E4BDA68C2
:1016FC002D49BB691343CB6006E02B4BDA68BB6901
:10170C00DB4329491340CB603B685B6803F400332F
:10171C00002B06D0244B5A682349BB6913434B60FA
:10172C0006E0214B5A68BB69DB431F4913404B60F1
:10173C003B685B6803F48033002B06D01A4B1A68A5
:10174C001949BB6913430B6006E0174B1A68BB6958
:10175C00DB43154913400B607B6A01337B623B68AA
:10176C001A687B6A22FA03F3002B7FF4AFAE00BF3A
:10177C0000BF2C37BD4680BC704700BF0000321044
:10178C000000311000002210000021100000121087
:10179C000000111000100240000001400008014040
:1017AC00000C0140001001400004014080B485B0E1
:1017BC0000AF78600B467B807B689A687B8813400F
:1017CC00002B02D00123FB7301E00023FB73FB7B96
:1017DC0018461437BD4680BC704780B483B000AF48
:1017EC0078600B467B8013467B707B78002B03D094
:1017FC007A887B681A6103E07B881A047B681A611B
:10180C0000BF0C37BD4680BC704780B485B000AFBC
:10181C0078600B467B807B68DB68FB607A88FB68B2
:10182C0013401A04FB68D9437B880B401A437B682E
:10183C001A6100BF1437BD4680BC704780B586B0B6
:10184C0000AF78607B68002B01D101236CE27B68D0
:10185C001B6803F00103002B00F08780924B5B6840
:10186C0003F00C03042B0CD08F4B5B6803F00C03C0
:10187C00082B12D18C4B5B6803F48033B3F5803F9B
:10188C000BD1894B1B6803F40033002B6CD07B68A5
:10189C005B68002B68D1012346E27B685B68B3F57B
:1018AC00803F06D1804B1B687F4A43F48033136022
:1018BC002EE07B685B68002B0CD17B4B1B687A4A53
:1018CC0023F480331360784B1B68774A23F480230E
:1018DC0013601DE07B685B68B3F5A02F0CD1724BD5
:1018EC001B68714A43F4802313606F4B1B686E4A6C
:1018FC0043F4803313600BE06B4B1B686A4A23F490
:10190C0080331360684B1B68674A23F48023136091
:10191C007B685B68002B13D0FFF7B6FC386108E0DE
:10192C00FFF7B2FC02463B69D31A642B01D903239F
:10193C00FAE15D4B1B6803F40033002BF0D014E08C
:10194C00FFF7A2FC386108E0FFF79EFC02463B69FA
:10195C00D31A642B01D90323E6E1534B1B6803F420
:10196C000033002BF0D100E000BF7B681B6803F054
:10197C000203002B63D04C4B5B6803F00C03002B71
:10198C000BD0494B5B6803F00C03082B1CD1464B66
:10199C005B6803F48033002B16D1434B1B6803F0B8
:1019AC000203002B05D07B681B69012B01D001239E
:1019BC00BAE13D4B1B6823F0F8027B685B69DB00E6
:1019CC00394913430B603AE07B681B69002B20D02C
:1019DC00364B01221A60FFF757FC386108E0FFF71D
:1019EC0053FC02463B69D31A022B01D903239BE11A
:1019FC002D4B1B6803F00203002BF0D02A4B1B6805
:101A0C0023F0F8027B685B69DB00274913430B600A
:101A1C0015E0264B00221A60FFF736FC386108E00F
:101A2C00FFF732FC02463B69D31A022B01D9032380
:101A3C007AE11D4B1B6803F00203002BF0D17B688D
:101A4C001B6803F00803002B3AD07B689B69002BC2
:101A5C0019D0174B01221A60FFF716FC386108E009
:101A6C00FFF712FC02463B69D31A022B01D9032360
:101A7C005AE10D4B5B6A03F00203002BF0D00120FE
:101A8C0000F09AFA1CE00A4B00221A60FFF7FCFBEC
:101A9C0038610FE0FFF7F8FB02463B69D31A022BC3
:101AAC0008D9032340E100BF00100240000042426D
:101ABC00800442429E4B5B6A03F00203002BE9D187
:101ACC007B681B6803F00403002B00F0A680002346
:101ADC00FB75974BDB6903F08053002B0DD1944BB6
:101AEC00DB69934A43F08053D361914BDB6903F07C
:101AFC008053BB60BB680123FB758E4B1B6803F4E2
:101B0C008073002B18D18B4B1B688A4A43F480736B
:101B1C001360FFF7B9FB386108E0FFF7B5FB02462D
:101B2C003B69D31A642B01D90323FDE0814B1B685D
:101B3C0003F48073002BF0D07B68DB68012B06D19B
:101B4C007B4B1B6A7A4A43F0010313622DE07B68DE
:101B5C00DB68002B0CD1764B1B6A754A23F0010312
:101B6C001362734B1B6A724A23F0040313621CE06A
:101B7C007B68DB68052B0CD16D4B1B6A6C4A43F000
:101B8C00040313626A4B1B6A694A43F00103136234
:101B9C000BE0674B1B6A664A23F001031362644B2C
:101BAC001B6A634A23F0040313627B68DB68002B17
:101BBC0015D0FFF769FB38610AE0FFF765FB0246B9
:101BCC003B69D31A41F28832934201D90323ABE02B
:101BDC00574B1B6A03F00203002BEED014E0FFF707
:101BEC0053FB38610AE0FFF74FFB02463B69D31AFF
:101BFC0041F28832934201D9032395E04C4B1B6A86
:101C0C0003F00203002BEED1FB7D012B05D1484BD9
:101C1C00DB69474A23F08053D3617B68DB69002B77
:101C2C0000F08180424B5B6803F00C03082B61D001
:101C3C007B68DB69022B46D13F4B00221A60FFF711
:101C4C0023FB386108E0FFF71FFB02463B69D31A00
:101C5C00022B01D9032367E0354B1B6803F000739B
:101C6C00002BF0D17B681B6AB3F5803F08D1304B59
:101C7C005B6823F400327B689B682D4913434B60EF
:101C8C002B4B5B6823F474127B68196A7B685B6A64
:101C9C000B43274913434B60274B01221A60FFF774
:101CAC00F3FA386108E0FFF7EFFA02463B69D31A02
:101CBC00022B01D9032337E01D4B1B6803F0007383
:101CCC00002BF0D02FE01C4B00221A60FFF7DCFA3F
:101CDC00386108E0FFF7D8FA02463B69D31A022BA9
:101CEC0001D9032320E0124B1B6803F00073002B77
:101CFC00F0D118E07B68DB69012B01D1012313E0E3
:101D0C000B4B5B68FB60FB6803F480327B681B6ADF
:101D1C009A4206D1FB6803F470127B685B6A9A42A4
:101D2C0001D0012300E0002318461837BD4680BDC2
:101D3C0000100240007000406000424280B584B048
:101D4C0000AF786039607B68002B01D10123D0E0B3
:101D5C006A4B1B6803F007033A689A4210D9674B29
:101D6C001B6823F0070265493B6813430B60634B08
:101D7C001B6803F007033A689A4201D00123B8E0CC
:101D8C007B681B6803F00203002B20D07B681B6868
:101D9C0003F00403002B05D0594B5B68584A43F4FD
:101DAC00E06353607B681B6803F00803002B05D0CD
:101DBC00534B5B68524A43F460535360504B5B681F
:101DCC0023F0F0027B689B684D4913434B607B68A2
:101DDC001B6803F00103002B40D07B685B68012B70
:101DEC0007D1474B1B6803F40033002B15D101239B
:101DFC007FE07B685B68022B07D1414B1B6803F0CB
:101E0C000073002B09D1012373E03D4B1B6803F0D9
:101E1C000203002B01D101236BE0394B5B6823F0EB
:101E2C0003027B685B68364913434B60FFF72CFA5F
:101E3C00F8600AE0FFF728FA0246FB68D31A41F271
:101E4C008832934201D9032353E02D4B5B6803F096
:101E5C000C027B685B689B009A42EBD1274B1B689A
:101E6C0003F007033A689A4210D2244B1B6823F004
:101E7C00070222493B6813430B60204B1B6803F09D
:101E8C0007033A689A4201D0012332E07B681B6851
:101E9C0003F00403002B08D0194B5B6823F4E062B9
:101EAC007B68DB68164913434B607B681B6803F047
:101EBC000803002B09D0124B5B6823F460527B683B
:101ECC001B69DB000E4913434B6000F021F80246FE
:101EDC000B4B5B681B0903F00F030A49CB5C22FA1E
:101EEC0003F3094A1360094B1B681846FFF78AF97C
:101EFC00002318461037BD4680BD00BF00200240AD
:101F0C000010024040280008240000202800002077
:101F1C0080B487B000AF0023FB600023BB600023BC
:101F2C007B6100237B6000233B611E4B5B68FB6085
:101F3C00FB6803F00C03042B02D0082B03D027E022
:101F4C00194B3B6127E0FB689B0C03F00F03174A0E
:101F5C00D35C7B60FB6803F48033002B10D0114BF7
:101F6C005B685B0C03F00103114AD35CBB607B68BC
:101F7C000D4A02FB03F2BB68B2FBF3F37B6104E096
:101F8C007B680C4A02FB03F37B617B693B6102E0DB
:101F9C00054B3B6100BF3B6918461C37BD4680BCF6
:101FAC00704700BF0010024000127A005028000851
:101FBC006028000800093D0080B485B000AF78604F
:101FCC000A4B1B680A4AA2FB03235B0A7A6802FBD2
:101FDC0003F3FB6000BFFB685A1EFA60002BF9D1BB
:101FEC0000BF00BF1437BD4680BC704724000020E2
:101FFC00D34D621080B582B000AF78607B68002B47
:10200C0001D1012341E07B6893F83D30DBB2002B1A
:10201C0006D17B68002283F83C207868FFF75AF8D9
:10202C007B68022283F83D207B681A687B68043346
:10203C001946104600F06EFA7B68012283F84620A0
:10204C007B68012283F83E207B68012283F83F20C5
:10205C007B68012283F840207B68012283F84120B1
:10206C007B68012283F842207B68012283F843209D
:10207C007B68012283F844207B68012283F8452089
:10208C007B68012283F83D20002318460837BD46A3
:10209C0080BD000080B485B000AF78607B6893F899
:1020AC003D30DBB2012B01D0012335E07B680222ED
:1020BC0083F83D207B681B68DA687B681B6842F0FC
:1020CC000102DA607B681B68164A934209D07B6870
:1020DC001B68B3F1804F04D07B681B68124A934293
:1020EC0011D17B681B689B6803F00703FB60FB68DE
:1020FC00062B10D07B681B681A687B681B6842F043
:10210C0001021A6007E07B681B681A687B681B6811
:10211C0042F001021A60002318461437BD4680BCF9
:10212C00704700BF002C01400004004080B582B015
:10213C0000AF78607B681B681B6903F00203022BFD
:10214C0022D17B681B68DB6803F00203022B1BD1D6
:10215C007B681B686FF002021A617B6801221A7798
:10216C007B681B689B6903F00303002B03D0786822
:10217C0000F0B4F905E0786800F0A7F9786800F091
:10218C00B6F97B6800221A777B681B681B6903F021
:10219C000403042B22D17B681B68DB6803F0040367
:1021AC00042B1BD17B681B686FF004021A617B68DF
:1021BC0002221A777B681B689B6903F44073002B1F
:1021CC0003D0786800F08AF905E0786800F07DF9B2
:1021DC00786800F08CF97B6800221A777B681B68A2
:1021EC001B6903F00803082B22D17B681B68DB6892
:1021FC0003F00803082B1BD17B681B686FF00802E7
:10220C001A617B6804221A777B681B68DB6903F010
:10221C000303002B03D0786800F060F905E07868C0
:10222C0000F053F9786800F062F97B6800221A77A5
:10223C007B681B681B6903F01003102B22D17B6891
:10224C001B68DB6803F01003102B1BD17B681B6829
:10225C006FF010021A617B6808221A777B681B6882
:10226C00DB6903F44073002B03D0786800F036F977
:10227C0005E0786800F029F9786800F038F97B6897
:10228C0000221A777B681B681B6903F00103012B82
:10229C000ED17B681B68DB6803F00103012B07D1AF
:1022AC007B681B686FF001021A617868FEF782FE8A
:1022BC007B681B681B6903F08003802B0ED17B6845
:1022CC001B68DB6803F08003802B07D17B681B68DD
:1022DC006FF080021A61786800F06BFA7B681B68FB
:1022EC001B6903F04003402B0ED17B681B68DB6835
:1022FC0003F04003402B07D17B681B686FF0400252
:10230C001A61786800F0FCF87B681B681B6903F0A5
:10231C002003202B0ED17B681B68DB6803F02003A5
:10232C00202B07D17B681B686FF020021A6178683C
:10233C0000F036FA00BF0837BD4680BD80B584B0CA
:10234C0000AF786039600023FB737B6893F83C30F6
:10235C00012B01D10223B4E07B68012283F83C20DD
:10236C007B68022283F83D207B681B689B68BB60FE
:10237C00BB6823F07703BB60BB6823F47F43BB606F
:10238C007B681B68BA689A603B681B68B3F5005F92
:10239C003ED0B3F5005F00F28780B3F5805F00F0AC
:1023AC008680B3F5805F7FD8702B1AD0702B7BD8CA
:1023BC00602B50D0602B77D8502B3CD0502B73D83F
:1023CC00402B58D0402B6FD8302B64D0302B6BD88F
:1023DC00202B60D0202B67D8002B5CD0102B5AD030
:1023EC0062E07B6818683B6899683B685A683B6890
:1023FC00DB6800F05EF97B681B689B68BB60BB68A0
:10240C0043F07703BB607B681B68BA689A604FE047
:10241C007B6818683B6899683B685A683B68DB685E
:10242C0000F047F97B681B689A687B681B6842F46C
:10243C0080429A603CE07B6818683B6859683B684E
:10244C00DB681A4600F0BEF87B681B685021184602
:10245C0000F015F92CE07B6818683B6859683B68FC
:10246C00DB681A4600F0DCF87B681B6860211846B4
:10247C0000F005F91CE07B6818683B6859683B68FC
:10248C00DB681A4600F09EF87B681B6840211846F2
:10249C0000F0F5F80CE07B681A683B681B6819467D
:1024AC00104600F0ECF803E00123FB7300E000BFE2
:1024BC007B68012283F83D207B68002283F83C2056
:1024CC00FB7B18461037BD4680BD80B483B000AF8F
:1024DC00786000BF0C37BD4680BC704780B483B0B9
:1024EC0000AF786000BF0C37BD4680BC704780B42D
:1024FC0083B000AF786000BF0C37BD4680BC70471E
:10250C0080B483B000AF786000BF0C37BD4680BC90
:10251C007047000080B485B000AF786039607B688C
:10252C001B68FB607B68254A934207D07B68B3F13C
:10253C00804F03D07B68224A934208D1FB6823F07A
:10254C007003FB603B685B68FA681343FB607B6855
:10255C001A4A934207D07B68B3F1804F03D07B6853
:10256C00174A934208D1FB6823F44073FB603B6825
:10257C00DB68FA681343FB60FB6823F080023B685E
:10258C005B691343FB607B68FA681A603B689A6866
:10259C007B68DA623B681A687B689A627B68074AD8
:1025AC00934203D13B681A697B681A637B680122EA
:1025BC005A6100BF1437BD4680BC7047002C0140E7
:1025CC000004004080B487B000AFF860B9607A6056
:1025DC00FB681B6A7B61FB681B6A23F00102FB68CA
:1025EC001A62FB689B693B613B6923F0F0033B611A
:1025FC007B681B013A6913433B617B6923F00A0337
:10260C007B617A69BB6813437B61FB683A699A61A9
:10261C00FB687A691A6200BF1C37BD4680BC7047E4
:10262C0080B487B000AFF860B9607A60FB681B6A51
:10263C007B61FB681B6A23F01002FB681A62FB6863
:10264C009B693B613B6923F470433B617B681B03D3
:10265C003A6913433B617B6923F0A0037B61BB6840
:10266C001B017A6913437B61FB683A699A61FB68C9
:10267C007A691A6200BF1C37BD4680BC704780B4B3
:10268C0085B000AF786039607B689B68FB60FB6845
:10269C0023F07003FB603A68FB68134343F00703B5
:1026AC00FB607B68FA689A6000BF1437BD4680BC3B
:1026BC00704780B487B000AFF860B9607A603B6057
:1026CC00FB689B687B617B6923F47F437B613B6880
:1026DC001A027B681A43BB6813437A6913437B6104
:1026EC00FB687A699A6000BF1C37BD4680BC704796
:1026FC0080B485B000AF786039607B6893F83C306B
:10270C00012B01D1022341E07B68012283F83C209C
:10271C007B68022283F83D207B681B685B68FB604A
:10272C007B681B689B68BB60FB6823F07003FB60D5
:10273C003B681B68FA681343FB607B681B68FA688C
:10274C005A607B681B68144A934209D07B681B68EB
:10275C00B3F1804F04D07B681B68104A93420CD1B4
:10276C00BB6823F08003BB603B685B68BA681343AB
:10277C00BB607B681B68BA689A607B68012283F82F
:10278C003D207B68002283F83C2000231846143738
:10279C00BD4680BC704700BF002C014000040040C7
:1027AC0080B483B000AF786000BF0C37BD4680BCEE
:1027BC00704780B483B000AF786000BF0C37BD4663
:1027CC0080BC704770B500260C4D0D4C641BA410DA
:1027DC00A64209D100F022F800260A4D0A4C641BCF
:1027EC00A410A64205D170BD55F8043B984701369C
:1027FC00EEE755F8043B98470136F2E764280008E9
:10280C00642800086428000868280008034602446D
:10281C00934200D1704703F8011BF9E7F8B500BFEC
:10282C00F8BC08BC9E467047F8B500BFF8BC08BCA5
:04283C009E467047FD
:102840000000000000000000010203040607080960
:1028500002030405060708090A0B0C0D0E0F1010E1
:042860000102000071
:042864003101000836
:042868000D01000856
:10286C000100020004000000010000000100000053
:10287C0001000000010000C8010000000100050279
:10288C00030000000024F400100000000100000010
:040000050800119945
:00000001FF
