:020000040800F2
:10000000002800205D130008ED120008F31200081C
:10001000F9120008FF120008051300080000000094
:100020000000000000000000000000000B130008AA
:100030001713000800000000231300082F13000806
:10004000A5130008A5130008A5130008A5130008B0
:10005000A5130008A5130008A5130008A5130008A0
:10006000A5130008A5130008A5130008A513000890
:10007000A5130008A5130008A5130008A513000880
:10008000A5130008A5130008A5130008A513000870
:10009000A5130008A5130008A5130008A513000860
:1000A000A5130008A5130008A5130008A513000850
:1000B0003D130008A513000800000000A513000868
:1000C000A51300080000000000000000A5130008B0
:1000D00000000000A5130008A513000800000000A0
:1000E000A5130008A5130008A513000800000000D0
:1000F0000000000000000000000000000000000000
:0C01000000000000000000005FF808F1A3
:10010C0010B5054C237833B9044B13B10448AFF345
:10011C0000800123237010BD30000020000000007F
:10012C00EC29000808B5034B1BB103490348AFF396
:10013C00008008BD0000000034000020EC290008FD
:10014C0080B483B000AF0346FB71FB79034A0121F5
:10015C00D15400BF0C37BD4680BC70474C0000200A
:10016C0080B582B000AF00237B6068E0384A7B68C2
:10017C0013441978374A7B6813440A461A70364A76
:10018C007B6813441978324A7B6813440A461A7008
:10019C00324A7B6832F813301946314801F0E8FBDB
:1001AC00034619462C4A7B6813440A461A70294A9E
:1001BC007B6813441A7826497B680B441B789A4257
:1001CC003AD1234A7B6813441A7823497B680B4441
:1001DC001B789A4230D1234A7B6813441A781E4903
:1001EC007B680B441B789A4217D01B4A7B681344DC
:1001FC0019781C4A7B6813440A461A70164A7B68A5
:10020C0013441B78002B17D17B68DBB21846FFF721
:10021C0097FF154BC8221A700EE0134B1B78013B4D
:10022C00DAB2114B1A70104B1B78002B04D10D4A0B
:10023C007B68134401221A707B6801337B607B68F6
:10024C00022B93DD00BF00BF0837BD4680BD00BF49
:10025C000C000020080000201000002000000020EE
:10026C00000C0140140000201700002080B483B063
:10027C0000AF0346FB71FB79074AD35C002B05D01A
:10028C00FB79054A0021D154012300E000231846D4
:10029C000C37BD4680BC70474C00002080B500AFC9
:1002AC005D4B1B685D4A82FB03129211DB17D31A5C
:1002BC00DAB25B4B1A70584B1B685A4A82FB03121A
:1002CC005211DB17D21A584B83FB02139910D31718
:1002DC00C91A0B469B000B445B00D11ACAB2504B97
:1002EC005A70524B1B78013B032B00F28B8001A2FE
:1002FC0052F823F0110300084B030008CF03000849
:10030C008D03000801222021494801F048FB0122FD
:10031C004021474801F043FB01228021444801F071
:10032C003EFB424B02221A70424B1B781A46642346
:10033C0003FB02F31946002000F030FF69E00022B5
:10034C0020213B4801F02BFB01224021384801F0D1
:10035C0026FB01228021364801F021FB364B1B681D
:10036C00012B51D1314B04221A70344B1B781A4695
:10037C00642303FB02F31946002000F00FFF43E057
:10038C00012220212A4801F00AFB012240212848A1
:10039C0001F005FB00228021254801F000FB264BD3
:1003AC001B68012B32D1214B03221A70244B1B7872
:1003BC001A46642303FB02F31946002000F0EEFEFC
:1003CC0024E0012220211A4801F0E9FA0022402100
:1003DC00174801F0E4FA01228021154801F0DFFAF8
:1003EC00154B1B68012B13D1104B02221A70114BA9
:1003FC001B781A46642303FB02F31946002000F015
:10040C00CDFE05E000BF04E000BF02E000BF00E04D
:10041C0000BF00BF80BD00BF58000020D34D62104C
:10042C00540000201F85EB51676666661C00002097
:10043C00000801401E000020680000202000002061
:10044C001F00002080B500AF5B4B9B685B4A82FBB2
:10045C0003129211DB17D31ADAB2594B9A70564B1E
:10046C009B68584A82FB03125211DB17D21A564B67
:10047C0083FB02139910D317C91A0B469B000B442C
:10048C005B00D11ACAB24E4BDA70504B5B78013B11
:10049C00032B00F28A8001A252F823F0B904000861
:1004AC007705000835050008F30400080122042133
:1004BC00474801F074FA01220821454801F06FFA0F
:1004CC0001221021424801F06AFA404B04225A7072
:1004DC00404B1B781A46642303FB02F31946022097
:1004EC0000F05CFE66E001220421394801F057FA65
:1004FC0001220821364801F052FA0022102134481A
:10050C0001F04DFA344B9B68012B50D12F4B032239
:10051C005A70324B1B781A46642303FB02F31946BC
:10052C00022000F03BFE42E001220421284801F0A9
:10053C0036FA00220821264801F031FA0122102156
:10054C00234801F02CFA244B9B68012B31D11F4B13
:10055C0002225A70224B1B781A46642303FB02F3C7
:10056C001946022000F01AFE23E00022042118484C
:10057C0001F015FA01220821154801F010FA0122A8
:10058C001021134801F00BFA134B9B68012B0CD173
:10059C000E4B04225A700F4B1B781A46642303FB34
:1005AC0002F31946022000F0F9FD00BF02E000BF83
:1005BC0000E000BF00BF80BD58000020D34D62108A
:1005CC00540000201F85EB51676666661C000020F6
:1005DC000008014020000020680000201F000020BF
:1005EC001E00002080B500AF904B1B78013B032B05
:1005FC0000F2B98101A252F823F000BF19060008DD
:10060C00230600082307000861080008FFF746FED0
:10061C00FFF718FFAEE1864BDB68012B1FD12021C1
:10062C00844801F0D4F90421824801F0D0F9012268
:10063C004021804801F0B3F9012208217D4801F0E6
:10064C00AEF9012280217B4801F0A9F90122102189
:10065C00784801F0A4F96421032000F09FFD764B4B
:10066C005B78002B03D1744B9B78002B06D0724B1C
:10067C0000229A70704B9A786F4B5A706E4B1B78A5
:10068C00002B03D16D4B1A786B4B1A706C4B0022FC
:10069C001A706B4B02225A70674B1B78694AA2FB8B
:1006AC000323DB08DAB2664B9A70634B1A78654BFE
:1006BC00A3FB0213D9080B469B000B445B00D31A17
:1006CC00DAB25F4BDA700120FFF7D0FD0346002B46
:1006DC000CD0594B1B780133DAB2574B1A70564B6E
:1006EC001B78632B02D9544B01221A700220FFF79E
:1006FC00BDFD0346002B00F038814F4B1A784F4B51
:10070C001A704A4B01221A704F4B01221A704E4B31
:10071C0001225A7029E1464BDB68012B1FD1402185
:10072C00444801F054F90821424801F050F90122E3
:10073C002021404801F033F9012204213D4801F009
:10074C002EF9012280213B4801F029F901221021C8
:10075C00384801F024F96421032000F01FFD364BCA
:10076C001B78002B03D1344B9B78002B06D0324BDB
:10077C0000229A70304B9A782F4B1A702E4B5B7864
:10078C00002B03D1314B1A782B4B5A702C4B002277
:10079C001A702B4B03225A70274B5B78294AA2FB09
:1007AC000323DB08DAB2264B9A70234B5A78254B7D
:1007BC00A3FB0213D9080B469B000B445B00D31A16
:1007CC00DAB21F4BDA700120FFF750FD0346002B05
:1007DC0016D0194B5B780133DAB2174B5A70164BA3
:1007EC005B78632B09D8144B5B781A46184B1B7833
:1007FC001344124A1278934202DD0F4B01225A70B5
:10080C000220FFF733FD0346002B00F0B0800A4BAB
:10081C005A780E4B1A70054B01221A700A4B0122A2
:10082C001A70094B01225A70A1E000BF1800002079
:10083C006800002000080140500000201E0000202D
:10084C0054000020CDCCCCCC1C0000201F0000207C
:10085C0020000020484BDB68012B1FD1802147482A
:10086C0001F0B5F81021454801F0B1F80122402102
:10087C00424801F094F801220821404801F08FF819
:10088C00012220213D4801F08AF8012220213B4819
:10089C0001F085F86421032000F080FC384B1B78B4
:1008AC00002B03D1364B5B78002B06D0344B002247
:1008BC005A70334B5A78324B1A70314B9B78002B51
:1008CC0003D1304B1A782E4B9A702F4B00221A7092
:1008DC002D4B04225A702A4B9B782C4AA2FB0323E3
:1008EC00DB08DAB2284B9A70254B9A78274BA3FB7E
:1008FC000213D9080B469B000B445B00D31ADAB2E7
:10090C00214BDA700120FFF7B1FC0346002B16D007
:10091C001B4B9B780133DAB2194B9A70184B9B78AE
:10092C00632B09D8164B9B781A46194B1B7813442A
:10093C00184A1278934202DD114B01229A70022060
:10094C00FFF794FC0346002B13D00D4B9A780D4BFC
:10095C001A70114B01221A70104B01221A700F4B96
:10096C0001225A7005E000BF04E000BF02E000BFA6
:10097C0000E000BF00BF80BD6800002000080140FF
:10098C00500000202000002054000020CDCCCCCC06
:10099C001F0000201E000020180000201C0000205A
:1009AC0080B582B000AF0346FB71FB79092B00F2D6
:1009BC00BB8101A252F823F0ED090008410A00089E
:1009CC00950A0008E90A00083D0B0008910B000885
:1009DC00E50B0008390C00088D0C0008E10C000830
:1009EC0000224FF40041D34800F0D9FF002202212D
:1009FC00D04800F0D4FF00224FF48051CD4800F0D5
:100A0C00CEFF00224FF48071CA4800F0C8FF0022CC
:100A1C004FF40071C74800F0C2FF00224FF4806110
:100A2C00C44800F0BCFF01224FF40061C14800F043
:100A3C00B6FF7AE101224FF40041BE4800F0AFFF4F
:100A4C0000220221BB4800F0AAFF00224FF4805183
:100A5C00B84800F0A4FF01224FF48071B54800F0B3
:100A6C009EFF01224FF40071B24800F098FF012262
:100A7C004FF48061AF4800F092FF01224FF4006107
:100A8C00AC4800F08CFF50E100224FF40041A94823
:100A9C0000F085FF00220221A64800F080FF012211
:100AAC004FF48051A34800F07AFF00224FF480717C
:100ABC00A04800F074FF00224FF400719D4800F034
:100ACC006EFF01224FF480619A4800F068FF00220B
:100ADC004FF40061974800F062FF26E100224FF4CA
:100AEC000041944800F05BFF00220221914800F085
:100AFC0056FF00224FF480518E4800F050FF002228
:100B0C004FF480718B4800F04AFF01224FF40071C2
:100B1C00884800F044FF01224FF48061854800F0C2
:100B2C003EFF00224FF40061824800F038FFFCE0E9
:100B3C0001224FF400417F4800F031FF00220221D6
:100B4C007C4800F02CFF00224FF48051794800F0D3
:100B5C0026FF01224FF48071764800F020FF01221D
:100B6C004FF40071734800F01AFF00224FF48061BB
:100B7C00704800F014FF00224FF400616D4800F043
:100B8C000EFFD2E000224FF400416A4800F007FF4C
:100B9C0001220221674800F002FF00224FF480512D
:100BAC00644800F0FCFE00224FF48071614800F0B4
:100BBC00F6FE01224FF400715E4800F0F0FE0022B8
:100BCC004FF480615B4800F0EAFE00224FF40061B4
:100BDC00584800F0E4FEA8E000224FF400415548CC
:100BEC0000F0DDFE01220221524800F0D8FE002266
:100BFC004FF480514F4800F0D2FE00224FF4807128
:100C0C004C4800F0CCFE00224FF40071494800F033
:100C1C00C6FE00224FF48061464800F0C0FE002260
:100C2C004FF40061434800F0BAFE7EE000224FF41E
:100C3C000041404800F0B3FE002202213D4800F084
:100C4C00AEFE00224FF480513A4800F0A8FE01227B
:100C5C004FF48071374800F0A2FE01224FF400716E
:100C6C00344800F09CFE01224FF48061314800F0C2
:100C7C0096FE01224FF400612E4800F090FE54E0E5
:100C8C0000224FF400412B4800F089FE0022022183
:100C9C00284800F084FE00224FF48051254800F0D3
:100CAC007EFE00224FF48071224800F078FE002274
:100CBC004FF400711F4800F072FE00224FF4806167
:100CCC001C4800F06CFE00224FF40061194800F043
:100CDC0066FE2AE000224FF40041164800F05FFE49
:100CEC0000220221134800F05AFE00224FF48051DA
:100CFC00104800F054FE00224FF480710D4800F0B3
:100D0C004EFE01224FF400710A4800F048FE00220A
:100D1C004FF48061074800F042FE00224FF400615E
:100D2C00044800F03CFE00E000BF00BF0837BD46A1
:100D3C0080BD00BF0008014080B500AF684B1B7838
:100D4C00042B00F2C28001A252F823F06D0D0008B2
:100D5C00AF0D0008F90D0008430E00088D0E0008B9
:100D6C00002208215F4800F01AFE012210215D4884
:100D7C0000F015FE012220215A4800F010FE01223D
:100D8C004021584800F00BFE574B1B781846FFF7D4
:100D9C0007FE534B01221A700A21012000F0FEF9C4
:100DAC009CE0002208214F4800F0F9FD012210219F
:100DBC004C4800F0F4FD012220214A4800F0EFFDE0
:100DCC0001224021474800F0EAFD474B1B781846AA
:100DDC00FFF7E6FD454B5B68012B78D1404B0222B7
:100DEC001A700A21012000F0D9F970E001220821C3
:100DFC003C4800F0D4FD002210213A4800F0CFFD11
:100E0C0001222021374800F0CAFD0122402135483B
:100E1C0000F0C5FD344B5B781846FFF7C1FD334B32
:100E2C005B68012B55D12E4B03221A700A2101202D
:100E3C0000F0B4F94DE0012208212A4800F0AFFD82
:100E4C0001221021274800F0AAFD0022202125486C
:100E5C0000F0A5FD01224021224800F0A0FD224B0C
:100E6C009B781846FFF79CFD204B5B68012B32D119
:100E7C001B4B04221A700A21012000F08FF92AE082
:100E8C0001220821174800F08AFD01221021154883
:100E9C0000F085FD01222021124800F080FD002287
:100EAC004021104800F07BFD0F4BDB781846FFF714
:100EBC0077FD0E4B5B68012B0FD1094B01221A7089
:100ECC000A21012000F06AF907E000BF06E000BF2C
:100EDC0004E000BF02E000BF00E000BF00BF80BD27
:100EEC004F000020000C014054000020680000203E
:100EFC0080B500AF00F052FA00F056F800F0DCF8C4
:100F0C0000F08EF8234801F0A7F9234B01221A7048
:100F1C00214B01225A70FFF70FFFFFF763FB0020F4
:100F2C00FFF7A4F90346002BF5D06421032000F051
:100F3C0035F901222021194800F031FD0122202130
:100F4C00164800F02CFD01224021144800F027FD2A
:100F5C0001220821114800F022FD012220210F4816
:100F6C0000F01DFD012220210C4800F018FD0C4B57
:100F7C001B78032B06D80A4B1B780133DAB2084BCB
:100F8C001A7002E0064B01221A708021054800F00D
:100F9C001EFDC0E7780000201C0000200008014066
:100FAC0018000020000C014080B590B000AF07F194
:100FBC00180328220021184601F00AFD3B1D0022CF
:100FCC001A605A609A60DA601A610223BB610123CD
:100FDC00BB621023FB6200237B6307F118031846E6
:100FEC0000F00EFD0346002B01D000F0D1F80F23CA
:100FFC007B600023BB600023FB6000233B6100236C
:10100C007B613B1D0021184600F07AFF0346002B44
:10101C0001D000F0BDF800BF4037BD4680BD0000D8
:10102C0080B586B000AF07F1080300221A605A6041
:10103C009A60DA603B4600221A605A601D4B4FF0F2
:10104C0080421A601B4B41F63F725A60194B0022CA
:10105C009A60184B0922DA60164B00221A61154B64
:10106C0000229A61134801F0A7F80346002B01D027
:10107C0000F08EF84FF48053BB6007F1080319465B
:10108C000C4801F03DFA0346002B01D000F080F82B
:10109C0000233B6000237B603B461946054801F06A
:1010AC0009FC0346002B01D000F072F800BF183782
:1010BC00BD4680BD7800002080B586B000AF07F13A
:1010CC00080300221A605A609A60DA60274B9B6909
:1010DC00264A43F004039361244B9B6903F00403F9
:1010EC007B607B68214B9B69204A43F0080393612A
:1010FC001E4B9B6903F008033B603B68002249F6DA
:10110C00FE711B4800F04BFC0022F821194800F03E
:10111C0046FC49F6FE73BB600123FB6000233B6178
:10112C0002237B6107F108031946114800F0A6FA67
:10113C000723BB600023FB6000233B6107F108031E
:10114C0019460C4800F09AFAF823BB600123FB60A7
:10115C0000233B6102237B6107F108031946054814
:10116C0000F08CFA00BF1837BD4680BD001002405D
:10117C0000080140000C014080B582B000AF7860DF
:10118C0000F028F8FEF7ECFF00BF0837BD4680BD25
:10119C0080B400AF72B600BFFEE7000080B483B02D
:1011AC0000AF786039607B68032B09DC07497B68EA
:1011BC003A6841F82320064A7B68002142F8231044
:1011CC0000BF0C37BD4680BC704700BF58000020E4
:1011DC006800002080B483B000AF00237B601CE06B
:1011EC00124A7B6852F82330002B13DD0F4A7B68C0
:1011FC0052F823305A1E0D497B6841F823200B4AC4
:10120C007B6852F82330002B04DC094A7B680121EF
:10121C0042F823107B6801337B607B68032BDFDD96
:10122C0000BF00BF0C37BD4680BC70475800002083
:10123C006800002080B485B000AF154B9B69144A40
:10124C0043F001039361124B9B6903F00103BB60F4
:10125C00BB680F4BDB690E4A43F08053D3610C4BD8
:10126C00DB6903F080537B607B680A4B5B68FB6037
:10127C00FB6823F0E063FB60FB6843F00073FB60EA
:10128C00044AFB68536000BF1437BD4680BC7047EE
:10129C00001002400000014080B584B000AF7860BF
:1012AC007B681B68B3F1804F13D10C4BDB690B4A85
:1012BC0043F00103D361094BDB6903F00103FB60CD
:1012CC00FB68002200211C2000F0A1F91C2000F07A
:1012DC00BAF900BF1037BD4680BD00BF00100240F8
:1012EC0080B400AFFEE780B400AFFEE780B400AF7F
:1012FC00FEE780B400AFFEE780B400AFFEE780B439
:10130C0000AF00BFBD4680BC704780B400AF00BFCB
:10131C00BD4680BC704780B400AF00BFBD4680BCEA
:10132C00704780B500AF00F07FF800BF80BD0000B3
:10133C0080B500AF024800F0DBFF00BF80BD00BFEE
:10134C007800002080B400AF00BFBD4680BC704761
:10135C00FFF7F8FF0B480C490C4A002302E0D45865
:10136C00C4500433C4188C42F9D3094A094C0023E5
:10137C0001E013600432A242FBD301F005FBFFF73E
:10138C00B7FD70470000002030000020302A000814
:10139C0030000020C4000020FEE7000080B500AF44
:1013AC00084B1B68074A43F010031360032000F03E
:1013BC0023F90F2000F008F8FFF73CFF0023184634
:1013CC0080BD00BF0020024080B582B000AF7860C5
:1013DC00124B1A68124B1B7819464FF47A73B3FBF5
:1013EC00F1F3B2FBF3F3184600F03BF90346002B84
:1013FC0001D001230EE07B680F2B0AD800227968FC
:10140C004FF0FF3000F003F9064A7B6813600023AD
:10141C0000E0012318460837BD4680BD240000209B
:10142C002C0000202800002080B400AF054B1B7856
:10143C001A46054B1B681344034A136000BFBD4694
:10144C0080BC70472C000020C000002080B400AF8E
:10145C00024B1B681846BD4680BC7047C00000207C
:10146C0080B485B000AF78607B6803F00703FB6045
:10147C000C4BDB68BB60BA684FF6FF031340BB60D4
:10148C00FB681A02BB68134343F0BF6343F4003399
:10149C00BB60044ABB68D36000BF1437BD4680BC38
:1014AC00704700BF00ED00E080B400AF044BDB6878
:1014BC001B0A03F007031846BD4680BC704700BFEB
:1014CC0000ED00E080B483B000AF0346FB7197F9E8
:1014DC000730002B0BDBFB7903F01F02064997F951
:1014EC0007305B09012000FA02F241F8232000BF0B
:1014FC000C37BD4680BC704700E100E080B483B07F
:10150C0000AF03463960FB7197F90730002B0ADBFB
:10151C003B68DAB20C4997F907301201D2B20B448E
:10152C0083F800230AE03B68DAB20849FB7903F040
:10153C000F03043B1201D2B20B441A7600BF0C37D6
:10154C00BD4680BC704700BF00E100E000ED00E04C
:10155C0080B489B000AFF860B9607A60FB6803F0C2
:10156C000703FB61FB69C3F10703042B28BF0423AA
:10157C00BB61FB690433062B02D9FB69033B00E01A
:10158C0000237B614FF0FF32BB6902FA03F3DA43AD
:10159C00BB681A407B699A404FF0FF317B6901FAB6
:1015AC0003F3D9437B680B40134318462437BD46DD
:1015BC0080BC704780B582B000AF78607B68013B1F
:1015CC00B3F1807F01D301230FE00A4A7B68013B12
:1015DC0053600F214FF0FF30FFF790FF054B0022B7
:1015EC009A60044B07221A60002318460837BD4640
:1015FC0080BD00BF10E000E080B582B000AF786025
:10160C007868FFF72DFF00BF0837BD4680BD80B559
:10161C0086B000AF0346B9607A60FB7300237B6130
:10162C00FFF742FF78617A68B9687869FFF790FF35
:10163C00024697F90F3011461846FFF75FFF00BFBF
:10164C001837BD4680BD80B582B000AF0346FB7134
:10165C0097F907301846FFF735FF00BF0837BD462E
:10166C0080BD80B582B000AF78607868FFF7A2FFCC
:10167C00034618460837BD4680BD000080B48BB0C9
:10168C0000AF7860396000237B6200233B6248E145
:10169C0001227B6A02FA03F3FB613B681B68FA695F
:1016AC001340BB61BA69FB699A4240F037813B68D1
:1016BC005B68A34A93425ED0A14A934275D8A14A73
:1016CC00934258D09F4A93426FD89F4A934252D02C
:1016DC009D4A934269D89D4A93424CD09B4A93426F
:1016EC0063D89B4A934246D0994A93425DD8122BB9
:1016FC002AD8122B59D801A252F823F083170008CC
:10170C005D1700086F170008B1170008B71700081D
:10171C00B7170008B7170008B7170008B717000865
:10172C00B7170008B7170008B7170008B717000855
:10173C00B7170008B7170008B7170008B717000845
:10174C006517000879170008824A934213D02CE0E1
:10175C003B68DB683B6229E03B68DB6804333B6237
:10176C0024E03B68DB6808333B621FE03B68DB68C6
:10177C000C333B621AE03B689B68002B02D10423BC
:10178C003B6213E03B689B68012B05D108233B624D
:10179C007B68FA691A6109E008233B627B68FA6985
:1017AC005A6103E000233B6200E000BFBB69FF2BE2
:1017BC0001D87B6801E07B6804337B61BB69FF2B3C
:1017CC0002D87B6A9B0002E07B6A083B9B003B6172
:1017DC007B691A680F213B6901FA03F3DB431A405A
:1017EC00396A3B6901FA03F31A437B691A603B6857
:1017FC005B6803F08053002B00F09080564B9B6984
:10180C00554A43F001039361534B9B6903F0010369
:10181C00BB60BB68514A7B6A9B08023352F8233089
:10182C00FB607B6A03F003039B000F2202FA03F3B5
:10183C00DB43FA681340FB607B68494A93420DD046
:10184C007B68484A934207D07B68474A934201D150
:10185C00022304E0032302E0012300E000237A6A60
:10186C0002F0030292009340FA681343FB603B4979
:10187C007B6A9B080233FA6841F823203B685B685B
:10188C0003F48013002B06D0384B9A683749BB6998
:10189C0013438B6006E0354B9A68BB69DB433349D5
:1018AC0013408B603B685B6803F40013002B06D07D
:1018BC002E4BDA682D49BB691343CB6006E02B4BEA
:1018CC00DA68BB69DB4329491340CB603B685B6832
:1018DC0003F40033002B06D0244B5A682349BB6910
:1018EC0013434B6006E0214B5A68BB69DB431F492D
:1018FC0013404B603B685B6803F48033002B06D0CD
:10190C001A4B1A681949BB6913430B6006E0174B55
:10191C001A68BB69DB43154913400B607B6A0133C2
:10192C007B623B681A687B6A22FA03F3002B7FF414
:10193C00AFAE00BF00BF2C37BD4680BC704700BFA8
:10194C0000003210000031100000221000002110A5
:10195C0000001210000011100010024000000140A5
:10196C0000080140000C014000100140000401403F
:10197C0080B485B000AF78600B467B807B689A683A
:10198C007B881340002B02D00123FB7301E0002362
:10199C00FB73FB7B18461437BD4680BC704780B484
:1019AC0083B000AF78600B467B8013467B707B78EE
:1019BC00002B03D07A887B681A6103E07B881A04B9
:1019CC007B681A6100BF0C37BD4680BC704780B481
:1019DC0085B000AF78600B467B807B68DB68FB6072
:1019EC007A88FB6813401A04FB68D9437B880B4048
:1019FC001A437B681A6100BF1437BD4680BC704720
:101A0C0080B586B000AF78607B68002B01D10123D4
:101A1C006CE27B681B6803F00103002B00F08780ED
:101A2C00924B5B6803F00C03042B0CD08F4B5B6860
:101A3C0003F00C03082B12D18C4B5B6803F480333E
:101A4C00B3F5803F0BD1894B1B6803F40033002B9B
:101A5C006CD07B685B68002B68D1012346E27B6805
:101A6C005B68B3F5803F06D1804B1B687F4A43F41B
:101A7C00803313602EE07B685B68002B0CD17B4BB2
:101A8C001B687A4A23F480331360784B1B68774ABF
:101A9C0023F4802313601DE07B685B68B3F5A02FF3
:101AAC000CD1724B1B68714A43F4802313606F4B4B
:101ABC001B686E4A43F4803313600BE06B4B1B685E
:101ACC006A4A23F480331360684B1B68674A23F41B
:101ADC00802313607B685B68002B13D0FFF7B6FC88
:101AEC00386108E0FFF7B2FC02463B69D31A642B5D
:101AFC0001D90323FAE15D4B1B6803F40033002B7F
:101B0C00F0D014E0FFF7A2FC386108E0FFF79EFC70
:101B1C0002463B69D31A642B01D90323E6E1534BEC
:101B2C001B6803F40033002BF0D100E000BF7B688E
:101B3C001B6803F00203002B63D04C4B5B6803F073
:101B4C000C03002B0BD0494B5B6803F00C03082BE8
:101B5C001CD1464B5B6803F48033002B16D1434BEE
:101B6C001B6803F00203002B05D07B681B69012B5B
:101B7C0001D00123BAE13D4B1B6823F0F8027B68CE
:101B8C005B69DB00394913430B603AE07B681B69E6
:101B9C00002B20D0364B01221A60FFF757FC38611E
:101BAC0008E0FFF753FC02463B69D31A022B01D91C
:101BBC0003239BE12D4B1B6803F00203002BF0D099
:101BCC002A4B1B6823F0F8027B685B69DB00274912
:101BDC0013430B6015E0264B00221A60FFF736FC0E
:101BEC00386108E0FFF732FC02463B69D31A022B3E
:101BFC0001D903237AE11D4B1B6803F00203002B70
:101C0C00F0D17B681B6803F00803002B3AD07B688B
:101C1C009B69002B19D0174B01221A60FFF716FC99
:101C2C00386108E0FFF712FC02463B69D31A022B1D
:101C3C0001D903235AE10D4B5B6A03F00203002B1D
:101C4C00F0D0012000F09AFA1CE00A4B00221A6036
:101C5C00FFF7FCFB38610FE0FFF7F8FB02463B692E
:101C6C00D31A022B08D9032340E100BF0010024015
:101C7C0000004242800442429E4B5B6A03F0020326
:101C8C00002BE9D17B681B6803F00403002B00F0E8
:101C9C00A6800023FB75974BDB6903F08053002B68
:101CAC000DD1944BDB69934A43F08053D361914B34
:101CBC00DB6903F08053BB60BB680123FB758E4B63
:101CCC001B6803F48073002B18D18B4B1B688A4A5A
:101CDC0043F480731360FFF7B9FB386108E0FFF73A
:101CEC00B5FB02463B69D31A642B01D90323FDE0F3
:101CFC00814B1B6803F48073002BF0D07B68DB688E
:101D0C00012B06D17B4B1B6A7A4A43F00103136209
:101D1C002DE07B68DB68002B0CD1764B1B6A754A77
:101D2C0023F001031362734B1B6A724A23F0040302
:101D3C0013621CE07B68DB68052B0CD16D4B1B6AB6
:101D4C006C4A43F0040313626A4B1B6A694A43F002
:101D5C00010313620BE0674B1B6A664A23F0010315
:101D6C001362644B1B6A634A23F0040313627B689F
:101D7C00DB68002B15D0FFF769FB38610AE0FFF731
:101D8C0065FB02463B69D31A41F28832934201D972
:101D9C000323ABE0574B1B6A03F00203002BEED07E
:101DAC0014E0FFF753FB38610AE0FFF74FFB0246E4
:101DBC003B69D31A41F28832934201D9032395E04F
:101DCC004C4B1B6A03F00203002BEED1FB7D012B65
:101DDC0005D1484BDB69474A23F08053D3617B68BC
:101DEC00DB69002B00F08180424B5B6803F00C0335
:101DFC00082B61D07B68DB69022B46D13F4B00225C
:101E0C001A60FFF723FB386108E0FFF71FFB02465F
:101E1C003B69D31A022B01D9032367E0354B1B68AE
:101E2C0003F00073002BF0D17B681B6AB3F5803F85
:101E3C0008D1304B5B6823F400327B689B682D49DA
:101E4C0013434B602B4B5B6823F474127B68196A49
:101E5C007B685B6A0B43274913434B60274B01227A
:101E6C001A60FFF7F3FA386108E0FFF7EFFA024661
:101E7C003B69D31A022B01D9032337E01D4B1B6896
:101E8C0003F00073002BF0D02FE01C4B00221A60E3
:101E9C00FFF7DCFA386108E0FFF7D8FA02463B6935
:101EAC00D31A022B01D9032320E0124B1B6803F039
:101EBC000073002BF0D118E07B68DB69012B01D19A
:101ECC00012313E00B4B5B68FB60FB6803F480326F
:101EDC007B681B6A9A4206D1FB6803F470127B681C
:101EEC005B6A9A4201D0012300E0002318461837A0
:101EFC00BD4680BD001002400070004060004242B0
:101F0C0080B584B000AF786039607B68002B01D15C
:101F1C000123D0E06A4B1B6803F007033A689A422E
:101F2C0010D9674B1B6823F0070265493B681343C4
:101F3C000B60634B1B6803F007033A689A4201D0AD
:101F4C000123B8E07B681B6803F00203002B20D050
:101F5C007B681B6803F00403002B05D0594B5B68AE
:101F6C00584A43F4E06353607B681B6803F0080332
:101F7C00002B05D0534B5B68524A43F460535360BB
:101F8C00504B5B6823F0F0027B689B684D49134310
:101F9C004B607B681B6803F00103002B40D07B680F
:101FAC005B68012B07D1474B1B6803F40033002BF4
:101FBC0015D101237FE07B685B68022B07D1414B75
:101FCC001B6803F00073002B09D1012373E03D4B18
:101FDC001B6803F00203002B01D101236BE0394B8A
:101FEC005B6823F003027B685B68364913434B60E4
:101FFC00FFF72CFAF8600AE0FFF728FA0246FB68B4
:10200C00D31A41F28832934201D9032353E02D4B6A
:10201C005B6803F00C027B685B689B009A42EBD117
:10202C00274B1B6803F007033A689A4210D2244BE3
:10203C001B6823F0070222493B6813430B60204BBB
:10204C001B6803F007033A689A4201D0012332E07F
:10205C007B681B6803F00403002B08D0194B5B68EA
:10206C0023F4E0627B68DB68164913434B607B68A2
:10207C001B6803F00803002B09D0124B5B6823F498
:10208C0060527B681B69DB000E4913434B6000F008
:10209C0021F802460B4B5B681B0903F00F030A493E
:1020AC00CB5C22FA03F3094A1360094B1B681846F0
:1020BC00FFF78AF9002318461037BD4680BD00BFD4
:1020CC000020024000100240042A000824000020D6
:1020DC002800002080B487B000AF0023FB600023F1
:1020EC00BB6000237B6100237B6000233B611E4BA4
:1020FC005B68FB60FB6803F00C03042B02D0082B1D
:10210C0003D027E0194B3B6127E0FB689B0C03F0E5
:10211C000F03174AD35C7B60FB6803F48033002BFE
:10212C0010D0114B5B685B0C03F00103114AD35CBC
:10213C00BB607B680D4A02FB03F2BB68B2FBF3F396
:10214C007B6104E07B680C4A02FB03F37B617B69D7
:10215C003B6102E0054B3B6100BF3B6918461C37F5
:10216C00BD4680BC704700BF0010024000127A00D0
:10217C00142A0008242A000800093D0080B485B008
:10218C0000AF78600A4B1B680A4AA2FB03235B0A68
:10219C007A6802FB03F3FB6000BFFB685A1EFA600F
:1021AC00002BF9D100BF00BF1437BD4680BC70476F
:1021BC0024000020D34D621080B582B000AF78604F
:1021CC007B68002B01D1012341E07B6893F83D3003
:1021DC00DBB2002B06D17B68002283F83C207868A8
:1021EC00FFF75AF87B68022283F83D207B681A6857
:1021FC007B6804331946104600F06EFA7B680122A6
:10220C0083F846207B68012283F83E207B680122FC
:10221C0083F83F207B68012283F840207B680122F1
:10222C0083F841207B68012283F842207B680122DD
:10223C0083F843207B68012283F844207B680122C9
:10224C0083F845207B68012283F83D200023184643
:10225C000837BD4680BD000080B485B000AF786003
:10226C007B6893F83D30DBB2012B01D0012335E0C4
:10227C007B68022283F83D207B681B68DA687B68E8
:10228C001B6842F00102DA607B681B68164A9342B5
:10229C0009D07B681B68B3F1804F04D07B681B6846
:1022AC00124A934211D17B681B689B6803F00703A9
:1022BC00FB60FB68062B10D07B681B681A687B6878
:1022CC001B6842F001021A6007E07B681B681A6801
:1022DC007B681B6842F001021A6000231846143711
:1022EC00BD4680BC704700BF002C0140000400407C
:1022FC0080B582B000AF78607B681B681B6903F007
:10230C000203022B22D17B681B68DB6803F00203FB
:10231C00022B1BD17B681B686FF002021A617B6871
:10232C0001221A777B681B689B6903F00303002B5F
:10233C0003D0786800F0B4F905E0786800F0A7F9EC
:10234C00786800F0B6F97B6800221A777B681B6806
:10235C001B6903F00403042B22D17B681B68DB6828
:10236C0003F00403042B1BD17B681B686FF0040281
:10237C001A617B6802221A777B681B689B6903F4DD
:10238C004073002B03D0786800F08AF905E0786878
:10239C0000F07DF9786800F08CF97B6800221A77E0
:1023AC007B681B681B6903F00803082B22D17B6830
:1023BC001B68DB6803F00803082B1BD17B681B68C8
:1023CC006FF008021A617B6804221A777B681B681D
:1023DC00DB6903F00303002B03D0786800F060F98D
:1023EC0005E0786800F053F9786800F062F97B68D2
:1023FC0000221A777B681B681B6903F01003102BF3
:10240C0022D17B681B68DB6803F01003102B1BD1F7
:10241C007B681B686FF010021A617B6808221A77C0
:10242C007B681B68DB6903F44073002B03D078686E
:10243C0000F036F905E0786800F029F9786800F0CA
:10244C0038F97B6800221A777B681B681B6903F0DC
:10245C000103012B0ED17B681B68DB6803F00103C1
:10246C00012B07D17B681B686FF001021A61786839
:10247C00FEF782FE7B681B681B6903F08003802BD0
:10248C000ED17B681B68DB6803F08003802B07D1BF
:10249C007B681B686FF080021A61786800F06BFA39
:1024AC007B681B681B6903F04003402B0ED17B68D3
:1024BC001B68DB6803F04003402B07D17B681B686B
:1024CC006FF040021A61786800F0FCF87B681B68BA
:1024DC001B6903F02003202B0ED17B681B68DB6883
:1024EC0003F02003202B07D17B681B686FF02002C0
:1024FC001A61786800F036FA00BF0837BD4680BD17
:10250C0080B584B000AF786039600023FB737B68C2
:10251C0093F83C30012B01D10223B4E07B680122FB
:10252C0083F83C207B68022283F83D207B681B6883
:10253C009B68BB60BB6823F07703BB60BB6823F46C
:10254C007F43BB607B681B68BA689A603B681B68FA
:10255C00B3F5005F3ED0B3F5005F00F28780B3F5B2
:10256C00805F00F08680B3F5805F7FD8702B1AD027
:10257C00702B7BD8602B50D0602B77D8502B3CD055
:10258C00502B73D8402B58D0402B6FD8302B64D0A5
:10259C00302B6BD8202B60D0202B67D8002B5CD035
:1025AC00102B5AD062E07B6818683B6899683B68CE
:1025BC005A683B68DB6800F05EF97B681B689B68B7
:1025CC00BB60BB6843F07703BB607B681B68BA6871
:1025DC009A604FE07B6818683B6899683B685A685A
:1025EC003B68DB6800F047F97B681B689A687B687E
:1025FC001B6842F480429A603CE07B6818683B6838
:10260C0059683B68DB681A4600F0BEF87B681B68AB
:10261C005021184600F015F92CE07B6818683B68CF
:10262C0059683B68DB681A4600F0DCF87B681B686D
:10263C006021184600F005F91CE07B6818683B68BF
:10264C0059683B68DB681A4600F09EF87B681B688B
:10265C004021184600F0F5F80CE07B681A683B68DE
:10266C001B681946104600F0ECF803E00123FB73DD
:10267C0000E000BF7B68012283F83D207B680022CC
:10268C0083F83C20FB7B18461037BD4680BD80B4D8
:10269C0083B000AF786000BF0C37BD4680BC70477C
:1026AC0080B483B000AF786000BF0C37BD4680BCEF
:1026BC00704780B483B000AF786000BF0C37BD4664
:1026CC0080BC704780B483B000AF786000BF0C371B
:1026DC00BD4680BC7047000080B485B000AF786008
:1026EC0039607B681B68FB607B68254A934207D086
:1026FC007B68B3F1804F03D07B68224A934208D1A8
:10270C00FB6823F07003FB603B685B68FA6813435B
:10271C00FB607B681A4A934207D07B68B3F1804F09
:10272C0003D07B68174A934208D1FB6823F44073AB
:10273C00FB603B68DB68FA681343FB60FB6823F0C3
:10274C0080023B685B691343FB607B68FA681A6024
:10275C003B689A687B68DA623B681A687B689A62A5
:10276C007B68074A934203D13B681A697B681A63FA
:10277C007B6801225A6100BF1437BD4680BC70478C
:10278C00002C01400004004080B487B000AFF8601A
:10279C00B9607A60FB681B6A7B61FB681B6A23F07B
:1027AC000102FB681A62FB689B693B613B6923F081
:1027BC00F0033B617B681B013A6913433B617B6906
:1027CC0023F00A037B617A69BB6813437B61FB6866
:1027DC003A699A61FB687A691A6200BF1C37BD4678
:1027EC0080BC704780B487B000AFF860B9607A6085
:1027FC00FB681B6A7B61FB681B6A23F01002FB6899
:10280C001A62FB689B693B613B6923F470433B6133
:10281C007B681B033A6913433B617B6923F0A0037C
:10282C007B61BB681B017A6913437B61FB683A6966
:10283C009A61FB687A691A6200BF1C37BD4680BC7E
:10284C00704780B485B000AF786039607B689B6856
:10285C00FB60FB6823F07003FB603A68FB68134372
:10286C0043F00703FB607B68FA689A6000BF14377B
:10287C00BD4680BC704780B487B000AFF860B960CB
:10288C007A603B60FB689B687B617B6923F47F43C8
:10289C007B613B681A027B681A43BB6813437A69F5
:1028AC0013437B61FB687A699A6000BF1C37BD4695
:1028BC0080BC704780B485B000AF786039607B68AD
:1028CC0093F83C30012B01D1022341E07B680122BB
:1028DC0083F83C207B68022283F83D207B681B68D0
:1028EC005B68FB607B681B689B68BB60FB6823F0C4
:1028FC007003FB603B681B68FA681343FB607B68E2
:10290C001B68FA685A607B681B68144A934209D0AA
:10291C007B681B68B3F1804F04D07B681B68104A3E
:10292C0093420CD1BB6823F08003BB603B685B68AF
:10293C00BA681343BB607B681B68BA689A607B6893
:10294C00012283F83D207B68002283F83C20002381
:10295C0018461437BD4680BC704700BF002C0140A0
:10296C000004004080B483B000AF786000BF0C3727
:10297C00BD4680BC704780B483B000AF786000BFA8
:10298C000C37BD4680BC704770B500260C4D0D4C05
:10299C00641BA410A64209D100F022F800260A4DAF
:1029AC000A4C641BA410A64205D170BD55F8043B1B
:1029BC0098470136EEE755F8043B98470136F2E7A5
:1029CC00282A0008282A0008282A00082C2A00088F
:1029DC0003460244934200D1704703F8011BF9E708
:1029EC00F8B500BFF8BC08BC9E467047F8B500BFF0
:0829FC00F8BC08BC9E467047C0
:102A0400000000000000000001020304060708099A
:102A140002030405060708090A0B0C0D0E0F10101B
:042A240001020000AB
:042A28003101000870
:042A2C000D01000890
:102A3000010002000400000001000000010000008D
:102A400001000000010000C80100000001000502B3
:102A5000030000000024F40010000000010000004A
:040000050800135D7F
:00000001FF
