:020000040800F2
:100000000028002061100008F10F0008F70F000819
:10001000FD0F000803100008091000080000000090
:100020000000000000000000000000000F100008A9
:100030001B10000800000000271000083310000803
:10004000A9100008A9100008A9100008A9100008AC
:10005000A9100008A9100008A9100008A91000089C
:10006000A9100008A9100008A9100008A91000088C
:10007000A9100008A9100008A9100008A91000087C
:10008000A9100008A9100008A9100008A91000086C
:10009000A9100008A9100008A9100008A91000085C
:1000A000A9100008A9100008A9100008A91000084C
:1000B00041100008A910000800000000A910000865
:1000C000A91000080000000000000000A9100008AE
:1000D00000000000A9100008A9100008000000009E
:1000E000A9100008A9100008A910000800000000CD
:1000F0000000000000000000000000000000000000
:0C01000000000000000000005FF808F1A3
:10010C0010B5054C237833B9044B13B10448AFF345
:10011C0000800123237010BD14000020000000009B
:10012C009026000808B5034B1BB103490348AFF3F5
:10013C00008008BD00000000180000209026000878
:10014C0080B500AFA54B1B78013B042B00F2578206
:10015C0001A252F823F000BF79010008F101000858
:10016C00FB020008150400081F05000801222021CD
:10017C009B4801F07FFA01224021994801F07AFA5C
:10018C0001228021964801F075FA0122042194483D
:10019C0001F070FA01220821914801F06BFA01225A
:1001AC0010218F4801F066FA8E4B1B78012B0BD176
:1001BC008D4B00221A708C4B00225A708A4B0022F5
:1001CC009A70894B0022DA70844B02221A70874B8A
:1001DC001B781A46642303FB02F31946002000F037
:1001EC005FFE15E2002220217D4801F043FA012236
:1001FC0040217B4801F03EFA01228021784801F031
:10020C0039FA01220421764801F034FA012208213E
:10021C00734801F02FFA00221021714801F02AFADC
:10022C00704B1B78012B4FD1714B1B781A466423F2
:10023C0003FB02F26F4B1B6813446F4A82FB0312E1
:10024C009211DB17D31ADAB2674B1A70684B1B7812
:10025C001A46642303FB02F2664B1B681344674A7D
:10026C0082FB03125211DB17D21A654B83FB02136C
:10027C009910D317C91A0B469B000B445B00D11A7B
:10028C00CAB2594B5A705B4B1B685B4A82FB031218
:10029C009211DB17D31ADAB2534B9A70554B1B6879
:1002AC00564A82FB03125211DB17D21A544B83FBB2
:1002BC0002139910D317C91A0B469B000B445B0011
:1002CC00D11ACAB2484BDA704E4B1B68012B40F066
:1002DC009881424B03221A70454B1B781A466423B3
:1002EC0003FB02F31946002000F0DAFD89E100223D
:1002FC0020213B4801F0BEF901224021384801F091
:10030C00B9F901228021364801F0B4F90122042107
:10031C00334801F0AFF900220821314801F0AAF965
:10032C00012210212E4801F0A5F92E4B1B78012B30
:10033C0041D1304B1B68304A82FB03129211DB1700
:10034C00D31ADAB2284B1A702A4B1B682B4A82FB41
:10035C0003125211DB17D21A294B83FB021399108B
:10036C00D317C91A0B469B000B445B00D11ACAB2B7
:10037C001D4B5A701F4B1B681F4A82FB03129211B4
:10038C00DB17D31ADAB2184B9A701A4B1B681B4A3C
:10039C0082FB03125211DB17D21A194B83FB021387
:1003AC009910D317C91A0B469B000B445B00D11A4A
:1003BC00CAB20D4BDA70134B1B68012B40F0238132
:1003CC00064B04221A70094B1B781A46642303FB54
:1003DC0002F31946002000F063FD14E10100002037
:1003EC000008014000000020040000200300002051
:1003FC00020000203C000020D34D62101F85EB5101
:10040C00676666664C00002001222021814801F0BD
:10041C0031F9012240217F4801F02CF90022802182
:10042C007C4801F027F9002204217A4801F022F9D6
:10043C0001220821774801F01DF90122102175488D
:10044C0001F018F9744B1B78012B4FD1734B1B68BF
:10045C00734A82FB03129211DB17D31ADAB2714B77
:10046C001A706E4B1B68704A82FB03125211DB1719
:10047C00D21A6E4B83FB02139910D317C91A0B4671
:10048C009B000B445B00D11ACAB2664B5A70684B86
:10049C001B781A46642303FB02F2604B1B6813445F
:1004AC005F4A82FB03129211DB17D31ADAB25D4B4F
:1004BC009A705F4B1B781A46642303FB02F2574B6E
:1004CC001B681344584A82FB03125211DB17D21AD1
:1004DC00564B83FB02139910D317C91A0B469B007A
:1004EC000B445B00D11ACAB24E4BDA70514B1B68ED
:1004FC00012B40F08A80504B05221A704C4B1B7814
:10050C001A46642303FB02F31946002000F0C8FCD2
:10051C007BE0012220213F4801F0ACF80022402171
:10052C003C4801F0A7F8012280213A4801F0A2F8DA
:10053C0000220421374801F09DF80122082135489A
:10054C0001F098F801221021324801F093F8324B57
:10055C001B78012B41D1314B1B68314A82FB0312B2
:10056C009211DB17D31ADAB22E4B1A702B4B1B6875
:10057C002D4A82FB03125211DB17D21A2B4B83FB31
:10058C0002139910D317C91A0B469B000B445B003E
:10059C00D11ACAB2234B5A70204B1B68204A82FBDB
:1005AC0003129211DB17D31ADAB21E4B9A701B4B43
:1005BC001B681D4A82FB03125211DB17D21A1B4B0C
:1005CC0083FB02139910D317C91A0B469B000B44DB
:1005DC005B00D11ACAB2134BDA70164B1B68012B95
:1005EC0015D1154B02221A70144B1B781A46642332
:1005FC0003FB02F31946002000F052FC07E000BF99
:10060C0006E000BF04E000BF02E000BF00E000BF56
:10061C0000BF80BD00080140000000203C0000200D
:10062C00D34D6210040000201F85EB51676666668F
:10063C00020000204C0000200100002003000020DC
:10064C0080B483B000AF0346FB71FB79002B01D063
:10065C00002307E0FB79064AD35C002B0CBF012377
:10066C000023DBB218460C37BD4680BC704700BF78
:10067C003400002080B483B000AF0346FB71FB79DB
:10068C00002B01D0FF2307E0FB79064AD35C012B3A
:10069C000CBF01230023DBB218460C37BD4680BCCF
:1006AC00704700BF3800002080B500AF1D4B1B7891
:1006BC00022B24D0022B2CDC002B02D0012B0AD0D5
:1006CC0027E00020FFF7BCFF0346002B23D0154B7F
:1006DC0001221A701FE00020FFF7B2FF0346002B27
:1006EC0003D1104B00221A7017E00020FFF7C2FF55
:1006FC000346002B11D00B4B02221A700DE0002088
:10070C00FFF79EFF0346002B09D1064B00221A70FF
:10071C0005E000BF04E000BF02E000BF00E000BF46
:10072C0000BF80BD3900002080B582B000AF034609
:10073C00FB71FB79092B00F2BB8101A252F823F06B
:10074C0075070008C90700081D0800087108000893
:10075C00C5080008190900086D090008C10900083E
:10076C00150A0008690A000800224FF40041D3481A
:10077C0000F080FF00220221D04800F07BFF002215
:10078C004FF48051CD4800F075FF00224FF480717A
:10079C00CA4800F06FFF00224FF40071C74800F008
:1007AC0069FF00224FF48061C44800F063FF01220E
:1007BC004FF40061C14800F05DFF7AE101224FF473
:1007CC000041BE4800F056FF00220221BB4800F059
:1007DC0051FF00224FF48051B84800F04BFF01222A
:1007EC004FF48071B54800F045FF01224FF40071C1
:1007FC00B24800F03FFF01224FF48061AF4800F097
:10080C0039FF01224FF40061AC4800F033FF50E196
:10081C0000224FF40041A94800F02CFF00220221D5
:10082C00A64800F027FF01224FF48051A34800F0A6
:10083C0021FF00224FF48071A04800F01BFF002222
:10084C004FF400719D4800F015FF01224FF48061B8
:10085C009A4800F00FFF00224FF40061974800F017
:10086C0009FF26E100224FF40041944800F002FFFA
:10087C0000220221914800F0FDFE00224FF480512D
:10088C008E4800F0F7FE00224FF480718B4800F088
:10089C00F1FE01224FF40071884800F0EBFE0122BA
:1008AC004FF48061854800F0E5FE00224FF40061B2
:1008BC00824800F0DFFEFCE001224FF400417F484B
:1008CC0000F0D8FE002202217C4800F0D3FE00226A
:1008DC004FF48051794800F0CDFE01224FF4807125
:1008EC00764800F0C7FE01224FF40071734800F007
:1008FC00C1FE00224FF48061704800F0BBFE002264
:10090C004FF400616D4800F0B5FED2E000224FF4C8
:10091C0000416A4800F0AEFE01220221674800F057
:10092C00A9FE00224FF48051644800F0A3FE00227F
:10093C004FF48071614800F09DFE01224FF400716C
:10094C005E4800F097FE00224FF480615B4800F097
:10095C0091FE00224FF40061584800F08BFEA8E095
:10096C0000224FF40041554800F084FE0122022180
:10097C00524800F07FFE00224FF480514F4800F0A7
:10098C0079FE00224FF480714C4800F073FE002277
:10099C004FF40071494800F06DFE00224FF4806165
:1009AC00464800F067FE00224FF40061434800F017
:1009BC0061FE7EE000224FF40041404800F05AFEF8
:1009CC00002202213D4800F055FE00224FF48051D8
:1009DC003A4800F04FFE01224FF48071374800F086
:1009EC0049FE01224FF40071344800F043FE01220D
:1009FC004FF48061314800F03DFE01224FF400615C
:100A0C002E4800F037FE54E000224FF400412B48F2
:100A1C0000F030FE00220221284800F02BFE0022BC
:100A2C004FF48051254800F025FE00224FF48071D0
:100A3C00224800F01FFE00224FF400711F4800F006
:100A4C0019FE00224FF480611C4800F013FE0022B6
:100A5C004FF40061194800F00DFE2AE000224FF41B
:100A6C000041164800F006FE00220221134800F057
:100A7C0001FE00224FF48051104800F0FBFD0022D3
:100A8C004FF480710D4800F0F5FD01224FF4007118
:100A9C000A4800F0EFFD00224FF48061074800F097
:100AAC00E9FD00224FF40061044800F0E3FD00E092
:100ABC0000BF00BF0837BD4680BD00BF0008014025
:100ACC0080B500AF684B1B78042B00F2C28001A2EA
:100ADC0052F823F0F50A0008370B0008810B0008C8
:100AEC00CB0B0008150C0008012208215F4800F010
:100AFC00C1FD012210215D4800F0BCFD0122202126
:100B0C005A4800F0B7FD01224021584800F0B2FDD0
:100B1C00574B1B781846FFF707FE534B01221A70F0
:100B2C000A21012000F0BCF99CE0002208214F486A
:100B3C0000F0A0FD012210214C4800F09BFD012289
:100B4C0020214A4800F096FD01224021474800F040
:100B5C0091FD474B1B781846FFF7E6FD454B5B684C
:100B6C00012B78D1404B02221A700A21012000F08F
:100B7C0097F970E0012208213C4800F07BFD00222F
:100B8C0010213A4800F076FD01222021374800F070
:100B9C0071FD01224021354800F06CFD344B5B782F
:100BAC001846FFF7C1FD334B5B68012B55D12E4B1B
:100BBC0003221A700A21012000F072F94DE0012283
:100BCC0008212A4800F056FD01221021274800F088
:100BDC0051FD00222021254800F04CFD012240212E
:100BEC00224800F047FD224B9B781846FFF79CFDEE
:100BFC00204B5B68012B32D11B4B04221A700A214B
:100C0C00012000F04DF92AE001220821174800F0DC
:100C1C0031FD01221021154800F02CFD012220216C
:100C2C00124800F027FD00224021104800F022FD60
:100C3C000F4BDB781846FFF777FD0E4B5B68012BEB
:100C4C000FD1094B01221A700A21012000F028F95A
:100C5C0007E000BF06E000BF04E000BF02E000BFF9
:100C6C0000E000BF00BF80BD30000020000C014040
:100C7C00040000204C00002080B500AF00F010FAFA
:100C8C0000F016F800F09CF800F04EF8064801F061
:100C9C0035F9064B01221A70FFF706FDFFF750FAE3
:100CAC00FFF70EFFF8E700BF5C00002001000020FA
:100CBC0080B590B000AF07F1180328220021184628
:100CCC0001F0D8FC3B1D00221A605A609A60DA6071
:100CDC001A610223BB610123BB621023FB62002358
:100CEC007B6307F11803184600F0DCFC0346002B6D
:100CFC0001D000F0CFF80F237B600023BB600023F2
:100D0C00FB6000233B6100237B613B1D00211846E7
:100D1C0000F048FF0346002B01D000F0BBF800BFE9
:100D2C004037BD4680BD000080B586B000AF07F1EE
:100D3C00080300221A605A609A60DA603B4600226F
:100D4C001A605A601D4B4FF080421A601B4B41F6E3
:100D5C003F725A60194B00229A60184B0922DA60D4
:100D6C00164B00221A61154B00229A61134801F0B0
:100D7C0075F80346002B01D000F08CF84FF480532B
:100D8C00BB6007F1080319460C4801F00BFA034647
:100D9C00002B01D000F07EF800233B6000237B6029
:100DAC003B461946054801F0D7FB0346002B01D002
:100DBC0000F070F800BF1837BD4680BD5C00002005
:100DCC0080B586B000AF07F1080300221A605A60A4
:100DDC009A60DA60274B9B69264A43F004039361BF
:100DEC00244B9B6903F004037B607B68214B9B695C
:100DFC00204A43F0080393611E4B9B6903F00803E0
:100E0C003B603B68002249F6FE711B4800F032FC47
:100E1C0000227821194800F02DFC49F6FE73BB60C6
:100E2C000123FB6000233B6102237B6107F1080374
:100E3C001946114800F0A4FA0723BB600023FB609D
:100E4C0000233B6107F1080319460C4800F098FA9F
:100E5C007823BB600123FB6000233B6102237B6191
:100E6C0007F108031946054800F08AFA00BF183745
:100E7C00BD4680BD0010024000080140000C01403E
:100E8C0080B582B000AF786000F026F800BF08375C
:100E9C00BD4680BD80B400AF72B600BFFEE7000057
:100EAC0080B483B000AF786039607B68012B09DCBB
:100EBC0007497B683A6841F82320064A7B68002181
:100ECC0042F8231000BF0C37BD4680BC704700BFF2
:100EDC003C0000204C00002080B483B000AF002305
:100EEC007B601CE0124A7B6852F82330002B13DD28
:100EFC000F4A7B6852F823305A1E0D497B6841F823
:100F0C0023200B4A7B6852F82330002B04DC094A5F
:100F1C007B68012142F823107B6801337B607B687E
:100F2C00022BDFDD00BF00BF0C37BD4680BC704715
:100F3C003C0000204C00002080B485B000AF154B65
:100F4C009B69144A43F001039361124B9B6903F0B4
:100F5C000103BB60BB680F4BDB690E4A43F0805347
:100F6C00D3610C4BDB6903F080537B607B680A4BCD
:100F7C005B68FB60FB6823F0E063FB60FB6843F09D
:100F8C000073FB60044AFB68536000BF1437BD4616
:100F9C0080BC7047001002400000014080B584B056
:100FAC0000AF78607B681B68B3F1804F13D10C4B9A
:100FBC00DB690B4A43F00103D361094BDB6903F096
:100FCC000103FB60FB68002200211C2000F0A1F94A
:100FDC001C2000F0BAF900BF1037BD4680BD00BF21
:100FEC000010024080B400AFFEE780B400AFFEE713
:100FFC0080B400AFFEE780B400AFFEE780B400AF72
:10100C00FEE780B400AF00BFBD4680BC704780B423
:10101C0000AF00BFBD4680BC704780B400AF00BFBE
:10102C00BD4680BC704780B500AF00F07FF800BFB4
:10103C0080BD000080B500AF024800F0ABFF00BFE0
:10104C0080BD00BF5C00002080B400AF00BFBD4677
:10105C0080BC7047FFF7F8FF0B480C490C4A002383
:10106C0002E0D458C4500433C4188C42F9D3094A52
:10107C00094C002301E013600432A242FBD301F0BF
:10108C00D5FAFFF7F9FD704700000020140000208E
:10109C00D426000814000020A8000020FEE7000061
:1010AC0080B500AF084B1B68074A43F01003136070
:1010BC00032000F023F90F2000F008F8FFF73CFFA5
:1010CC000023184680BD00BF0020024080B582B0CE
:1010DC0000AF7860124B1A68124B1B7819464FF40C
:1010EC007A73B3FBF1F3B2FBF3F3184600F03BF960
:1010FC000346002B01D001230EE07B680F2B0AD88E
:10110C00002279684FF0FF3000F003F9064A7B6843
:10111C001360002300E0012318460837BD4680BD4C
:10112C0008000020100000200C00002080B400AF4C
:10113C00054B1B781A46054B1B681344034A136076
:10114C0000BFBD4680BC704710000020A4000020EA
:10115C0080B400AF024B1B681846BD4680BC70477C
:10116C00A400002080B485B000AF78607B6803F0E9
:10117C000703FB600C4BDB68BB60BA684FF6FF03E0
:10118C001340BB60FB681A02BB68134343F0BF6398
:10119C0043F40033BB60044ABB68D36000BF143710
:1011AC00BD4680BC704700BF00ED00E080B400AFCE
:1011BC00044BDB681B0A03F007031846BD4680BCD2
:1011CC00704700BF00ED00E080B483B000AF034671
:1011DC00FB7197F90730002B0BDBFB7903F01F0237
:1011EC00064997F907305B09012000FA02F241F831
:1011FC00232000BF0C37BD4680BC704700E100E0E7
:10120C0080B483B000AF03463960FB7197F90730A7
:10121C00002B0ADB3B68DAB20C4997F90730120154
:10122C00D2B20B4483F800230AE03B68DAB20849D7
:10123C00FB7903F00F03043B1201D2B20B441A7674
:10124C0000BF0C37BD4680BC704700BF00E100E01A
:10125C0000ED00E080B489B000AFF860B9607A604E
:10126C00FB6803F00703FB61FB69C3F10703042B65
:10127C0028BF0423BB61FB690433062B02D9FB692D
:10128C00033B00E000237B614FF0FF32BB6902FAA5
:10129C0003F3DA43BB681A407B699A404FF0FF3185
:1012AC007B6901FA03F3D9437B680B40134318465F
:1012BC002437BD4680BC704780B582B000AF7860E3
:1012CC007B68013BB3F1807F01D301230FE00A4A15
:1012DC007B68013B53600F214FF0FF30FFF790FF0D
:1012EC00054B00229A60044B07221A600023184613
:1012FC000837BD4680BD00BF10E000E080B582B06D
:10130C0000AF78607868FFF72DFF00BF0837BD4647
:10131C0080BD80B586B000AF0346B9607A60FB73C0
:10132C0000237B61FFF742FF78617A68B9687869BE
:10133C00FFF790FF024697F90F3011461846FFF75A
:10134C005FFF00BF1837BD4680BD80B582B000AFCF
:10135C000346FB7197F907301846FFF735FF00BFBE
:10136C000837BD4680BD80B582B000AF7860786824
:10137C00FFF7A2FF034618460837BD4680BD0000A4
:10138C0080B48BB000AF7860396000237B6200239F
:10139C003B6248E101227B6A02FA03F3FB613B6882
:1013AC001B68FA691340BB61BA69FB699A4240F049
:1013BC0037813B685B68A34A93425ED0A14A934253
:1013CC0075D8A14A934258D09F4A93426FD89F4AEE
:1013DC00934252D09D4A934269D89D4A93424CD035
:1013EC009B4A934263D89B4A934246D0994A934274
:1013FC005DD8122B2AD8122B59D801A252F823F0FF
:10140C00871400086114000873140008B514000850
:10141C00BB140008BB140008BB140008BB14000864
:10142C00BB140008BB140008BB140008BB14000854
:10143C00BB140008BB140008BB140008BB14000844
:10144C00BB140008691400087D140008824A9342FA
:10145C0013D02CE03B68DB683B6229E03B68DB681F
:10146C0004333B6224E03B68DB6808333B621FE0DB
:10147C003B68DB680C333B621AE03B689B68002BD3
:10148C0002D104233B6213E03B689B68012B05D11E
:10149C0008233B627B68FA691A6109E008233B6206
:1014AC007B68FA695A6103E000233B6200E000BFED
:1014BC00BB69FF2B01D87B6801E07B6804337B613F
:1014CC00BB69FF2B02D87B6A9B0002E07B6A083B5E
:1014DC009B003B617B691A680F213B6901FA03F39E
:1014EC00DB431A40396A3B6901FA03F31A437B69FF
:1014FC001A603B685B6803F08053002B00F090800F
:10150C00564B9B69554A43F001039361534B9B69BE
:10151C0003F00103BB60BB68514A7B6A9B08023332
:10152C0052F82330FB607B6A03F003039B000F220D
:10153C0002FA03F3DB43FA681340FB607B68494A09
:10154C0093420DD07B68484A934207D07B68474A48
:10155C00934201D1022304E0032302E0012300E0C3
:10156C0000237A6A02F0030292009340FA68134354
:10157C00FB603B497B6A9B080233FA6841F82320E5
:10158C003B685B6803F48013002B06D0384B9A68D9
:10159C003749BB6913438B6006E0354B9A68BB69CE
:1015AC00DB43334913408B603B685B6803F40013E7
:1015BC00002B06D02E4BDA682D49BB691343CB6048
:1015CC0006E02B4BDA68BB69DB4329491340CB603F
:1015DC003B685B6803F40033002B06D0244B5A683D
:1015EC002349BB6913434B6006E0214B5A68BB6926
:1015FC00DB431F4913404B603B685B6803F480334B
:10160C00002B06D01A4B1A681949BB6913430B609F
:10161C0006E0174B1A68BB69DB43154913400B6096
:10162C007B6A01337B623B681A687B6A22FA03F39C
:10163C00002B7FF4AFAE00BF00BF2C37BD4680BC83
:10164C00704700BF00003210000031100000221063
:10165C0000002110000012100000111000100240B8
:10166C000000014000080140000C01400010014046
:10167C000004014080B483B000AF78600B467B80DF
:10168C0013467B707B78002B03D07A887B681A61B9
:10169C0003E07B881A047B681A6100BF0C37BD46D7
:1016AC0080BC704780B586B000AF78607B68002B3B
:1016BC0001D101236CE27B681B6803F00103002B52
:1016CC0000F08780924B5B6803F00C03042B0CD06A
:1016DC008F4B5B6803F00C03082B12D18C4B5B68AF
:1016EC0003F48033B3F5803F0BD1894B1B6803F4B3
:1016FC000033002B6CD07B685B68002B68D1012316
:10170C0046E27B685B68B3F5803F06D1804B1B6873
:10171C007F4A43F4803313602EE07B685B68002BB8
:10172C000CD17B4B1B687A4A23F480331360784BC3
:10173C001B68774A23F4802313601DE07B685B6889
:10174C00B3F5A02F0CD1724B1B68714A43F4802364
:10175C0013606F4B1B686E4A43F4803313600BE0CD
:10176C006B4B1B686A4A23F480331360684B1B680D
:10177C00674A23F4802313607B685B68002B13D0CB
:10178C00FFF7E6FC386108E0FFF7E2FC02463B6934
:10179C00D31A642B01D90323FAE15D4B1B6803F4C4
:1017AC000033002BF0D014E0FFF7D2FC386108E0D6
:1017BC00FFF7CEFC02463B69D31A642B01D90323F5
:1017CC00E6E1534B1B6803F40033002BF0D100E02F
:1017DC0000BF7B681B6803F00203002B63D04C4BEB
:1017EC005B6803F00C03002B0BD0494B5B6803F0D8
:1017FC000C03082B1CD1464B5B6803F48033002B85
:10180C0016D1434B1B6803F00203002B05D07B68F9
:10181C001B69012B01D00123BAE13D4B1B6823F05E
:10182C00F8027B685B69DB00394913430B603AE0D3
:10183C007B681B69002B20D0364B01221A60FFF706
:10184C0087FC386108E0FFF783FC02463B69D31A3A
:10185C00022B01D903239BE12D4B1B6803F00203E0
:10186C00002BF0D02A4B1B6823F0F8027B685B69D5
:10187C00DB00274913430B6015E0264B00221A604E
:10188C00FFF766FC386108E0FFF762FC02463B6933
:10189C00D31A022B01D903237AE11D4B1B6803F0E9
:1018AC000203002BF0D17B681B6803F00803002BAC
:1018BC003AD07B689B69002B19D0174B01221A6018
:1018CC00FFF746FC386108E0FFF742FC02463B6933
:1018DC00D31A022B01D903235AE10D4B5B6A03F097
:1018EC000203002BF0D0012000F09AFA1CE00A4B06
:1018FC0000221A60FFF72CFC38610FE0FFF728FC80
:10190C0002463B69D31A022B08D9032340E100BFDE
:10191C000010024000004242800442429E4B5B6A2F
:10192C0003F00203002BE9D17B681B6803F004036E
:10193C00002B00F0A6800023FB75974BDB6903F0AE
:10194C008053002B0DD1944BDB69934A43F08053A9
:10195C00D361914BDB6903F08053BB60BB680123FF
:10196C00FB758E4B1B6803F48073002B18D18B4BCB
:10197C001B688A4A43F480731360FFF7E9FB3861F4
:10198C0008E0FFF7E5FB02463B69D31A642B01D94B
:10199C000323FDE0814B1B6803F48073002BF0D014
:1019AC007B68DB68012B06D17B4B1B6A7A4A43F0C0
:1019BC00010313622DE07B68DB68002B0CD1764BA6
:1019CC001B6A754A23F001031362734B1B6A724A3C
:1019DC0023F0040313621CE07B68DB68052B0CD13D
:1019EC006D4B1B6A6C4A43F0040313626A4B1B6A0F
:1019FC00694A43F0010313620BE0674B1B6A664AAA
:101A0C0023F001031362644B1B6A634A23F0040343
:101A1C0013627B68DB68002B15D0FFF799FB3861EC
:101A2C000AE0FFF795FB02463B69D31A41F2883274
:101A3C00934201D90323ABE0574B1B6A03F002031B
:101A4C00002BEED014E0FFF783FB38610AE0FFF7C0
:101A5C007FFB02463B69D31A41F28832934201D98B
:101A6C00032395E04C4B1B6A03F00203002BEED1D1
:101A7C00FB7D012B05D1484BDB69474A23F0805392
:101A8C00D3617B68DB69002B00F08180424B5B6883
:101A9C0003F00C03082B61D07B68DB69022B46D169
:101AAC003F4B00221A60FFF753FB386108E0FFF749
:101ABC004FFB02463B69D31A022B01D9032367E083
:101ACC00354B1B6803F00073002BF0D17B681B6A4D
:101ADC00B3F5803F08D1304B5B6823F400327B6850
:101AEC009B682D4913434B602B4B5B6823F474129A
:101AFC007B68196A7B685B6A0B43274913434B600D
:101B0C00274B01221A60FFF723FB386108E0FFF72F
:101B1C001FFB02463B69D31A022B01D9032337E082
:101B2C001D4B1B6803F00073002BF0D02FE01C4BF7
:101B3C0000221A60FFF70CFB386108E0FFF708FB86
:101B4C0002463B69D31A022B01D9032320E0124B26
:101B5C001B6803F00073002BF0D118E07B68DB6985
:101B6C00012B01D1012313E00B4B5B68FB60FB687D
:101B7C0003F480327B681B6A9A4206D1FB6803F43B
:101B8C0070127B685B6A9A4201D0012300E000234B
:101B9C0018461837BD4680BD00100240007000404A
:101BAC006000424280B584B000AF786039607B68D9
:101BBC00002B01D10123D0E06A4B1B6803F0070313
:101BCC003A689A4210D9674B1B6823F007026549A3
:101BDC003B6813430B60634B1B6803F007033A68C5
:101BEC009A4201D00123B8E07B681B6803F0020322
:101BFC00002B20D07B681B6803F00403002B05D05E
:101C0C00594B5B68584A43F4E06353607B681B682C
:101C1C0003F00803002B05D0534B5B68524A43F486
:101C2C0060535360504B5B6823F0F0027B689B68F9
:101C3C004D4913434B607B681B6803F00103002B79
:101C4C0040D07B685B68012B07D1474B1B6803F4C2
:101C5C000033002B15D101237FE07B685B68022BDE
:101C6C0007D1414B1B6803F00073002B09D10123F2
:101C7C0073E03D4B1B6803F00203002B01D10123E1
:101C8C006BE0394B5B6823F003027B685B68364979
:101C9C0013434B60FFF75CFAF8600AE0FFF758FA61
:101CAC000246FB68D31A41F28832934201D90323CE
:101CBC0053E02D4B5B6803F00C027B685B689B0068
:101CCC009A42EBD1274B1B6803F007033A689A4200
:101CDC0010D2244B1B6823F0070222493B681343A4
:101CEC000B60204B1B6803F007033A689A4201D043
:101CFC00012332E07B681B6803F00403002B08D03F
:101D0C00194B5B6823F4E0627B68DB68164913436C
:101D1C004B607B681B6803F00803002B09D0124B47
:101D2C005B6823F460527B681B69DB000E4913432C
:101D3C004B6000F021F802460B4B5B681B0903F06B
:101D4C000F030A49CB5C22FA03F3094A1360094BCF
:101D5C001B681846FFF7BAF9002318461037BD4622
:101D6C0080BD00BF0020024000100240A8260008E1
:101D7C00080000200C00002080B487B000AF0023C6
:101D8C00FB600023BB6000237B6100237B6000238E
:101D9C003B611E4B5B68FB60FB6803F00C03042B80
:101DAC0002D0082B03D027E0194B3B6127E0FB68DE
:101DBC009B0C03F00F03174AD35C7B60FB6803F4A6
:101DCC008033002B10D0114B5B685B0C03F00103CC
:101DDC00114AD35CBB607B680D4A02FB03F2BB6803
:101DEC00B2FBF3F37B6104E07B680C4A02FB03F368
:101DFC007B617B693B6102E0054B3B6100BF3B694A
:101E0C0018461C37BD4680BC704700BF001002400E
:101E1C0000127A00B8260008C826000800093D0008
:101E2C0080B485B000AF78600A4B1B680A4AA2FBED
:101E3C0003235B0A7A6802FB03F3FB6000BFFB68B9
:101E4C005A1EFA60002BF9D100BF00BF1437BD46F3
:101E5C0080BC704708000020D34D621080B582B062
:101E6C0000AF78607B68002B01D1012341E07B68D7
:101E7C0093F83D30DBB2002B06D17B68002283F84F
:101E8C003C207868FFF78AF87B68022283F83D20B3
:101E9C007B681A687B6804331946104600F06EFAAA
:101EAC007B68012283F846207B68012283F83E2060
:101EBC007B68012283F83F207B68012283F8402055
:101ECC007B68012283F841207B68012283F8422041
:101EDC007B68012283F843207B68012283F844202D
:101EEC007B68012283F845207B68012283F83D2022
:101EFC00002318460837BD4680BD000080B485B06D
:101F0C0000AF78607B6893F83D30DBB2012B01D0D9
:101F1C00012335E07B68022283F83D207B681B6837
:101F2C00DA687B681B6842F00102DA607B681B6828
:101F3C00164A934209D07B681B68B3F1804F04D0DA
:101F4C007B681B68124A934211D17B681B689B68A3
:101F5C0003F00703FB60FB68062B10D07B681B6843
:101F6C001A687B681B6842F001021A6007E07B6804
:101F7C001B681A687B681B6842F001021A60002318
:101F8C0018461437BD4680BC704700BF002C01407A
:101F9C000004004080B582B000AF78607B681B689D
:101FAC001B6903F00203022B22D17B681B68DB68E0
:101FBC0003F00203022B1BD17B681B686FF002023B
:101FCC001A617B6801221A777B681B689B6903F096
:101FDC000303002B03D0786800F0B4F905E07868AF
:101FEC0000F0A7F9786800F0B6F97B6800221A7740
:101FFC007B681B681B6903F00403042B22D17B68EC
:10200C001B68DB6803F00403042B1BD17B681B6883
:10201C006FF004021A617B6802221A777B681B68D6
:10202C009B6903F44073002B03D0786800F08AF9A5
:10203C0005E0786800F07DF9786800F08CF97B6831
:10204C0000221A777B681B681B6903F00803082BB6
:10205C0022D17B681B68DB6803F00803082B1BD1BB
:10206C007B681B686FF008021A617B6804221A7780
:10207C007B681B68DB6903F00303002B03D07868D3
:10208C0000F060F905E0786800F053F9786800F02A
:10209C0062F97B6800221A777B681B681B6903F066
:1020AC001003102B22D17B681B68DB6803F0100334
:1020BC00102B1BD17B681B686FF010021A617B68B8
:1020CC0008221A777B681B68DB6903F44073002BCA
:1020DC0003D0786800F036F905E0786800F029F94B
:1020EC00786800F038F97B6800221A777B681B68E7
:1020FC001B6903F00103012B0ED17B681B68DB68A5
:10210C0003F00103012B07D17B681B686FF0010200
:10211C001A617868FEF7B4FE7B681B681B6903F0D4
:10212C008003802B0ED17B681B68DB6803F0800377
:10213C00802B07D17B681B686FF080021A6178686E
:10214C0000F06BFA7B681B681B6903F04003402BA3
:10215C000ED17B681B68DB6803F04003402B07D172
:10216C007B681B686FF040021A61786800F0FCF81D
:10217C007B681B681B6903F02003202B0ED17B6846
:10218C001B68DB6803F02003202B07D17B681B68DE
:10219C006FF020021A61786800F036FA00BF083739
:1021AC00BD4680BD80B584B000AF78603960002337
:1021BC00FB737B6893F83C30012B01D10223B4E014
:1021CC007B68012283F83C207B68022283F83D2047
:1021DC007B681B689B68BB60BB6823F07703BB60A4
:1021EC00BB6823F47F43BB607B681B68BA689A604A
:1021FC003B681B68B3F5005F3ED0B3F5005F00F29F
:10220C008780B3F5805F00F08680B3F5805F7FD860
:10221C00702B1AD0702B7BD8602B50D0602B77D8BA
:10222C00502B3CD0502B73D8402B58D0402B6FD810
:10223C00302B64D0302B6BD8202B60D0202B67D860
:10224C00002B5CD0102B5AD062E07B6818683B687E
:10225C0099683B685A683B68DB6800F05EF97B68FC
:10226C001B689B68BB60BB6843F07703BB607B68F3
:10227C001B68BA689A604FE07B6818683B6899687D
:10228C003B685A683B68DB6800F047F97B681B6861
:10229C009A687B681B6842F480429A603CE07B68D9
:1022AC0018683B6859683B68DB681A4600F0BEF852
:1022BC007B681B685021184600F015F92CE07B68F0
:1022CC0018683B6859683B68DB681A4600F0DCF814
:1022DC007B681B686021184600F005F91CE07B68E0
:1022EC0018683B6859683B68DB681A4600F09EF832
:1022FC007B681B684021184600F0F5F80CE07B6801
:10230C001A683B681B681946104600F0ECF803E0AD
:10231C000123FB7300E000BF7B68012283F83D20A2
:10232C007B68002283F83C20FB7B18461037BD46A7
:10233C0080BD80B483B000AF786000BF0C37BD4661
:10234C0080BC704780B483B000AF786000BF0C379E
:10235C00BD4680BC704780B483B000AF786000BFCE
:10236C000C37BD4680BC704780B483B000AF78603A
:10237C0000BF0C37BD4680BC7047000080B485B0F0
:10238C0000AF786039607B681B68FB607B68254A0E
:10239C00934207D07B68B3F1804F03D07B68224A0D
:1023AC00934208D1FB6823F07003FB603B685B68C9
:1023BC00FA681343FB607B681A4A934207D07B6828
:1023CC00B3F1804F03D07B68174A934208D1FB6866
:1023DC0023F44073FB603B68DB68FA681343FB60D3
:1023EC00FB6823F080023B685B691343FB607B68EE
:1023FC00FA681A603B689A687B68DA623B681A680C
:10240C007B689A627B68074A934203D13B681A69DE
:10241C007B681A637B6801225A6100BF1437BD4682
:10242C0080BC7047002C01400004004080B487B091
:10243C0000AFF860B9607A60FB681B6A7B61FB686F
:10244C001B6A23F00102FB681A62FB689B693B6103
:10245C003B6923F0F0033B617B681B013A69134332
:10246C003B617B6923F00A037B617A69BB68134388
:10247C007B61FB683A699A61FB687A691A6200BFF2
:10248C001C37BD4680BC704780B487B000AFF86085
:10249C00B9607A60FB681B6A7B61FB681B6A23F07E
:1024AC001002FB681A62FB689B693B613B6923F471
:1024BC0070433B617B681B033A6913433B617B6947
:1024CC0023F0A0037B61BB681B017A6913437B611A
:1024DC00FB683A699A61FB687A691A6200BF1C371B
:1024EC00BD4680BC704780B485B000AF7860396061
:1024FC007B689B68FB60FB6823F07003FB603A68A9
:10250C00FB68134343F00703FB607B68FA689A602F
:10251C0000BF1437BD4680BC704780B487B000AF95
:10252C00F860B9607A603B60FB689B687B617B6993
:10253C0023F47F437B613B681A027B681A43BB68B8
:10254C0013437A6913437B61FB687A699A6000BF15
:10255C001C37BD4680BC704780B485B000AF786036
:10256C0039607B6893F83C30012B01D1022341E0A8
:10257C007B68012283F83C207B68022283F83D2093
:10258C007B681B685B68FB607B681B689B68BB6037
:10259C00FB6823F07003FB603B681B68FA6813430D
:1025AC00FB607B681B68FA685A607B681B68144A7E
:1025BC00934209D07B681B68B3F1804F04D07B68D1
:1025CC001B68104A93420CD1BB6823F08003BB609C
:1025DC003B685B68BA681343BB607B681B68BA686E
:1025EC009A607B68012283F83D207B68002283F887
:1025FC003C20002318461437BD4680BC704700BFF2
:10260C00002C01400004004080B483B000AF78601F
:10261C0000BF0C37BD4680BC704780B483B000AFA0
:10262C00786000BF0C37BD4680BC704770B5002683
:10263C000C4D0D4C641BA410A64209D100F022F8DD
:10264C0000260A4D0A4C641BA410A64205D170BD8D
:10265C0055F8043B98470136EEE755F8043B98478C
:10266C000136F2E7CC260008CC260008CC26000860
:10267C00D026000803460244934200D1704703F869
:10268C00011BF9E7F8B500BFF8BC08BC9E467047C3
:0C269C00F8B500BFF8BC08BC9E467047B3
:1026A80000000000000000000102030406070809FA
:1026B80002030405060708090A0B0C0D0E0F10107B
:0426C800010200000B
:0426CC0031010008D0
:0426D0000D010008F0
:1026D40001010203030405060024F40010000000B5
:0426E40001000000F1
:04000005080010617E
:00000001FF
